:020000040800F2
:10000000F84D0120A50200087B3D00085939000881
:10001000793D0008E7200008F73F000800000000D5
:100020000000000000000000000000007F3D00080C
:1000300089210008000000007D3D0008813D000886
:10004000BF020008BF020008BF020008BF0200088C
:10005000BF020008BF020008BF020008BF0200087C
:10006000BF020008BF020008BF020008BF0200086C
:10007000BF020008BF020008E9200008BF02000814
:10008000BF020008BF020008BF020008BF0200084C
:10009000BF020008BF020008BF020008BF0200083C
:1000A000BF020008BF020008BF020008BF0200082C
:1000B000BF020008BF020008BF020008BF0200081C
:1000C000BF020008BF020008BF020008BF0200080C
:1000D000BF020008BF020008BF020008BF020008FC
:1000E000BF020008BF020008BF020008BF020008EC
:1000F000BF020008BF020008BF020008BF020008DC
:10010000BF020008BF020008BF020008BF020008CB
:10011000BF020008BF020008BF020008BF020008BB
:10012000BF020008BF020008F5200008BF02000857
:10013000BF020008BF020008BF020008BF0200089B
:10014000BF020008BF020008BF020008BF0200088B
:10015000BF020008BF02000801210008BF0200081A
:10016000BF020008BF020008BF020008BF0200086B
:10017000BF020008BF020008BF0200080000000024
:10018000BF020008BF02000800F002F800F07AF891
:100190000AA090E8000C82448344AAF10107DA45E2
:1001A00001D100F06FF8AFF2090EBAE80F0013F0BA
:1001B000010F18BFFB1A43F00103184768FF000046
:1001C00088FF00000A444FF0000C10F8013B13F0C8
:1001D000070408BF10F8014B1D1108BF10F8015BA0
:1001E000641E05D010F8016B641E01F8016BF9D193
:1001F00013F0080F1EBF10F8014BAD1C0C1B09D1EA
:100200006D1E58BF01F801CBFAD505E014F8016B5B
:1002100001F8016B6D1EF9D59142D6D370470000ED
:100220000023002400250026103A28BF78C1FBD8FF
:10023000520728BF30C148BF0B60704766290DF0D8
:100240007A85642900F0C281782900F0FB81732946
:1002500000F05986002070471FB50DF062FD9DE843
:10026000030000F06DFB00F05BFF040000200021A4
:100270000CF0CAFEE06000F05DFE1FBD10B500F09E
:10028000C2FE10BD01F057F91146FFF7E5FF07F078
:1002900069FA01F069FA03B4FFF7F0FF03BC01F05B
:1002A00013FB00000948804709480047FEE7FEE7C6
:1002B000FEE7FEE7FEE7FEE7FEE7FEE7FEE7FEE716
:1002C00004480549054A064B70470000193E0008DE
:1002D00089010008F8050020F84D0120F8450120AB
:1002E000F845012070B5A0FB0140B4F1805170F1D8
:1002F000000024BF002070BD204600F050FB050028
:100300001CBF214600F0B2FE284670BD70B5044601
:10031000051F00F0F9FA0068002C14BF446870BD96
:10032000002C18BFAC423CBF20466468F8D301687B
:100330000A18AA4218BF456003D12A68054611442D
:10034000016028684119A1421CBF6C6070BD6168E2
:10035000696021680844286070BD70B50D46064686
:10036000041F00F0D1FAD0F800C0C5B1E6B105F124
:100370000B0020F00703AB423CBF002070BD20689B
:10038000984238BFDCF8042013D3C11A08292FD3B0
:10039000E01840F8041B2360FFF7B8FF28E0304660
:1003A000FFF7B4FF002070BD2846BDE8704000F0A4
:1003B000F6BA002A18BFA2423CBF94465268F8D34E
:1003C0000119914216D111680844984212D3C11AFA
:1003D00008293CBF2060506808D35168E01841608C
:1003E000216812681144C91A01602360CCF8040026
:1003F000201D70BD181F00F0D2FA050007D021683B
:100400000A1F211D00F0E6F9201DFFF77FFF284697
:1004100070BD53EA020C00F069802DE9F04B4FF0FB
:100420000006002B1FBFB3FA83F503FA05F424FA84
:1004300005F65E4012BF1643B2FA82F502FA05F4E1
:10044000C5F120051EBF22FA05FC44EA0C04203544
:1004500056EA044C4FEA144418BF641C4FF00008DD
:100460004FF00009904271EB030C39D3002919BFFA
:10047000B1FA81F701FA07F6B0FA80F700FA07F649
:10048000C7F120071EBF20FA07FC46EA0C062037FA
:10049000B6FBF4FCA7EB0507103F07F01F0BCBF1F1
:1004A00020060CFA0BFB2CFA06F644BFB3460026D6
:1004B000202FA4BF5E464FF0000B5BEA060C08BF7E
:1004C0004FF0010B19EB0B09ABFB027C48EB060864
:1004D000C01B06FB02CC0BFB03CC71EB0C01C1E78C
:1004E0000B46024641464846BDE8F08B13B54FF037
:1004F00000004FF00001AFF30080BDE81C407047E2
:100500000FB4044910B503AA029800F001FD10BC15
:100510005DF814FBEC0400200FB4014610B504AAEA
:10052000039800F0F5FC10BC5DF814FB70B50446B0
:1005300085690068C10601D5302600E02026C00785
:1005400007D070BDD4E9012130469047206A401C95
:1005500020626D1EF6D570BD70B5044685690078C1
:10056000C00707D170BDD4E9012120209047206A3F
:10057000401C20626D1EF6D570BD70B50C46054658
:10058000012A05D02878800600D5EA69002302E018
:10059000012305E05B1C934202D2E05C0028F9D104
:1005A000A869E618C01AA861286A18442862284673
:1005B000FFF7BCFF04E0D5E9012114F8010B9047D7
:1005C000B442F8D32846FFF7C7FF70BD2DE9F041CC
:1005D0000646002410687529314616A510D0AFF3E1
:1005E0000080002802DA404213A507E031688A073C
:1005F00001D512A502E0490704D511A5012401E0A7
:10060000AFF3008000210A2206F1240709E0B0FBC5
:10061000F2FCB0FBF2F302FB1C00303078541846B9
:10062000491C0028F3D123462A463046BDE8F04154
:1006300000F0EFB9000000002D0000002B000000CA
:100640002000000070B504460D4621461068AFF347
:1006500000802188090502D50F4A7A4402E00E4A3B
:100660007A440E32002104F1240305E000F00F0665
:100670000009965D5E54491C0028F7D120780023BC
:10068000000704D5702D02D009B102231132204693
:10069000BDE8704000F0BDB96AF800002DE9F05FD8
:1006A000894604464FF0000ADFF824B1FB44C0F845
:1006B00020A02046E168884700287DD0252806D064
:1006C000D4E901219047206A401C2062F1E700250F
:1006D0005F462046E16888472028064607DB312E22
:1006E00005D2B81910F8200C08B10543F1E7A807A6
:1006F00001D525F00405C4F81CA00027C4F818A0F3
:100700002A2E09D0304605F0B3F938B304EB870838
:10071000303EC8F8186019E059F8041B204604EB75
:1007200087029161E1688847012F064618D1E06988
:10073000002820DA25F020051DE0D8F8180000EB8D
:10074000800006EB40003038C8F818002046E16809
:100750008847064605F08CF90028EED1012F0AD013
:100760002E2E08D12046E16888477F1C0646022FBE
:1007700045F02005C4DBA069002803DA404245F0BB
:100780000105A061E80701D025F01005A6B1A6F18A
:100790004100192802D8203645F400654A46314602
:1007A000204625604D46FFF749FD60B1012807D07E
:1007B000ED1D25F0070000E007E000F1080978E7EB
:1007C00005F1040975E730467AE7206ABDE8F09F35
:1007D00040F8000010B5203AC0F00B80B1E8185086
:1007E000203AA0E81850B1E81850A0E81850BFF41B
:1007F000F5AF5FEA027C24BFB1E81850A0E81850BA
:1008000044BF18C918C0BDE810405FEA827C24BF0D
:1008100051F8043B40F8043B08BF7047D20728BF9B
:1008200031F8023B48BF11F8012B28BF20F8023BEA
:1008300048BF00F8012B7047431A28BF9A427FF641
:10084000C9AF104410F0030F11441EBF11F8013D51
:10085000521E00F8013D10F0030F7FF4F6AF103A7E
:10086000C0F00A8010B531E91850103A20E918504C
:10087000BFF4F9AFBDE81040530724BF31E90810B9
:1008800020E9081044BF51F8043D40F8043D12F03F
:10089000030F08BF7047D20728BF31F8023D48BF99
:1008A00011F8012C28BF20F8023D48BF00F8012CA8
:1008B00070474FF0000200B5134694469646203923
:1008C00022BFA0E80C50A0E80C50B1F12001BFF409
:1008D000F7AF090728BFA0E80C5048BF0CC05DF86F
:1008E00004EB890028BF40F8042B08BF704748BFBD
:1008F00020F8022B11F0804F18BF00F8012B704731
:100900007047704770470000004870479C05002002
:10091000704770477047704738B504460A46002054
:100920006946AFF30080002808BF38BD0246009931
:10093000204600F004FC012038BD012000F0F3BD8A
:10094000F8B5AFF30080054600200C46102000BF2C
:100950000646A819A0420DD9324669460020AFF3D9
:100960000080070008BF00F0DEFD0098A04218BF1D
:100970000546C419FFF7C8FF05600746F01D20F0C3
:1009800007004619284600F0D3FBB44208BFF8BD63
:10099000A21B31463868BDE8F84000F0D0BB70B506
:1009A0000646FFF7B1FF056806F10B0020F00704CB
:1009B000B4429CBF002070BD2B466A68BAB1106873
:1009C000A04210D304F1080188423CBF506858602F
:1009D00007D35168101941601168091B0160586004
:1009E0001460101D70BD13465268002AE7D12146DD
:1009F0002846FFF791FF0028DED170BD10B500F04A
:100A000093FB006810BD10B5044600F08DFB046038
:100A100010BD2DE9F0470D4699469246044600F177
:100A200024080168880604D5E06921F010012160DE
:100A300000E00120A84201DD471B00E00027A1697A
:100A40007A1902EB0900081AA0612078C00602D4C6
:100A50002046FFF76BFD002608E0D4E901211AF8D3
:100A600006009047206A401C761C20624E45F4DB4D
:100A70002078C0060AD52046FFF758FD06E0D4E9E5
:100A8000012130209047206A401C2062381EA7F1C7
:100A90000107F4DC07E0D4E9012118F805009047CC
:100AA000206A401C2062281EA5F10105F3DC2046C7
:100AB000FFF752FD2078000602D50220BDE8F0873E
:100AC0000120FBE770472DE9FF4F0C461E464FF013
:100AD000FF378BB0D2E90001DDF860800A908A46CA
:100AE000C1F30A5505B93D46002108464FF0000004
:100AF000BAF1000F00F4400005DA00EB80004FF47B
:100B0000400101EA50004FEA9059B9F1010F00DDB0
:100B1000B9460A9850EA4A000ED044F61050A5F2A1
:100B2000FF3545432F14B8F1000F1ED07542291E22
:100B30001EDDC9F100021CE0B8F1010F4FF000000A
:100B400001D0302103E0F24305E02154401CB042C3
:100B5000FBDB30460022002121540B99C1F80880AC
:100B6000C1E900200FB0BDE8F08FBD1B6D1CDEE7B2
:100B70004A4600DA694206A800F098FB06AB93E803
:100B8000070003AB83E8070050460A9900F0E3FE34
:100B90008DE80700A0F500501F3800900398002D45
:100BA0000ADD42F21F014A460844002303A90390CC
:100BB000684601F04CF909E0A0F500504A461F389C
:100BC000002303A90390684601F056F98DE8070059
:100BD0000004000C03D04FF0FF30410800E0104645
:100BE000B8F1000F03D00022009215461EE0751EDA
:100BF00005D400F0BEFA303262556D1EF9D5B34609
:100C00000122084302D000227F1C04E02078302813
:100C100001D100227F1E002A099784D01DE0112DEA
:100C200007DA00F0A6FA303262556D1C50EA010274
:100C3000F5D1084302D00098C8B10EE00021681E2B
:100C400005E0235C625C63542254401E491C8142CF
:100C5000F7DBAB46A81B401E0990002004F80B00F0
:100C60000B98099AC0F80880C0E9002B7AE7112692
:100C70004FF0000857E72DE9F04F88460446D21D93
:100C800022F0070191B0D1E90001CDE90A0103F09A
:100C9000B3F902460B98C00F01D02D2007E0206861
:100CA000810701D52B2002E0202101EAC000032AA0
:100CB000099001D0072A05DB03464146204600F093
:100CC000B5FA0BE12078800601D5E06900E0062046
:100CD000B8F1650F814606D0B8F1660F18D0B8F1AB
:100CE000670F70D131E00020B9F1110F009001DBE6
:100CF000112301E009F101030AAA01A90CA8FFF7D9
:100D0000E2FEDDE90C70002609F10105834647E0AB
:100D100001204B4600904FF000470AAA01A90CA8F9
:100D2000FFF7D1FEDDE90DB00C995D46002610B944
:100D300009F101000D18B9EB050003D4C0F1FF362D
:100D400009F10105A5EB09002BE0B9F1010F01DA6A
:100D50004FF001090020B9F1110F0090484601DD64
:100D6000112300E003460AAA01A90CA8FFF7ABFE75
:100D7000DDE90C704D4600268346207800070AD432
:100D8000AB4500DA5D4601A8012D04DD411911F8DB
:100D9000011C302907D04F4502DA17F1040F04DA9D
:100DA000012082460FE06D1EEEE7002F02DCED1BF6
:100DB0003E4403E0781CA84200DD7D1CB81B00F116
:100DC000010A4FF000472078000703D4AA4501DB51
:100DD0004FF0FF3A0021B7F1004F0DF143088DF8B5
:100DE000431024D002202B23002F01DA7F422D2331
:100DF0000A21021EA0F1010000DC5FB197FBF1FCAB
:100E000097FBF1F201FB1C7C17460CF1300C08F843
:100E100001CDEEE7A8F1010003702188090501D595
:100E2000452100E06521A0F1010800F8011C0998A6
:100E30000FA9A1EB0807FF1D00B10120411901EB2B
:100E4000EA70A1693844081A401EA0612078C006E3
:100E500002D42046FFF76AFB099828B1D4E90121A2
:100E60009047206A401C20622078C00622D5204688
:100E7000FFF75CFB1EE0002E04DBB34502DD01A89A
:100E8000805D00E03020D4E901219047206A401CB9
:100E90002062761CAAF101005FEA000A0AD100F084
:100EA0003FF9C0680168405CD4E901219047206A9D
:100EB000401C2062281EA5F10105DCDC07E0D4E916
:100EC000012118F8010B9047206A401C2062381E4F
:100ED000A7F10107F3DC2046FFF73EFB032011B02A
:100EE00041E610B5436913B1AFF3008001E0FFF7AD
:100EF00044FB012010BD127800F124010A70002289
:100F00004A700122EDE711684FF0FF32E9E7000077
:100F1000074B70B50D467B4400F075F90446284632
:100F200000F036FA10B14FF0FF3070BD204670BDB2
:100F30006758000010B542485421FFF7BAFC4148F9
:100F40005421FFF7B6FC40485421FFF7B2FC3F495B
:100F50003B483C4A3F4B08603D490A603A491960AA
:100F6000531C0365481C1065012008653B48344A42
:100F700039A1784400F034FA20B9384878440A3866
:100F800000F0CAFA37482F4A35A1784400F028FA11
:100F900020B9344878440A3800F0BEFA32482A4A68
:100FA0002FA1784400F01CFA20B92F4878440A3861
:100FB00000F0B2FA40232248DC000021224600F073
:100FC000EBF920B125487844543800F0A5FA1D48C3
:100FD00022464023002100F0DFF920B12148784467
:100FE000543800F099FA184822461023002100F0E6
:100FF000D3F9002806D01C487844BDE81040563884
:1010000000F08ABA10BD104870B5006D20F00104E0
:101010000B4800F05BFA0B4800F058FA0A4800F061
:1010200055FA09E0206D20F00105204600F04EFA47
:101030002046FFF76BF92C46002CF3D170BD000061
:1010400098040020EC0400204005002060010020EE
:1010500064010020680100207200000002F100001D
:1010600077000000EEF00000DAF000004FF0000220
:101070000429C0F0128010F0030C3FF41CACCCF13A
:10108000040CBCF1020F18BF00F8012BA8BF20F818
:10109000022BA1EB0C01FFF70EBC5FEAC17C24BF61
:1010A00000F8012B00F8012B48BF00F8012B704716
:1010B0000EB5CDE9000100F0A7FB029069460120C2
:1010C000ABBE0EBD08B5694600900220ABBE08BDA0
:1010D0001FB58DE8070069460520ABBE04B010BD02
:1010E0001FB58DE80F0069460620ABBEF6E708B5D0
:1010F000694600900920ABBE08BD1CB5CDE90001D2
:1011000069460A20ABBE1CBD704708B56946009011
:101110000C20ABBE08BD00000048704794050020BD
:1011200000487047B405002000487047940500202F
:1011300000210160C0E9011070471020704703468C
:1011400040688C46002818BF88423CBF0346406870
:10115000F8D318681844884207D00CF1030020F037
:101160000700001D411A521A0146081D0A60FFF7C8
:10117000CDB830B5B0F10A024FEA900E71F100031C
:101180004EEA817EB0EB0E0061EB91014FEA101E3A
:101190004EEA017E10EB0E0041EB11114FEA102ECA
:1011A0004EEA016E10EB0E0041EB11214FEA104E9A
:1011B0004EEA014E10EB0E0041EB1141401841F197
:1011C00000014FEAD00040EA41704FEAD10110EB34
:1011D00080054FEA810444EA907444EB01046D19E0
:1011E00044EB0404521BA3414FF0000348BF0A32F2
:1011F00000D530BD401C41F1000130BD01694A1CE1
:1012000002610878704700B58FB0CDE90131002147
:10121000059105497944CDE9031011466846FFF769
:101220003DFA0FB000BD0000E5FFFFFF2DE9F041E2
:101230001F46044603260168072A01F4006004DB08
:1012400008B116A505E016A503E008B115A500E054
:1012500015A521F010002060A069C01EA0610FB18B
:10126000401EA0612046FFF761F94FB1D4E901218A
:1012700038469047206A401C2062C01C206206E06D
:10128000206AFAE7D4E9012115F8010B9047761E90
:10129000F8D22046FFF760F9BDE8F0814E414E00DC
:1012A0006E616E00494E4600696E66002DE9F0479A
:1012B000814616468AB0354878440DC88DE80D0041
:1012C00032487844801C03AC0DC884E80D0041F618
:1012D0009B300844372190FBF1F290FBF1F5A5F12A
:1012E000800501FB12041B3C02D56442012000E092
:1012F0000020DFF898A080460027FA44AAF1BE0A31
:101300000EE0E0070AD03246684607EB47010123AA
:101310000AEB810100F0B0FD8DE8070064107F1C2E
:10132000002CEED1194F7F44AE3F19E0E80715D0ED
:1013300007EB04100DF1180A90E80E008AE80E0081
:10134000C068F04201D1981908903246012306A9DD
:1013500003A800F091FD03AB83E807006D10641C47
:10136000002DE3D14FF0010332466946B8F1000F7A
:1013700003A802D000F06BFD01E000F07DFDC9E99B
:101380000001C9F808200AB0BDE8F08744EE00006B
:10139000007B00F08000704770B5C468A50713D0CB
:1013A000650211D4B2F5807F09D0B2F5007F06D076
:1013B000B2F5806F08D1012300F1240106E05D1E23
:1013C0006FF07F46B54201D3012070BD0161C3615A
:1013D000416024F470611143C160002070BD0000C1
:1013E0002DE9F0410C4607461646104600F06EF80F
:1013F0002078611C61280AD0722802D077283CD15D
:1014000002E00125002405E00225042402E008246E
:1014100048F2020511F8010B2B2806D0622809D0EA
:1014200011F8010C74280AD00BE045F0030544F0D4
:101430000204EFE745F0040544F00104EAE744F054
:10144000100438462146FFF733FE411C15D0002119
:10145000316171604FF40071F560F16170612007D6
:1014600004D530460222002100F08AF8306D40F0A9
:10147000010030653046BDE8F0810020FBE72DE932
:10148000F0410D460646104C206DC10704D04108BE
:1014900004D020F00104F7E722460EE05420FFF7C5
:1014A0007EFA07000ED0206D47F001010843542159
:1014B00020653846FFF7FDF93A4629463046BDE833
:1014C000F0418DE70020D6E7980400202DE9F04791
:1014D00004464FF000094FF0FF37C568D4E9048691
:1014E000A80707D0204600F0FBF83046FFF7EAFDDA
:1014F000002802DA3846BDE8F087280502D54046C4
:10150000FEF704FF4C212046FFF7D3F9206D20F0B1
:10151000010020654846EEE710B500F033F9BDE85C
:10152000104000F02AB910B500F046F9BDE81040AF
:1015300000F023B970477546FFF7EEFDAE46050093
:101540006946534620F00700854618B020B5FEF7DF
:10155000B7FEBDE820404FF000064FF000074FF007
:1015600000084FF0000B21F00701AC46ACE8C009C1
:10157000ACE8C009ACE8C009ACE8C0098D467047CA
:101580002DE9F041044616460D464769007B800769
:101590002ED03846FFF7ABFD50BB3EB3012E02D034
:1015A000022E25D104E0204600F094F905441DE008
:1015B0003846FFF7AAFDE168002841F01001E1601C
:1015C00005DA204600F058F80120BDE8F081C90393
:1015D0000BD56268E16A914200D81146A2691144B4
:1015E0002269891A814200DD08460544002D01DA8E
:1015F0000220EAE7E16A6068E268814206D291036C
:10160000E06203D522F4003141F01002A669002700
:10161000AE4213DCE16A814201D90B4600E0034689
:1016200003EB060C2369ACEB030CAC4506DD8142F1
:1016300001D98C4600E084469C4505D1A76027600F
:1016400042F02000A5620DE0AD1BE669AE1B8142B1
:10165000A66000D90846C01A281A20605819606090
:1016600022F0200003490840E060002084F8487020
:10167000ABE70000BFCFD7FFC16821F4001141F0F4
:101680008001C16000218160016070472DE9F04751
:10169000814614460E464FF0FF383248D5685769E8
:1016A000054209D03846A169FFF727FD002811DB64
:1016B0002C48C0430540E5602B4632464946384633
:1016C000FFF706FDA16920F00042B21A114400287C
:1016D000A16103D02046FFF7CFFF4046BDE8F08769
:1016E00070B504460569C06A6168884200D808463A
:1016F000E16821F42011E160C90312D5A84208D0A5
:101700002246411B2846FFF7C1FF10B14FF0FF30C2
:1017100070BD0020E562C4E90150E06820F480302B
:10172000E060002070BD10B50446C06820F02000C5
:10173000E060A16AA06988420DD02046FFF7D0FF83
:10174000E06820F4405040F01000E060A06AA06122
:101750002069E062606044F24001E0688843E06034
:1017600010BD00001000020010B50446AFF3008069
:101770002046BDE81040FEF78EBD002801D000F0E5
:10178000A3B8704710B5014602A000F0C4F80120CC
:1017900010BD000053494752545245443A20526507
:1017A0006469726563743A2063616E2774206F7098
:1017B000656E3A200000000010B5012805D0002118
:1017C00003A000F0A8F8012010BD09A1F8E700006F
:1017D00053494752544D454D3A204F7574206F661A
:1017E0002068656170206D656D6F72790000000082
:1017F0003A2048656170206D656D6F727920636F66
:10180000727275707465640010B5431C02E010F8C4
:10181000011B71B18107FAD14FF0013202C88C1A55
:101820008C4314EAC211F9D0C01A0A0603D0C01EB4
:1018300010BDC01A10BD0A0401D0801E10BD0902DF
:10184000FCD0401E10BD00004FF0013C50F8042BAE
:1018500051F8043B9A4221D1A2EB0C03934313EAC3
:10186000CC1317D150F8042B51F8043B9A4215D1F0
:10187000A2EB0C03934313EACC130BD150F8042BC7
:1018800051F8043B9A4209D1A2EB0C03934313EAAB
:10189000CC13DBD04FF00000704700BFD01A01BA64
:1018A000B1FA81F101F0180122FA01F0CB40C1F147
:1018B0002001DBB2C0B2C01A2CFA01F3D11A914355
:1018C00011EAC311E6D1704701491820ABBEFEE70B
:1018D0002600020010B50146C268900703D09006AA
:1018E00007D5886A0AE0FFF71FFC01210160881E06
:1018F00010BD8B69486818440B69C01A91F84830CC
:101900001BB191F84910401A10BD1103FCD50028F5
:10191000FADD401E10BD70B505460C460A2000E0F9
:101920006D1C00F011F835B128780028F8D102E0DC
:10193000641C00F009F814B120780028F8D1BDE843
:1019400070400A20AFF3008008B569468DF80000AA
:101950000320ABBE08BD5FEA400C08BF91F0000F4A
:101960004FEA8C234FEAC12243EA51514FEA1C50FF
:1019700018BF00F5F0404FEA300018BF41F00041B9
:101980005FEA6C5C00F02980BCF1FF3F08BF40F0CB
:1019900080407047130C06BF12044FF0100C4FF03C
:1019A000000C130E04BF12020CF1080C130F04BF3D
:1019B00012010CF1040C930F04BF92000CF1020C05
:1019C000D30F04BF52000CF1010C11464FF000027E
:1019D000A0F11F00A0EB0C00704711F0004F08BFF2
:1019E000704731F000413FF4D5AF0B0C06BF09043E
:1019F0004FF0100C4FF0000C0B0E04BF09020CF15D
:101A0000080C0B0F04BF09010CF1040C8B0F04BF71
:101A100089000CF1020CCB0F04BF49000CF1010C42
:101A2000CCF12003A0EB0C0022FA03F302FA0CF233
:101A300041EA030100F10100704720F07F4C80EA89
:101A4000030023F07F47ACEB070303F57C5300F062
:101A5000004003F1FF032DE980494FEA154B09B41B
:101A60004FEA144325EA0B4E24EA03480FF20426FA
:101A700006EB132749083E785FEA320203FB06674C
:101A8000C7F5000707FB06F64FEA54374FEAD6467C
:101A900006F1020607FB066CCCF1005C4FEA1C471E
:101AA0002CEA074C07FB06F40CFB06F504EB154685
:101AB0004FEA961634BF00204FF000404FEAD1376E
:101AC00006FB07FC4FEA1C4C0CFB0BF7D21B03FB7D
:101AD0000CF761EB07010CFB0EF7B0EB074072EB64
:101AE00017420CFB08F734BFA2EB0742B2EB0742E8
:101AF00061EB17414FEA0C444FEA910706FB07FCE4
:101B00004FEA1C4C0CFB0BF7B0EBC74072EB5732A3
:101B100003FB0CF734BFA2EBC742B2EBC74261EB49
:101B200057310CFB0EF7B0EBC70072EB57720CFB92
:101B300008F734BFA2EBC702B2EBC70261EB5771E3
:101B4000039F4FEA816141EA921104EBCC044FEA12
:101B5000D1374FEA826206FB07FC42EA90124FEA55
:101B600080604FEA1C4C0CFB0BF7D21B03FB0CF7FD
:101B700061EB07010CFB0EF7B0EB074072EB17426D
:101B80000CFB08F734BFA2EB0742B2EB074261EB54
:101B900017414FEA8C554FEA910704EB9C2406FB52
:101BA00007FC4FEA1C4C0CFB0BF7B0EBC74072EB89
:101BB000573203FB0CF734BFA2EBC742B2EBC7426C
:101BC00061EB57310CFB0EF7B0EBC70072EB5772AD
:101BD0000CFB08F734BFA2EBC702B2EBC70261EB04
:101BE000577115EB4C254FEA816141EA92114FEA9A
:101BF00082624FEAD13742EA901206FB07FC44F1B9
:101C000000044FEA80604FEA1C4C0CFB0BF7D21B20
:101C100003FB0CF761EB07010CFB0EF7B0EB074081
:101C200072EB17420CFB08F734BFA2EB0742B2EB92
:101C3000074261EB174115EB1C154FEA813141EA70
:101C400092414FEA823242EA90424FEA80304FEAB4
:101C50000C7644F1000448EA03434EEA0B484FF087
:101C6000000EB2EB080C71EB030724BF6246394645
:101C70004EEB0E0E4FF0000B0018524149414BEB5A
:101C80000B0BB2EB080C71EB03077BF1000B24BFCD
:101C9000624639464EEB0E0E4FF0000B00185241D3
:101CA00049414BEB0B0BB2EB080C71EB03077BF1DB
:101CB000000B24BF624639464EEB0E0E51EA020776
:101CC00018BF46F0010616EB0E7655F1000254F1EE
:101CD000000103D5BDE88901BDE80088BDE88901A0
:101CE000BDE80048B619524141EB0101A3F10103DF
:101CF000704780807F7E7D7C7B7A79787776767579
:101D00007473727171706F6E6E6D6C6C6B6A6A69F0
:101D10006868676666656464636362616160605F8A
:101D20005F5E5E5D5D5C5C5B5B5A5A595958585703
:101D3000575656555555545453535252525151506B
:101D400050504F4F4F4E4E4D4D4D4C4C4C4B4B4BBE
:101D50004A4A4A4949494848484747474746464604
:101D6000454545444444444343434342424242413F
:101D70004141002B9C4630D477002BD01CB54FEA54
:101D8000370703B44FF010004FF01001BAF1000F05
:101D900006D0BCF1000FDCBF40F0080040F00801A5
:101DA0004FF000000FBCBDE810400BF1010BBBF180
:101DB000010F08BF5FEA170722BF12F1010211F1FC
:101DC00001014FF0004143F1000300F0004043EAFD
:101DD00000007047F9D35708D0E746EA064613F1EA
:101DE000400F4FEA16461FDD13F1200FDFBF1643E9
:101DF0000A46002120335B42BED0C3F1200746EAE9
:101E0000064602FA07F74FEA164646EA0706C3F106
:101E1000200722FA03F201FA07F721FA03F14FF043
:101E2000000342EA0702A7E746EA020646EA064638
:101E30004FEA164646EA0106BCBF46EA0646360C9D
:101E40004FF000034FF000024FF0000194E72DE93E
:101E5000804C9A46934670B491E8380007C831EA3E
:101E6000400C48BF34EA430C03D5FFF7E6FDFFF70B
:101E700080FFF0BCBDE8008C2DE9804C9A4693466B
:101E800070B491E8380007C810F0804F08BF13F015
:101E9000804F03D100F005F8FFF76BFFF0BCBDE801
:101EA000008C20F07F4780EA030023F07F4C07EB93
:101EB0000C03A3F57C5300F00040A3F1FE0392F065
:101EC000000F00F0B38095F0000F00F077802DE94F
:101ED00001494FEA11404FEA144621EA004800FB4D
:101EE00006FC24EA064708FB06F607FB08F800FB99
:101EF00007F718EB06484CEB164C4FEA124B18EB61
:101F000007484FEA15464CEB174022EA0B4E0BFBF5
:101F100006FC25EA06470EFB06F607FB0EFE0BFB4A
:101F200007F71EEB064E4CEB164C4FF000061EEB6F
:101F3000074E4CEB174B18EB0B0840F1000018EB69
:101F40000E0B58EB000840F100008F1A4FF0000113
:101F50003CBFC943661B14BFB5EB040C00213CBF5A
:101F6000C943F61B4FEA17444EEA8E0E27EA044592
:101F70004FEA1C4704FB07622CEA074C05FB07F7F6
:101F80000CFB05F604FB0CFC16EB074642EB174274
:101F900016EB0C4642EB1C421BEB060658EB02020A
:101FA000414146EA9E0601D5BDE80189B619524174
:101FB00041EB0101A3F10103BDE801894FEA14459A
:101FC0004FEA114724EA054621EA074C05FB07F4CE
:101FD00006FB07F70CFB06F105FB0CFC11EB0741B8
:101FE00044EB17444FEA124711EB0C4144EB1C44FD
:101FF00022EA074C05FB07F206FB07F70CFB06F687
:1020000005FB0CFC16EB074642EB174216EB0C46A1
:1020100042EB1C456A1854F1000148BF7047B619DD
:10202000524141EB0101A3F10103704795F0000F0C
:1020300037D04FEA11424FEA144721EA024624EA18
:10204000074C02FB07F106FB07F70CFB06F402FB4B
:102050000CFC14EB074441EB17414FEA154714EB16
:102060000C4441EB1C4125EA074C02FB07F506FB3B
:1020700007F70CFB06F602FB0CFC16EB074645EBDC
:10208000174516EB0C4645EB1C42121951F10001A5
:1020900048BF7047B619524141EB0101A3F101035A
:1020A00070474FEA14454FEA114724EA054621EAF2
:1020B000074C05FB07F106FB07F70CFB06F24FF098
:1020C000000605FB0CFC12EB074241EB174112EB3B
:1020D0000C4251EB1C4148BF7047921841EB010183
:1020E000A3F101037047FEE7014800F001B90000C9
:1020F00090020020014800F0FBB80000D803002047
:10210000014800F0F5B800003804002001681823E9
:10211000CAB2103AB2FBF3F2054B6FF30901032A7E
:102120009B5CC36500D9091D8165084670470000A6
:102130002ADE000810B5014600208B698A6A4FF03C
:10214000C07453B1B3F5005F15D072B1012A0CD041
:10215000022A0AD0032A09D104E01AB1012A06D0C2
:10216000022A03D1C96AC90100D5012010BDC96A7C
:10217000A142FAD010BD002AF7D0012AF2D0022ADB
:10218000F3D0032AF3D010BD704772B6FEE770B5E6
:10219000040004D094F82500002510B109E00120C6
:1021A00070BD84F82450204600F032F8204600F03C
:1021B0002FF8022084F825002068016840F6F872A4
:1021C00091430160616960680843D4E903121143D7
:1021D0000843A1680843A1690843216A08432168AC
:1021E0000A68104308606068102805D1E17FE06943
:1021F00061F31F60216888612068C16841F01E0199
:10220000C160E563012084F82500002070BD000056
:10221000F0B587B0044614216846FEF74AFB2E4904
:102220002068884255D12D480024016841F0010101
:102230000160006800F0010005902848001F016857
:1022400041F010010160016801F010010591016881
:1022500041F001010160016801F00101059101688F
:1022600041F004010160016801F004010591016879
:1022700041F0020101600068022500F002000590B3
:1022800070200090CDE901540D26CDE90346694642
:10229000134800F067F940270097CDE90154CDE9D4
:1022A000034669460F4800F05DF94FF470700090E6
:1022B000CDE90154CDE9034669460B4800F052F9D7
:1022C0000097CDE90154CDE903466946074800F07F
:1022D00049F907B0F0BD0000000005503438024055
:1022E00000100240000002400008024000040240CA
:1022F0002DE9F84304464FF00009CDF800906348FB
:102300004FF41651A56D0068B0FBF1F72E6894F8F4
:102310005C10082000FA01F131420FD021680A68F0
:1023200052070BD50A6822F004020A6094F85C1088
:102330008840A860606D40F00100606594F85C1012
:102340004FF0010808FA01F0304208D021684969CD
:10235000090604D5A860606D40F00200606594F83D
:102360005C1004208840304208D021680968890741
:1023700004D5A860606D40F00400606594F85C10BE
:1023800010208840304218D021680968090714D508
:10239000A86020680168490304D50068000308D5D7
:1023A000A16C07E00168C90503D4016821F00801A8
:1023B0000160216C09B12046884794F85C10202008
:1023C0008840304231D021680968C9062DD5A860FF
:1023D00094F8350005282068016806D0490347D5E0
:1023E000006800031DD4616C1CE021F0160101603F
:1023F0002068416921F080014161206C08B9A06C1E
:1024000020B12068016821F00801016094F85C1097
:102410003F208840A86084F8358084F83490216D8E
:102420001FE0E16B09B120468847606D00282BD082
:10243000606DC00714D0052084F83500206801685D
:1024400021F0010101600098401C0090B84203D8BF
:1024500020680068C007F6D184F8358084F834908D
:10246000E16C002910D001B02046BDE8F0430847D8
:102470000168C905D5D4016821F01001016084F814
:10248000358084F83490CCE7BDE8F8835C01002007
:102490002DE9F041044600F063F906465CB10220E4
:1024A00084F83500002584F834502068016821F054
:1024B000010101600DE00120BDE8F08100F050F95C
:1024C000801B052805D920206065032084F835008D
:1024D000F2E720680068C007F0D122681168204840
:1024E0000140D4E901031843D4E9033633431843C8
:1024F00063691843A3691843E3691843236A1843BF
:102500000843616A042903D1D4E90B131943084332
:10251000106020684069666A20F0070130460E436B
:10252000012704280CD1A06A0643E06A40B1204686
:10253000FFF700FE20B14020606584F83570BAE7EF
:10254000206846612046FFF7E1FD94F85C203F21BA
:1025500091408160656584F835700020ACE700002B
:102560003F8010F02DE9F84FDFF8BCA100220125D3
:1025700003264FF00F090AF1040BAAF1040E00BF65
:102580000B6805FA02F42340A34270D10F7907F0DB
:102590000307012F01D0022F16D187684FEA4208A6
:1025A00006FA08FC27EA0C07D1F80CC00CFA08FC64
:1025B0004CEA070CC0F808C04768A7430C79C4F37D
:1025C000001494403C4344600C79E443A4070AD0CF
:1025D000C4684FEA420C06FA0CF7BC438F6807FA4E
:1025E0000CF72743C7600C7904F00304022C12D1C6
:1025F000D40800EB840CDCF820405707FF0E09FAE2
:1026000007F824EA0804D1F8108008FA07F848EA25
:102610000408CCF8208004684FEA420C06FA0CF754
:10262000BC430F7907F0030707FA0CF7274307604D
:102630004C6814F4403F70D03C4C276847F4804706
:102640002760246822F0030704F480440094384C87
:1026500007EB040CDCF8084897074FEA177809FAEB
:1026600008F7BC43334FB84202D1002724E054E0BE
:10267000314FB84201D101271EE0304FB84201D19D
:10268000022719E02E4FB84201D1032714E02D4F45
:10269000B84201D104270FE02B4FB84201D10527E2
:1026A0000AE02A4FB84201D1062705E0284FB84278
:1026B00001D1072700E0082707FA08F72743CCF8DD
:1026C0000878DAF800405746D1F804C09C435FEA26
:1026D000CC2C00D51C433C60DBF800405F46D1F8B1
:1026E00004C09C435FEA8C2C00D51C433C60DEF8A0
:1026F00000407746D1F804C09C435FEA8C3C00D58B
:102700001C433C60084F083F3C68D1F804C09C4320
:102710005FEACC3C00D51C433C60521C102AFFF4FD
:102720002FAFBDE8F88F0000083C0140443802405C
:102730000030014000000240000402400008024056
:10274000000C024000100240001402400018024039
:10275000001C02400AB1816170470904FBE70000D8
:1027600001488068704700005001002070B50400E7
:1027700025D094F83D00002520B984F83C5020462F
:1027800000F0B8F8242084F83D002068016821F0AA
:10279000010101602068016841F400410160206886
:1027A000016821F40041016000F004FD4D4A6168B8
:1027B000914201D84C4900E04C49884201D20120A5
:1027C00070BD4B492368B0FBF1F15E6826F03F060F
:1027D0000E435E606368934206D94FF49673594383
:1027E0004FF47A73B1FBF3F12368491C1E6A26F09B
:1027F0003F06314319626168914210D84900401E7A
:10280000B0FBF1F2521CC2F30B02042A01D20420E5
:1028100022E0B0FBF1F0401CC0F30B001CE0A2680A
:10282000F2B301EBC10303EB0116431EB3FBF6F356
:102830005B1C43F480431B0549D092B301EBC102FA
:1028400002EB0111401EB0FBF1F0401CC0F30B0085
:1028500040F4804040F400402168CA694CF6FF73A0
:102860009A431043C861D4E9071001432068026805
:1028700022F0C00211430160D4E903010143206842
:10288000826848F2FF339A4311438160D4E905011D
:1028900008432168CA6822F0FF021043C86001E0C3
:1028A0000EE016E02068016841F001010160256436
:1028B000202084F83D00256384F83E50002070BD40
:1028C00001EB4106431EB3FBF6F35B1CB3E70120AB
:1028D000C2E701EB4101401EB0FBF1F0401CC0F328
:1028E0000B00B7E7A086010080841E0000093D00B0
:1028F00040420F0010B586B0044614216846FDF72B
:10290000D8FF14492068884221D113480021026869
:1029100042F002020260006800F0020005904FF4ED
:10292000407000901220CDE90101032003900420A3
:10293000049069460948FFF715FE07481030016802
:1029400041F400110160006800F40010059006B029
:1029500010BD000000540040303802400004024026
:102960002DE9FF4104460068816800917749784E5F
:102970004FF04027884201D1324600E03A46926843
:10298000019240688846029001D1304600E0384606
:102990004068039060684FF00105B0F5007F1CD0DF
:1029A000D8B1900705D50398000602D5204601F05E
:1029B00005F80098C0070FD0029840067FD521681F
:1029C0002046CA68E16A8B1CE3620A80618E491E58
:1029D0006186618E002967D071E00098800719D563
:1029E0000298000616D5616A20468A1C6262226837
:1029F0000988D160618D491E6185618D51B9016879
:102A00004A6822F0A0024A60418E19B980F841500C
:102A100000F0A0F80198C00705D00398400602D541
:102A2000204600F09BFF0198400622D503988006BF
:102A30001FD52168414501D1304600E03846406845
:102A400020F0600101D1304600E038464160206846
:102A5000416821F0A00141602068C1688068019050
:102A600084F84150606C40F002006064204600F041
:102A700072F80098000767D50298800664D5206830
:102A8000416821F0A00141602168414501D13046F3
:102A900000E03846406820F0600000D03E4670609C
:102AA00020688068009043E001684A6822F0600274
:102AB0004A60418D19B980F8415000F04BF80098F8
:102AC00040061ED5029880061BD52068416821F07B
:102AD000600141602168414501D1304600E038463F
:102AE000406820F0A00101D1304600E03846416046
:102AF00084F84150606C40F002006064204600F0B1
:102B00002AF8019800071FD5039880061CD5216874
:102B1000414501D1304600E03846406820F0A00031
:102B200000D03E4670602068416821F0600141603D
:102B300084F84150606C40F00400606404B02046AA
:102B4000BDE8F04100F007B8BDE8FF810038004063
:102B500000340040704770472DE9F047040005D06D
:102B600094F841004FF0000818B109E00120BDE8D9
:102B7000F08784F8408051486063204600F0A6F852
:102B8000022684F841602068C16940F6BF77B943E6
:102B9000C1612068066260694FF4007902282FD075
:102BA000E06870B12025A068202800D86D000120C1
:102BB00000F098F9216949451FD1E16819B1A900D0
:102BC00002E01025EFE7E900B0FBF1F000EB800038
:102BD00061694000B0FBF1F0401D0A21B0FBF1F04B
:102BE00000F00101401A40080902821EFE2A09D3A2
:102BF000606C40F010006064B8E7B0FBF5F0E5E70A
:102C00000220002122690843024320680262D4E9BD
:102C100001010843A269E168114308432168CA69B8
:102C2000BA43104340F40060C861206A01283AD1D9
:102C30002348606323482168234A4FF040238142A0
:102C400001D1114600E01946C96921EA070101D105
:102C5000154600E01D46E9612168814201D1114617
:102C600000E019460E622568854201D1114600E058
:102C70001946C9698EB2616849451BD0D1B100219E
:102C80002789B4F80CC047EA0C07B4F818C04CEA1E
:102C9000010C47EA0C07B9B2314341F400618542A7
:102CA00000D01A46D161C4F84480012084F8410064
:102CB00000205CE74FF48071E2E700001D3A000855
:102CC000612900080038004000340040F0B58BB0A6
:102CD000064614216846FDF7ECFD0025059506958E
:102CE000079508952B493068884251D101200590FD
:102CF00032200224CDE9060405A800F023F908B12A
:102D0000FFF743FA2448016841F4804101600068FC
:102D1000214900F4804010390990086840F004000F
:102D20000860086800F004000990086840F002009C
:102D300008600868052700F00200099008208DE867
:102D40003100CDE9035769461448FFF70BFCB80280
:102D50008DE83100CDE9035769461148FFF702FCC1
:102D6000114C1048C4E900050015A560C4E90350E2
:102D7000400060618000A0614011C4E90705204661
:102D80006562FFF785FB08B1FFF7FFF9F463A663FF
:102D90000BB0F0BD0038004040380240000802404F
:102DA00000040240586002409002002070477047C3
:102DB0000248816802781144816070475001002008
:102DC0000B4810B5016841F400710160016841F4DD
:102DD00080610160016841F480710160032000F0AE
:102DE0006FF80F2000F006F800F024F8002010BD66
:102DF000003C024070B50D4D04464FF47A712878BE
:102E0000B1FBF0F00A490968B1FBF0F000F080FC7A
:102E100048B9102C07D200222146501E00F030F88D
:102E200000206C6070BD012070BD000050010020CA
:102E30005C0100200A4808B5016841F48041016046
:102E4000006800F4804000900548001F016841F0D0
:102E500080510160006800F08050009008BD0000C3
:102E600044380240002809DB00F01F020121914094
:102E70004009800000F1E020C0F800117047000018
:102E8000F0B40E4B1B680C46C3F30223C3F10705D5
:102E9000042D00D90425191D072901D2002300E0C3
:102EA000DB1E012606FA05F1491E214099409E408D
:102EB000761E16403143F0BC01F0B6B80CED00E0D0
:102EC000064900F0070208684FF6FF03184040EA81
:102ED0000220034A10430860704700000CED00E038
:102EE0000000FA0501460020012908D111490968AE
:102EF00011F4000104D0B1F5000F00D10E48704765
:102F00000C48001F01680068490200F03F0001D52D
:102F10000A4900E00A49074AB1FBF0F07C32116827
:102F2000C1F3881141431068C0F30270B1FBF0F0A7
:102F300070470000083802400080BB0040787D01E7
:102F40000024F4002DE9F843054600684FF001091C
:102F5000C1074FF0000601D1400727D5DFF80C81EB
:102F6000C8F86860FFF7FCFB0746414C05E000BF6E
:102F7000FFF7F6FBC01B022857D820680001F7D4E2
:102F800068688101287A41EA007039498431086013
:102F9000C8F86890FFF7E4FB074604E0FFF7E0FBA2
:102FA000C01B022841D820680001F7D52878800787
:102FB00052D52F484030016841F0805101600068CF
:102FC0002C4C00F080500090206840F4807020600D
:102FD000FFF7C6FB074604E0FFF7C2FBC01B022851
:102FE00023D82068C005F7D5214C7034206810F430
:102FF000407020D0A98901F4407181421BD0206823
:103000001D4920F44070C1F800900E6020602068D7
:10301000C00710D0FFF7A4FB064641F2883707E04F
:10302000FFF79EFB801BB84202D90320BDE8F8835E
:1030300020688007F4D5E9680D48C1F30122083003
:10304000032A0BD0016821F4F81101602068A989D6
:10305000C1F30B01084320600020E7E70268074B3B
:1030600022F4F81219400A430260EFE700004742D9
:103070000038024000700040400E4742FFFCFF0F46
:103080002DE9F0470E46050065D0DFF81481D8F829
:103090000000F7B200F00700B04207D288F80070D5
:1030A000D8F8000000F00700B04254D128683D4C29
:1030B000810712D5400703D5206840F4E050206016
:1030C0002878000703D5206840F46040206020681D
:1030D000A96820F0F000084320602878C0072DD0B0
:1030E000304968680839012812D0022813D0032813
:1030F00011D00968890700292DDA216821F0030120
:1031000001432160FFF72CFB814641F2883A0EE033
:1031100009688903EFE709688901ECE7FFF720FBFD
:10312000A0EB0901514502D90320BDE8F0872068D2
:10313000696800F00C00B0EB810FEFD1D8F80010F7
:10314000404601F00701B14207D90770006800F05E
:103150000700B04201D00120E7E72878400705D5F5
:103160002068E96820F4E0500843206028780007D0
:1031700006D52068296920F4604040EAC10020603B
:1031800000F038F82168084AC1F30311515CC840C7
:103190000649086006480068FFF72CFE0020C4E7D7
:1031A000003C02400838024032DE00085C0100208A
:1031B000540100200448054900680968044AC1F325
:1031C0008221515CC84070475C01002008380240F1
:1031D00042DE00080448054900680968044AC1F352
:1031E0004231515CC84070475C0100200838024001
:1031F00042DE0008154810B5006810F00C021448B3
:1032000013D01449042A0FD0082A0ED10F4C241FC2
:103210002268236802F03F025B0207D52068C0F3F2
:103220008810A0FB010106E0084610BD2168C1F32B
:103230008811A1FB00010023FDF7EBF82168C1F321
:103240000141491C4900B0FBF1F010BD08380240B3
:103250000024F40040787D012DE9F84F04006ED081
:103260002078DFF84C93C007A9F104054AD009F192
:1032700004000168C1F38101012908D00068C0F38E
:10328000810002280AD1D9F80000400206D528683A
:10329000800337D560680028E1D033E06068B0F57E
:1032A000803F10D0B0F5A02F286810D020F48030D7
:1032B0002860286820F4802028606068A8B1FFF7A3
:1032C0004FFA06460DE0286840F48030F4E740F4F9
:1032D00080202860F7E700BFFFF742FA801B6428D0
:1032E00073D828688003F7D50CE0FFF739FA064653
:1032F00005E000BFFFF734FA801B6428F0D8286887
:103300008003F7D42078DFF8AC8280074FF0000A02
:103310003ED5A748001D016811F00C0F08D00068C9
:10332000C0F3810002280BD1D9F80000400207D475
:103330002868800716D5E068012800D112E033E143
:10334000E068B8B10120C8F80000FFF709FA0646A6
:1033500005E000BFFFF704FA801B0228C0D82868E8
:103360008007F7D52868216920F0F80040EAC100FD
:1033700028600DE0C8F800A0FFF7F2F9064604E067
:10338000FFF7EEF9801B02281FD828688007F7D4C2
:103390002078000722D5864F87486169703771B160
:1033A00001210160FFF7DCF9064604E0FFF7D8F9D8
:1033B000801B022809D838688007F7D50EE0C0F8CE
:1033C00000A0FFF7CDF9064605E082E0FFF7C8F957
:1033D000801B02287DD838688007F7D42078400702
:1033E00068D5DFF8CCB100270BF13C0BDBF800000F
:1033F000C0000BD4DBF8001041F08051CBF8001076
:10340000DBF80000012700F0805000906B4E306820
:10341000C00510D4306840F480703060FFF7A0F928
:10342000009005E0FFF79CF90099401A022850D857
:103430003068C005F6D55E4EA0686C3601280FD006
:103440000528306810D020F001003060306820F08E
:1034500004003060A068B8B1FFF782F900900FE077
:10346000306840F00100F4E740F004003060F7E716
:10347000FFF776F90099411A41F28830814266D807
:1034800030688007F4D50EE0FFF76AF9009007E096
:10349000FFF766F90099411A41F28830814256D807
:1034A00030688007F4D42FB1DBF8001021F0805190
:1034B000CBF80010A069C8B33D49091D0968C1F3E4
:1034C000810102294AD00228504607D0C8F860007E
:1034D00000E03CE0FFF744F904463BE04746C8F80B
:1034E0006000FFF73DF9064605E000BFFFF738F939
:1034F000801B02282BD828688001F7D4D4E9070163
:103500000843A16A2E4A490802EB0141626A41EA76
:103510008211084394F82C1040EA0161C9F80010A8
:1035200001203866FFF71CF9044606E03EE000BFC4
:10353000FFF716F9001B022809D828688001F7D583
:1035400034E000BFFFF70CF9001B022802D903206A
:10355000BDE8F88F28688001F4D427E00128F7D06F
:10356000D9F80000E26900F4800191421CD1226A7E
:1035700000F03F01914217D147F6C071626A0140E5
:10358000B1EB821F10D1A26A4FF0FF3300F440313B
:1035900003EB5202B1EB024F06D194F82C1000F06D
:1035A0007060B0EB016F01D00120D1E70020CFE7C0
:1035B0000438024000004742800E4742007000403D
:1035C0000000FFFF70B5040009D0606A002540B11B
:1035D00025616561A56294F8510040B10CE00120BD
:1035E00070BD6068B0F5827FF4D0E561F2E784F8E1
:1035F0005050204600F044F8022084F85100206822
:10360000016821F040010160A088218900F48270E6
:1036100001F404410843A18901F400610843217CBD
:1036200001F002010843217D01F001010843218BD3
:1036300001F400710843217F01F03801084394F838
:10364000201001F080010843218D01F4005108434E
:1036500021680860A069042101EA104094F8241050
:1036600001F010010843216848602068C16921F415
:103670000061C1616565012084F85100002070BDC2
:10368000F0B587B0044614216846FDF712F91C49CD
:103690002068884232D11B480024016841F48051DF
:1036A0000160006800F480500590164814380168E5
:1036B00041F001010160016801F00101059101681B
:1036C00041F0020101600068022500F0020005904F
:1036D0002020CDE9000502AA0326052782E8D000B4
:1036E00069460948FEF73EFF3020CDE9000502AAF1
:1036F000694682E8D0000548FEF734FF07B0F0BD08
:103700000030014044380240000002400004024002
:1037100010B5401EB0F1807F01D3012010BD4FF0E5
:10372000E02460610F21601700F07EFC0020A061A2
:1037300007202061002010BD70B5040004D094F86B
:103740004100002510B106E0012070BD84F8405012
:10375000204600F023F8242084F841002068C16846
:1037600021F40051C160204600F086FB2068016909
:1037700021F4904101612068416921F02A014161F1
:103780002068C16841F40051C1606564202084F85C
:10379000410084F842006563002070BD2DE9F041CE
:1037A00086B0064614216846FDF783F8DFF8F0C0BE
:1037B00031683C480222032307273B4D0024614522
:1037C0004FD138491431D1F800C04CF0100CC1F879
:1037D00000C0096801F010010591016841F0010184
:1037E00001600068694600F00100059058028DE80C
:1037F0001500CDE903372846FEF7B4FE2C4D2B48C3
:103800004FF000672860C5E901744FF48068C5E98E
:1038100003486C61AC61EC612C6228466C62FEF777
:1038200037FE08B1FEF7B1FCF563AE63204D1F48CB
:1038300060357830E5E802074020A5E811011C4812
:1038400045F814496030AC61EC612C626C62FEF7A3
:103850001FFE08B1FEF799FCB563AE6306B0BDE884
:10386000F081144EB142F9D10E4910310E6846F480
:1038700000360E60096801F400310591016841F0DD
:10388000010101600068694600F0010005900C200C
:103890008DE81500CDE903372846FEF763FEDDE726
:1038A00000100140303802400000024040640240F5
:1038B000D8030020004400402DE9F843044690F866
:1038C0004100984616460D46202802D00220BDE849
:1038D000F88385B17EB100206064212084F8410026
:1038E000FEF73EFFA6848146E684A0682027B0F557
:1038F000805F02D003E00120E9E7206910B12E4685
:1039000000250EE000260CE08021204600F03AFB66
:10391000A8B9C6B116F8010B21684860E08C401EBA
:10392000E084E08C4B464FF00002CDF80080002888
:10393000EAD14FF04001204600F024FB40B184F86A
:1039400041700320C3E735F8020BC0F30800E3E73A
:1039500084F841700020BAE7FEE7000070B5154911
:103960000268154B4FF040248A4201D11A4600E00C
:103970002246D568C26A961CC6621580428E521EC7
:103980004286428E002A14D102688A4201D1194629
:1039900000E02146496821F0600100D023465960CB
:1039A000418D002905D14FF0010180F84110FFF74A
:1039B000D1F870BD003800400034004070B5416A55
:1039C000144B8A1C426205680988134A4FF0402450
:1039D0009D4201D1154600E02546E960418D491E12
:1039E0004185418D002914D10168994201D11146C8
:1039F00000E02146496821F0A00100D02246516034
:103A0000418E002905D14FF0010180F84110FFF7E8
:103A1000A1F870BD00380040003400407CB501685A
:103A200004468868009094F841000125042834D1A8
:103A30000098C00718D04868C043400614D4C9682D
:103A40002046E26A1180E16A891CE162618E491EAA
:103A50006186618E41B901684A6822F060024A605D
:103A600080F84150FFF7A2F90098400615D520686C
:103A70004168C943890610D4416821F06001416062
:103A80002068C1688068019084F84150606C40F003
:103A9000020060642046FFF75EF894F841000328B6
:103AA00034D10098800719D521684868C0430006C2
:103AB00014D4626A20461288CA60616A891C6162F5
:103AC000618D491E6185618D41B901684A6822F0A6
:103AD000A0024A6080F84150FFF769F9009800079A
:103AE00014D520684168C94389060FD4416821F084
:103AF000A001416020688068009084F84150606CAB
:103B000040F0040060642046FFF725F87CBD00000B
:103B10000C4810B50A490160102141600021816004
:103B200041618161C1770177417781770162FEF759
:103B30002EFB002803D0BDE81040FEF726BB10BDC9
:103B400000000550B4010020154808B5016841F493
:103B500000110160016801F400110091016841F455
:103B6000800101600068002200F48000009011468E
:103B70000E20FFF785F90E20FFF774F90022114699
:103B80003A20FFF77DF93A20FFF76CF90022114641
:103B90004620FFF775F9BDE808404620FFF762B9F7
:103BA0003038024070B586B014216846FCF781FEBB
:103BB00021480024016841F010010160016801F012
:103BC00010010591016841F080010160016801F078
:103BD00080010591016841F004010160016801F074
:103BE00004010591016841F001010160016801F0E3
:103BF00001010591016841F00201016000680F4E6A
:103C000000F002000590002210213046FEF7A2FDD0
:103C10000125CDE90054694609480294FEF7A2FC4B
:103C200010200090CDE90154694630460394FEF718
:103C300099FC06B070BD0000303802400008024018
:103C4000000002400D4810B50B4901600C4941606D
:103C500000214FF480428160C0E90312416181611B
:103C6000C1610162FEF782FD002803D0BDE810406B
:103C7000FEF78BBA10BD000000540040F401002094
:103C8000A08601000E4810B50C4901604FF4407148
:103C9000416000210122C0E902124FF4FA52C0E94A
:103CA00004128161C1610162FEF756FF002803D052
:103CB000BDE81040FEF769BA10BD000000380040B2
:103CC000480200200F4810B50D4901604FF4827181
:103CD000416000218160C1604FF400720161C0E960
:103CE0000512C1610162416281620A21C162FFF76E
:103CF00069FC002803D0BDE81040FEF746BA10BDAD
:103D000000300140F00200200C4810B50A49016063
:103D10004FF4E1314160002181600C22C160C0E9B3
:103D200004128161C161FFF707FD002803D0BDE8DF
:103D30001040FEF72ABA10BD0010014048030020D1
:103D40000C4810B50A4901604FF4E131416000218F
:103D500081600C22C160C0E904128161C161FFF77A
:103D6000EBFC002803D0BDE81040FEF70EBA10BDF2
:103D70000044004090030020FEE7FEE770477047D4
:103D8000FFF716B830B593B030216846FCF791FDC7
:103D900014210CA8FCF78DFD1D480025016841F099
:103DA00080510160006800F080501190194801684E
:103DB00041F4804101600068022400F480401190C9
:103DC0000120039010200490009406940820CDE96F
:103DD0000750A820CDE9090404200B906846FFF79E
:103DE0003BFA08B172B6FEE70CA90F2081E831005A
:103DF0004FF4A0500F904FF48050109005210CA864
:103E0000FFF73EF9002801D072B6FEE713B030BDCF
:103E100040380240007000400248016841F47001DF
:103E20000160704788ED00E001680C3151E8002F17
:103E300022F4907241E80023002BF5D1016814317F
:103E400051E8002F22F0010241E80023002BF5D1B8
:103E5000016B012909D101680C3151E8002F22F0D2
:103E6000100241E80023002BF5D1202180F84210F8
:103E7000002101637047000070B5044600680169C5
:103E8000E26821F44051114301612169A068E269AF
:103E900008436169114308432168CA6849F20C6309
:103EA0009A430243CA6020684169A26921F44071C3
:103EB0001143416131492068884202D0304988422B
:103EC00002D1FFF787F901E0FFF774F9E2690023F7
:103ED000192164253226B2F5004F626828D0A0FB74
:103EE0000101930F9200FCF794FA0146B0FBF5F044
:103EF0006FF01802504301EB800006EB0010B0FB9E
:103F0000F5F000F0F002B1FBF5F002EB0012B1FBAE
:103F1000F5F06FF01803584301EB800006EB00103A
:103F2000B0FBF5F000F00F0021681044886070BD10
:103F3000A0FB010192185B41FCF76BFA0146B0FB54
:103F4000F5F00201B1FBF5F06FF01803584301EBF7
:103F5000800006EBC000B0FBF5F000F0F80002EBCB
:103F60004002B1FBF5F0584301EB800006EBC000C6
:103F7000B0FBF5F000F00700D6E7000000100140AC
:103F8000001401402DE9F843984617460D460446B3
:103F9000089E24E0701C22D0FEF7E2FBA0EB080094
:103FA000B0421AD8CEB12068C168490717D5802D14
:103FB00015D0402D13D00168C94309070FD40168FB
:103FC0000025406800902046FFF72EFF082060641F
:103FD00084F840500120BDE8F8830320FBE7206807
:103FE000006835EA000004D00020B842D2D000209A
:103FF000F1E70120F9E7FEE703B4019841000098DA
:1040000050EAC12018BF04204A0D18BF40F001003B
:1040100040F2FF72B2EB515F08BF40F0020001288E
:1040200008BF052002B070470907090E002804DB0D
:1040300000F1E02080F80014704700F00F0000F15C
:10404000E02080F8141D704710B5B94A2DED020B21
:104050002DED0C8B82B00F9921F000409FEDB6CB77
:1040600090422CDBA0F140530E9AA3F17F631A43D8
:104070000FD0B349884202DC16D10E98A0B19DED55
:104080000E0B02B0BDEC0C8B02B0BDE8104001F08D
:10409000ABBC0029C1BF9FEDAC0B02B0BDEC0C8BDB
:1040A00002B0C8BF10BD16E00120FCF7ACFC02B0A6
:1040B000BDEC0C8B02B0BDE8104001F0A9BCA44AD5
:1040C0009FEDA59B9FEDA6AB90425EDAA6499FEDC2
:1040D000A8CB814208DBB0EE4C0AF0EE6C0A02B0CD
:1040E000BDEC0C8B02B010BD9DED0E0B53EC102BF4
:1040F00051EC100B09F0AEFA41EC180B9E4806216A
:10410000B0EE480AF0EE680A784401F0D6FB53ECB2
:10411000182B51EC100B09F09DFA41EC1B0B974842
:10412000B0EE480AF0EE680A0421784401F0C5FBBD
:1041300053EC182B51EC100B09F08CFA53EC192BA3
:1041400008F0B6FF41EC100B51EC1B0B53EC102B9D
:1041500009F06AF841EC100B53EC102B9DED0E0B9F
:1041600051EC100B09F076FA53EC1A2B09F0A6FB70
:104170009DED0E1B53EC112B09F0A0FB53EC1C2BF7
:1041800009F09CFB41EC100BA9E79FED7D8B9FEDA7
:104190007EBB9DED0E0B002953EC192B51EC100B3F
:1041A00052DA08F085FF53EC182B09F053FA41EC72
:1041B000180B77480621B0EE480AF0EE680A7844FA
:1041C00001F07BFB53EC182B51EC100B09F042FA79
:1041D00041EC1D0B6F48B0EE480AF0EE680A04216E
:1041E000784401F06AFB53EC182B51EC100B09F0EA
:1041F00031FA53EC192B08F05BFF41EC190B51EC31
:10420000180B08F003F941EC180B53EC192B51EC87
:104210001D0B09F009F853EC182B09F01BFA53ECAD
:104220001A2B09F023FC41EC100B51EC180B53EC4A
:10423000102B08F03DFF53EC1B2B09F00BFA53EC4D
:104240001C2B09F03BFB6DE009F038FB53EC182BFD
:1042500009F000FA41EC180B08F0D8F841EC1A0B01
:1042600000208DED00AB00909DED000B51EC1A0B82
:1042700053EC102B08F01CFF9DED000B41EC1C0BC8
:1042800053EC102B51EC100B09F0E4F953EC182B04
:1042900009F014FB53EC1C2B08F0C6FF41EC1C0B7F
:1042A0003D48B0EE480AF0EE680A0621784401F075
:1042B00004FB53EC182B51EC100B09F0CBF941EC3B
:1042C0001D0B3648B0EE480AF0EE680A0421784427
:1042D00001F0F3FA53EC182B51EC100B09F0BAF97A
:1042E00053EC192B08F0E4FE41EC100B51EC1D0BC4
:1042F00053EC102B08F098FF53EC1A2B09F0AAF995
:1043000053EC1C2B08F0D4FE41EC100B53EC102B9B
:104310009DED000B51EC100B08F0CAFE53EC1B2B6B
:1043200009F098F941EC100BD9E6000000000000FC
:104330000000F03F00000000182D4454FB2109400C
:104340000000F07F000000000000000000000000FE
:104350000000E03F00000000000000000000F03F0F
:10436000075C143326A6913C0000603C000000006E
:10437000182D4454FB21F93FFCBD00000ABE00008B
:10438000000000000000E03F0000000000000040CE
:1043900046BD000054BD000058BC000066BC0000D3
:1043A00070B52DED020B2DED0A8B82B00D98C40F68
:1043B00020F00045AE48854248D3AE48854219D327
:1043C0000C99C5F31300084309D09DED0C0B02B006
:1043D000BDEC0A8B02B0BDE8704001F005BB002CBB
:1043E00014BF9FEDA50B9DED0C0B02B0BDEC0A8B2D
:1043F00002B070BD9FEDA20B53EC102B9DED0C0B8A
:1044000051EC100B09F024FA0AD20220FCF7FBFA57
:1044100002B0BDEC0A8B02B0BDE8704001F008BBF1
:104420009FED990B53EC102B9DED0C0B51EC100BE9
:1044300009F0D4F80AD20220FCF7E5FA02B0BDEC8C
:104440000A8B02B0BDE8704001F002BB90489FEDBE
:1044500092BBA8425CD29248854219D291487844D6
:1044600000EBC40090ED000B53EC102B9DED0C0BFA
:1044700051EC100B09F0FAFA41EC1A0B8A48784417
:1044800000EBC40090ED009BC4F10100041B36E07A
:104490009FED870B53EC102B9DED0C0B51EC100B8B
:1044A00009F0D8F841EC100B8348784400EBC400C5
:1044B00090ED001B51EC100B53EC112B08F0F8FDA4
:1044C00009F046F8044609F072F841EC180B9FED2C
:1044D0007C0B53EC102B09F0BDF89DED0C1B53EC3D
:1044E000112B09F0EBF941EC1A0B9FED770B51EC16
:1044F000180B53EC102B09F0ADF841EC190B51ECF3
:104500001A0B53EC192B09F0B1FACDE90C011BE0A1
:104510006F48854217D29FED700B53EC102B9DED29
:104520000C0B51EC100B08F0C3FD53EC1B2B09F0E6
:104530008FF908D29DED0C0B53EC1B2B51EC100B9B
:1045400008F0B6FD6EE000249DED0C0B53EC102B33
:1045500051EC100B09F07EF841EC180B6048052176
:10456000B0EE480AF0EE680A784401F0A6F953EC80
:10457000182B51EC100B09F06DF89DED0C1B53EC52
:10458000112B09F09BF941EC180B9FED570B5CB315
:1045900053EC182B51EC100B09F068FA9DED0C0B45
:1045A00041EC1C0B53EC182B51EC100B09F052F89A
:1045B00053EC1C2B08F038FE53EC192B09F07EF954
:1045C00053EC1A2B09F052FA53EC1B2B09F076F935
:1045D000CDE900016FF47F70844226DB01EB0450CB
:1045E00001909DED000B00E753EC102B51EC180BE4
:1045F00009F03CFA9DED0C0B41EC190B53EC182B18
:1046000051EC100B09F026F853EC192B08F00CFEB6
:104610009DED0C1B53EC112B09F028FA53EC1B2BCE
:1046200009F04CF941EC100BDFE608464FF07A51E7
:1046300001EB04519FED2E0B084453EC102B01901D
:104640009DED000B51EC100B09F004F80D4645EC04
:10465000100B044651EC100BFFF7CEFC042808BFEA
:1046600001F0F6F945EC104BBFE600000000000039
:10467000422E86400000F07F000000000000000095
:10468000EF39FAFE422E864051302DD5104987C0B1
:10469000422ED63F00000000000000000000F03F66
:1046A000B2A2F03F06BB0000F6BA00000000000016
:1046B000FE822B654715F73FAABA000000000000F4
:1046C0000000E0FE422EE63F763C7935EF39EA3DC8
:1046D0000000303E000000009C7500883CE4377EFE
:1046E0001CBA0000000000000000000000000040B4
:1046F00000000000000070012DED020B019820F079
:10470000004001909DED000B02B0704700000000DA
:104710002DE9F0412DED020B9FED3D0B2DED028BB0
:104720009FED3D8BDDE90254C4F30A50A0F2FF3641
:10473000142E37DA002E18DA53EC102B9DED020BF5
:1047400051EC100B08F0B4FC53EC182B09F080F876
:1047500057D2002CA4BF0024254652DA24F0004092
:10476000284318BF2E4C4CD01AE02E4820FA06F7EA
:1047700004EA070028431FD053EC102B9DED020BD9
:1047800051EC100B08F094FC53EC182B09F060F876
:1047900037D2002C03DA4FF48010F0400444BC43BD
:1047A00000252EE0332E07DCA6F114004FF0FF3178
:1047B00021FA00F73D4206D19DED020BBDEC028BC4
:1047C00002B0BDE8F08153EC102B9DED020B51ECD3
:1047D000100B09F073F853EC182B09F039F810D2CC
:1047E000002C0DDA142E08BF641C09D0C6F1340069
:1047F000012101FA00F02844A84238BF641C054694
:10480000BD43CDE902549DED020BD7E70000000047
:104810009C7500883CE4377E00000000000000002A
:104820000000F0BFFFFF0F0070B5D94B00242DED45
:10483000020B2DED108BDDE91010984205DA20F007
:1048400000429A4201D809D141B19DED100BBDEC57
:10485000108B02B0BDE8704001F0C6B8B0F5801F03
:1048600026DA11430BD0002813DA0120FCF7CBF82D
:10487000BDEC108B02B0BDE8704001F0C9B8022059
:10488000FCF7C1F801F098F851EC100B08F0D2FBDE
:104890009EE06FF035049FEDC00B53EC102B9DEDA7
:1048A000100B51EC100B08F0D5FECDE910010846B5
:1048B00004EB2051C0F31304B948A1F2FF312044A6
:1048C00000F4801080F07F6282F04052224301EBBE
:1048D00020559FEDB50B119253EC102B9DED100B55
:1048E00051EC100B09F0C2F841EC180BA01CC0F3FE
:1048F00013009FEDAFDB9FEDB0EBB14E7E4403287C
:104900006CD296ED000B51EC180B53EC102B08F009
:10491000E3FD1DD1002D01BF96ED000BBDEC108B0A
:1049200002B070BD284608F042FE41EC180B53EC73
:104930001D2B08F08FFE41EC190B53EC1E2B51EC94
:10494000180B08F087FE53EC192B08F0B1FB3FE081
:104950009FED9D0B51EC180B53EC102B08F07AFED9
:104960009FED9B1B53EC112B08F0A8FF41EC190B9A
:1049700053EC182B51EC180B08F06CFE53EC192B70
:1049800008F068FE41EC190B002D04BF53EC192B05
:1049900051EC180B1AD0284608F009FE41EC1A0B0E
:1049A00053EC1D2B08F056FE53EC192B08F086FF34
:1049B00053EC182B09F05AF841EC180B53EC1E2B52
:1049C00051EC1A0B08F046FE53EC182B09F04EF888
:1049D000BDEC108B02B041EC100B70BD9FED7E0B57
:1049E00051EC180B53EC102B08F062FB41EC100B50
:1049F00051EC180B53EC102B08F016FC41EC190B82
:104A0000284608F0D4FD41EC1B0B53EC192B51EC5C
:104A1000190B08F01FFE41EC1A0B714853EC1A2BCE
:104A2000261851EC1A0B08F015FE41EC1F0B6D48CF
:104A3000C4F1510404F5D724B0EE4F0AF0EE6F0A2A
:104A40000321784400F039FF53EC1F2B51EC100B7D
:104A500008F000FE41EC1C0B6348B0EE4F0AF0EE8C
:104A60006F0A0421784400F028FF53EC1A2B51EC14
:104A7000100B08F0EFFD344353EC1C2B08F018FB2F
:104A800041EC1C0B002C4CDD9FED510B51EC180B35
:104A900053EC102B08F0DEFD53EC182B08F0DAFD78
:104AA00041EC1A0B55B353EC1D2B51EC1B0B08F0CA
:104AB000D1FD41EC1D0B53EC1C2B51EC1A0B08F0F3
:104AC000F7FA53EC192B08F0C5FD53EC1D2B08F039
:104AD000EFFA53EC1A2B08F0F1FE53EC182B08F008
:104AE000C5FF41EC180B53EC1E2B51EC1B0B08F0CF
:104AF000B1FD53EC182B08F0B9FF69E753EC1C2B00
:104B000051EC1A0B08F0D4FA53EC192B08F0A2FD63
:104B100053EC1A2B08F0D2FE53EC182B08F0CEFE03
:104B200056E735B353EC1D2B51EC1B0B08F092FDEF
:104B300041EC1A0B53EC1C2B51EC180B08F096FFB0
:104B400053EC192B08F086FD53EC1A2B08F08EFF5E
:104B500053EC182B08F08AFF41EC180B53EC1E2B7A
:104B600051EC1B0B08F076FD53EC182B08F07EFF80
:104B70002EE753EC1C2B51EC180B08F077FF53EC8D
:104B8000192B08F067FD53EC182B08F097FE1FE770
:104B90000000F07F00000000000000000000504313
:104BA000645F090000000000000000000000F03F0A
:104BB000763C7935EF39EA3D0000E0FE422EE63FD3
:104BC00070B7000000000000555555555555D53FAC
:104BD000000000000000E03F000000000000004076
:104BE00086EBF9FF6AB5000060B500000000000028
:104BF0002DE9F04D2DED040B2DED0E8B96B0DDE97A
:104C00002550279CDDF890A025F0004624F00048B0
:104C1000BAF1000F14BF0121002101EB4502FC494C
:104C200053184A1093422AD3002814BF01230023AB
:104C300003EB44030B44F7498B4220D358EA0001AD
:104C40009FEDF59B76D0DFF8D8B35D4503D1BAF17F
:104C5000000F05D188E0BAF1000F08BF002100D095
:104C6000012101EB450111F5001F08D8002814BFF0
:104C70000121002101EB440111F5001F0BD99DED2D
:104C8000261B9DED240B16B0BDEC0E8B04B0BDE8C9
:104C9000F04D00F0B3BE0027002DBCBFE1498845B0
:104CA00021DAE1498845A8BF02271CDAC3451ADC8E
:104CB000DE4901EB2851142908DDC1F1340220FA44
:104CC00002F101FA02F282420DD108E058B9C1F1B5
:104CD000140228FA02F101FA02F2424503D101F06E
:104CE0000101C1F1020756EA0A0124D1002C22DA9F
:104CF000002D18BF022F01D0012F0AD00220FBF790
:104D000082FE16B0BDEC0E8B04B0BDE8F04D00F095
:104D100053BE0220FBF777FE00F04EFE51EC100B65
:104D200008F088F941EC100B16B0BDEC0E8B04B006
:104D3000BDE8F08D18E09FEDBEAB9FEDBF8B002866
:104D400071D1B848804522D105F1804010F580101E
:104D500008BFBAF1000F07D0B3450ADC002CA8BF8A
:104D60009DED260BE0DA0DE0B0EE490AF0EE690A9F
:104D7000DAE7002C06DA9DED260B51EC100B08F05B
:104D800059F96FE0AE48784490ED000BCCE7D84578
:104D90004DD1002C48DA2EB186423AD1BAF1000F3B
:104DA00042D126E0BAF1000F13D00220FBF72BFE10
:104DB00000F03EFE8DED020B9DED240B8DED000B02
:104DC00010EE900A039961F31E0003909DED020B13
:104DD000AAE78DED02AB9DED240B1AEE901A10EEB2
:104DE000900A8DED000B61F31E0003909DED020B08
:104DF0009AE78DED028B9DED240B18EE901A10EEC4
:104E0000900A8DED000B61F31E0003909DED020BE7
:104E10008AE709DA9DED240B51EC190B53EC102BAA
:104E200008F002FA1EE020E09DED240B7CE78642AC
:104E30001BDAB4F1804F0DD0A4F10050B0F1FF5057
:104E400013D1002D11DB9DED240B51EC100B07F05D
:104E5000DDFA07E09DED240B53EC102B51EC100B09
:104E600000F0C2BC41EC100B5EE79DED240B51EC51
:104E7000100B01F05BFBBAF1000FCDE90E0142D13E
:104E80009FED710B46B3A6F1E040B0F17F600CD00E
:104E90005E4538D1002D00DAA7B3022F0CBF0120E8
:104EA0004FF0FF3008F083FBDCE7002D01DD002C24
:104EB0000DDA002D01DD002C1FDB002D16DA002C91
:104EC00014DB012F08BF9FED620B3FF42DAFB0EE56
:104ED0004A0AF0EE6A0A27E7022F18BF002D0CD00D
:104EE000012F0AD1002DFFF61FAF06E0002DB8BF3D
:104EF000002C08DA012F3FF417AFB0EE480AF0EEAD
:104F0000680A11E71BE0012000EBE57050EA070199
:104F100015D0791EB0EE498AF0EE698A084308BFC1
:104F20009FED4D8B4E480025804570DD4D494E4824
:104F3000884514DDB0420DDB002C19DB2FE0012089
:104F4000FBF761FD16B0BDEC0E8B04B0BDE8F04D73
:104F500000F05EBDB34502DC002C09DC1FE0864298
:104F600002DA002C1BDA03E05E452BDD002C16DD97
:104F70000220FBF748FD00F05BFD8DED020B53ECCA
:104F80001A2B51EC180B08F065FBCDE900010399D1
:104F9000019861F31E0003909DED020BC4E6022010
:104FA000FBF731FD00F054FD10EE901A18EE900A58
:104FB0008DED020B8DED008B61F31E0003909DEDD6
:104FC000020BB1E69DED0E0B53EC192B51EC100BBF
:104FD00008F04CFD9FED260BCDE9080153EC102B9A
:104FE0009DED080B51EC100B08F034FB9FED221BDC
:104FF00053EC112B08F062FC9DED081B53EC112BB8
:1050000008F028FB9FED1E1B53EC112B3CE08CE0BD
:10501000FFFF1F00FFFF0F00000000000000F03F37
:105020000000F03F0000F07F0000404301FCFFFF64
:10503000000000000000F07F000000000000000001
:10504000E6B2000000000000000000000000008048
:10505000000000000000F0FF000000000000F0BFB2
:105060000000E0410000F043FFFFEF3F00000000C0
:10507000000000000000D03F555555555555D53F0F
:10508000000000000000E03F08F018FC9DED080B58
:1050900041EC1A0B53EC102B51EC100B08F0DAFA20
:1050A00053EC1A2B08F0D6FA41EC1A0B9FEDFE0BCD
:1050B00053EC102B9DED080B51EC100B08F0CAFAC5
:1050C00041EC1B0B9FEDFA0B51EC1A0B53EC102B20
:1050D00008F0C0FA41EC1A0B9FEDF70B53EC102BC4
:1050E0009DED080B51EC100B08F0B4FA53EC1A2BA1
:1050F00008F0BCFC41EC1A0B51EC1B0B53EC1A2BC7
:1051000007F0D6FF0690CDE906519DED060B53EC56
:105110001B2B51EC100B08F0A9FC53EC1A2B08F0D8
:10512000CDFB41EC100B00F0A1B90020B6F5801FBB
:105130000EDA9FEDE30B53EC102B9DED0E0B51ECB3
:10514000100B08F087FACDE90E016FF034000E461F
:1051500000EB2650A0F2FF37C6F31300DA4940F007
:105160007F6646F040568842D8BF002408DDD74904
:105170008142C8BF012403DC0024A6F580167F1CF1
:10518000D348784400EBC4000F9690ED00CB9DED22
:105190000E0B53EC1C2B51EC100B08F067FC9DED33
:1051A0000E0B41EC1B0B53EC1C2B51EC100B07F0BE
:1051B0007FFF41EC100B51EC190B53EC102B08F056
:1051C00033F841EC1D0B51EC1B0B53EC1D2B08F07D
:1051D00041FA41EC1A0BBF488DED10AB78441095A5
:1051E00090ED000B4FF0005040EA660000EB844069
:1051F0008DED080B00F5002009909DED080B53EC98
:105200001C2B51EC100B08F031FC9DED0E1B53ECE8
:10521000112B08F053FB41EC100B53EC102B9DEDC0
:10522000100B51EC100B08F015FA9DED080B41EC3A
:105230001C0B53EC102B9DED100B51EC100B08F0D8
:1052400009FA53EC1B2B08F039FB53EC1C2B08F02C
:105250000DFC53EC1D2B08F0FDF941EC1C0B53EC3D
:105260001A2B51EC1A0B08F0F5F941EC1B0B9A487C
:105270000621B0EE4B0AF0EE6B0A784400F01DFBFD
:10528000B0EE401AF0EE601AB0EE41DAF0EE61DAFC
:1052900053EC1B2B51EC1B0B08F0DCF953EC1D2BD2
:1052A00008F0D8F99DED100B41EC1B0B53EC1A2BB9
:1052B00051EC100B07F0FCFE53EC1C2B08F0CAF964
:1052C00053EC1B2B07F0F4FE9DED100B41EC1B0B78
:1052D00053EC102B51EC100B08F0BCF941EC1D0BFA
:1052E0009FED7FEB53EC1E2B07F0E2FE53EC1B2BE4
:1052F00007F0DEFE0890CDE908519DED080B53EC58
:105300001E2B51EC100B08F0B1FB53EC1D2B08F0D9
:10531000ADFB53EC1B2B08F0D1FA9DED080B41ECD3
:105320001D0B53EC102B9DED100B51EC100B08F0E6
:1053300091F941EC1B0B53EC1A2B51EC1D0B08F0AF
:1053400089F99DED080B41EC1A0B53EC102B51EC35
:105350001C0B08F07FF953EC1A2B07F0A9FE41EC67
:105360001A0B51EC1B0B53EC1A2B07F0A1FE0C90FF
:10537000CDE90C519DED0C0B53EC1B2B51EC100B9C
:1053800008F074FB53EC1A2B08F098FA41EC1B0B55
:105390009FED550B53EC102B9DED0C0B51EC100BAE
:1053A00008F058F941EC1A0B9FED510B51EC1B0B17
:1053B00053EC102B08F04EF941EC1B0B9FED4E0BFC
:1053C00053EC102B9DED0C0B51EC100B08F042F937
:1053D00053EC1B2B07F06CFE41EC100B4848784453
:1053E00000EBC40090ED001B51EC100B53EC112BA3
:1053F00007F05EFE41EC1B0B384608F0D8F8CDE90B
:10540000080153EC1B2B51EC1A0B07F051FE41EC39
:10541000100B3C48784400EBC40090ED00CB51ECFD
:10542000100B53EC1C2B07F043FE9DED081B53ECB7
:10543000112B07F03DFE0690CDE906519DED080BBE
:1054400053EC102B9DED060B51EC100B08F00EFBEE
:1054500053EC1C2B08F00AFB53EC1A2B08F006FB4C
:1054600053EC1B2B08F02AFA41EC100B9DED261B88
:1054700053EC102B8DED001B00959DED260B51EC90
:10548000100B08F0E7F89DED000B41EC1A0B53EC04
:10549000102B9DED260B51EC100B08F0E7FA9DED5B
:1054A000061B53EC112B2FE0000000604715F73F5F
:1054B000FE822B654715F73F44DF5DF80BAE543E87
:1054C00000000000000040438E9803007AB60B00F5
:1054D00062AE000090AE00009AAD00000000000037
:1054E0000000000000000840000000E009C7EE3F97
:1054F000FD033ADC09C7EE3FF5015B14E02F3EBE29
:1055000026AC0000E0AB000008F0A4F853EC1A2B26
:1055100007F0CEFD9DED060B41EC1A0B53EC102B62
:105520009DED000B51EC100B08F094F8CDE90C0147
:105530009DED0C0B51EC1A0B53EC102B07F0B8FD42
:10554000CDE902010C46AA498C422FDB611A0843BF
:1055500018D19DED0C0B53EC102B9DED020B51EC73
:10556000100B08F083FA41EC1B0B9FEDA30B51ECE1
:105570001A0B53EC102B07F09BFD53EC1B2B08F080
:1055800067F92DD20220FBF73EFA00F051FA10EE37
:10559000901A18EE900A8DED020B8DED008B61F3E1
:1055A0001E0003909DED020BFFF7BEBB944A24F052
:1055B0000041914214D39349214408437FF4EFAC56
:1055C0009DED0C0B53EC102B9DED020B51EC100BD1
:1055D00008F04CFA53EC1A2B08F03AF97FF6DFACDE
:1055E00024F000408849894A002601EB205182427C
:1055F0002BDA481C4FF4801121FA00F02044844A31
:10560000C0F30A517A44A1F2FF3192ED000B814AB6
:105610008DED080BCA4020EA0202C0F3130040F4EB
:105620008010C1F1140120FA01F60992002CB8BFD4
:1056300076429DED080B53EC102B9DED0C0B51ECBD
:10564000100B08F013FACDE90C019DED0C0B51EC99
:105650001A0B53EC102B07F02BFD9FED6F0B0890EE
:10566000CDE9085153EC102B9DED080B51EC100BBC
:1056700007F0F0FF41EC1B0B9FED690B53EC102B77
:105680009DED080B51EC100B07F0E4FF9DED0C0BAA
:1056900041EC1C0B53EC102B9DED080B51EC100B47
:1056A00008F0E4F953EC1A2B08F008F99FED5E1BA3
:1056B00053EC112B07F0CEFF53EC1C2B07F0F8FC3A
:1056C00041EC1A0B51EC1B0B53EC1A2B07F0F0FCBE
:1056D000CDE902019DED020B53EC1B2B51EC100B9D
:1056E00008F0C4F953EC1A2B08F0E8F89DED020B12
:1056F00041EC1A0B53EC102B51EC100B07F0AAFFE6
:10570000CDE908014A489DED080B0521784400F0D9
:10571000D4F89DED081B51EC100B53EC112B07F046
:1057200099FF9DED021B53EC112B08F0C7F8CDE952
:1057300006019DED020B53EC1A2B51EC100B07F0F8
:1057400089FF53EC1A2B07F0B3FC9FED3B0B41ECA8
:105750001A0B53EC102B9DED060B51EC100B08F0BF
:1057600085F99DED060B41EC1B0B53EC102B9DEDC9
:10577000020B51EC100B07F06DFF53EC1B2B07F0E5
:1057800053FD53EC1A2B08F071F99DED021B53ECFD
:10579000112B08F06BF953EC192B08F08FF8CDE9B9
:1057A000020101EB065001150029C8BF039015DC6A
:1057B0009DED020B324651EC100B08F0F0FAFEF7AB
:1057C0001BFC042808BF00F043F932469DED020B94
:1057D00051EC100B08F0E3FACDE902019DED020B4C
:1057E00051EC180B53EC102B07F034FFFFF73ABBCA
:1057F0000000904000000000FE822B654715973C9A
:1058000000CC904000346F3F01FCFFFF0000E03F00
:1058100068AA0000FFFF0F0000000000432EE63FD3
:10582000396CA80C615C20BEEF39FAFE422EE63FCF
:1058300038A9000000000000000000000000004047
:1058400000B52DED048BB0EE409AF0EE609A83B077
:1058500051EC190B08F03EF841EC180B18EE100A49
:1058600018EE901A8DED008B002818BF0120084318
:1058700020F00040C0F17F6000F1E040C00F14D084
:1058800019EE101A19EE900A8DED009B002918BF31
:105890000121084320F00040C0F17F6000F1E040AA
:1058A000C00F04BF0120FBF7AEF8B0EE480A03B00A
:1058B000F0EE680ABDEC048B00BD70B504462DED1A
:1058C000028B4D1E00EBC500B0EE408AF0EE608A00
:1058D00090ED000B35F0060017D053EC182B51EC6F
:1058E000100B07F0B7FE41EC100B6D1E04EBC5006A
:1058F00090ED001B51EC100B53EC112B07F0D8FB73
:1059000041EC100B35F00600E7D1022D36D0042D06
:105910001CD0062D1CBFBDEC028B70BD53EC182BA8
:1059200051EC100B07F096FE94ED0A1B53EC112B73
:1059300007F0BEFB53EC182B07F08CFE94ED081B10
:1059400053EC112B07F0B4FB41EC100B53EC182B6C
:1059500051EC100B07F07EFE94ED061B53EC112B5F
:1059600007F0A6FB53EC182B07F074FE94ED040B24
:1059700053EC102B07F09CFB41EC100B53EC182B55
:1059800051EC100B07F066FE94ED021B53EC112B4B
:1059900007F08EFB53EC182B07F05CFE94ED001B18
:1059A00053EC112B07F084FBBDEC028B41EC100B88
:1059B00070BD0000000000009FED070B10B553EC18
:1059C000102B9FED070B51EC100B07F02DFC41EC59
:1059D000100B10BD000000000000000000000000DF
:1059E000000000000000F03F10B553EC102B51EC0C
:1059F000100B07F05DFB41EC100B10BD10B553EC24
:105A0000112B51EC100B07F053FB41EC100B10BDA8
:105A10009FED050B10B553EC102B51EC100B07F05C
:105A200003FC41EC100B10BD000000000000000062
:105A30009FED050B10B553EC102B51EC100B07F03C
:105A400009FE41EC100B10BD0000000000000070CA
:105A50009FED050B10B553EC102B51EC100B07F01C
:105A6000F9FD41EC100B10BD00000000000000101B
:105A700030380A2801D2012070470020704700000A
:105A800008B513460A46009002A10D48FAF744FDF6
:105A900008BD0000466174616C2028696E746572EF
:105AA0006E616C29206572726F7220696E20257399
:105AB0002C206C696E652025643A2025730A00004D
:105AC0004005002030B5DFED120A15E01446B0EEB7
:105AD000600A0BE000EB840595ED001AA51A00EBB7
