:020000040800F2
:100000000008002091020008E73A00089D3400082B
:10001000E53A00080D150008AD4C0008000000008E
:10002000000000000000000000000000FF3D00088C
:100030000F15000800000000E93A0008013E000822
:10004000AB020008AB020008AB020008AB020008DC
:10005000AB020008AB020008AB020008AB020008CC
:10006000AB020008AB020008AB020008AB020008BC
:10007000AB020008AB020008AB020008AB020008AC
:10008000AB02000800000000AB020008AB02000851
:10009000AB020008AB020008AB020008AB0200088C
:1000A000AB020008993E00088D3E0008AB02000834
:1000B000AB020008AB020008AB020008AB0200086C
:1000C000AB020008AB020008AB020008AB0200085C
:1000D000AB020008954B0008AB020008AB02000819
:1000E000AB020008AB020008AB020008AB0200083C
:1000F000AB020008AB020008AB02000800000000E1
:1001000000000000AB02000800000000AB02000885
:10011000AB02000800000000AB020008AB020008C0
:10012000AB020008AB020008AB020008AB020008FB
:10013000AB0200080000000000000000AB02000855
:10014000AB020008AB020008000000000000000045
:10015000000000000000000000000000000000009F
:10016000000000000000000000000000AB020008DA
:10017000AB020008000000000000000000000000CA
:1001800000000000AB0200080000000000000000BA
:10019000000000000000000000000000000000005F
:1001A0000000000000000000AB020008AB020008E5
:1001B000AB020008AB020008AB0200080000000020
:1001C00000000000AB02000800000000000000007A
:1001D000AB020008AB02000800F002F800F049F89A
:1001E0000AA090E8000C82448344AAF10107DA4592
:1001F00001D100F03EF8AFF2090EBAE80F0013F09B
:10020000010F18BFFB1A43F001031847C065000037
:10021000E0650000103A24BF78C878C1FAD85207C8
:1002200024BF30C830C144BF04680C607047000070
:100230000023002400250026103A28BF78C1FBD8EF
:10024000520728BF30C148BF0B607047662905F0D0
:100250007C81002070471FB505F06DF900F024FC8B
:1002600004000020002104F09DFFE0601FBD10B5D8
:1002700010BD00F019FD1146FFF7EDFF04F0F6FE8A
:1002800000F037FD03B4FFF7F2FF03BC00F03AFDC6
:100290000948804709480047FEE7FEE7FEE7FEE71A
:1002A000FEE7FEE7FEE7FEE7FEE7FEE70448054956
:1002B000054A064B70470000713E0008D90100084E
:1002C000000200200008002000040020000400209C
:1002D00053EA020C00F069802DE9F04B4FF0000664
:1002E000002B1FBFB3FA83F503FA05F424FA05F6D1
:1002F0005E4012BF1643B2FA82F502FA05F4C5F168
:1003000020051EBF22FA05FC44EA0C04203556EAFB
:10031000044C4FEA144418BF641C4FF000084FF01F
:100320000009904271EB030C39D3002919BFB1FACF
:1003300081F701FA07F6B0FA80F700FA07F6C7F17D
:1003400020071EBF20FA07FC46EA0C062037B6FB42
:10035000F4FCA7EB0507103F07F01F0BCBF12006BD
:100360000CFA0BFB2CFA06F644BFB3460026202FEE
:10037000A4BF5E464FF0000B5BEA060C08BF4FF0CF
:10038000010B19EB0B09ABFB027C48EB0608C01B09
:1003900006FB02CC0BFB03CC71EB0C01C1E70B4657
:1003A000024641464846BDE8F08B13B54FF00000C9
:1003B0004FF00001AFF30080BDE81C407047000023
:1003C0000FB41CB5074B06AA7B44694600900598FC
:1003D00000F051FB0020694600F060FB1CBC5DF89A
:1003E00014FB0000D10600002DE9F0474FF0000A91
:1003F00089460446C0F820A02046E16888470028C6
:1004000076D0252806D0D4E901219047206A401CE7
:100410002062F1E7E168204600258847C4F81CA067
:1004200006460027C4F818A02A2E09D0304604F04A
:1004300066FC38B304EB8708303EC8F8186019E052
:1004400059F8041B204604EB87029161E168884754
:10045000012F064618D1E069002820DA25F0200592
:100460001DE0D8F8180000EB800006EB40003038A3
:10047000C8F818002046E1688847064604F03FFCAB
:100480000028EED1012F0AD02E2E08D12046E16897
:1004900088477F1C0646022F45F02005C4DBA06973
:1004A000002803DA404245F00105A061E80701D0C9
:1004B00025F01005B6B1A6F14100192802D8203662
:1004C00045F400654A463146204625604D46FFF713
:1004D000BDFE58B1012806D0ED1D25F0070000F142
:1004E000080989E704E005F1040985E730468AE751
:1004F000206ABDE8F08710B5431C02E010F8011B2C
:1005000071B18107FAD14FF0013202C88C1A8C43C5
:1005100014EAC211F9D0C01A0A0603D0C01E10BDD9
:10052000C01A10BD0A0401D0801E10BD0902FCD003
:10053000401E10BD4FF000020429C0F0128010F0E0
:10054000030C00F01B80CCF1040CBCF1020F18BFAF
:1005500000F8012BA8BF20F8022BA1EB0C0100F042
:100560000DB85FEAC17C24BF00F8012B00F8012B15
:1005700048BF00F8012B70474FF0000200B513464A
:1005800094469646203922BFA0E80C50A0E80C50B3
:10059000B1F12001BFF4F7AF090728BFA0E80C5064
:1005A00048BF0CC05DF804EB890028BF40F8042B5D
:1005B00008BF704748BF20F8022B11F0804F18BFCA
:1005C00000F8012B704700004FF0013C50F8042B5D
:1005D00051F8043B9A4221D1A2EB0C03934313EA56
:1005E000CC1317D150F8042B51F8043B9A4215D183
:1005F000A2EB0C03934313EACC130BD150F8042B5A
:1006000051F8043B9A4209D1A2EB0C03934313EA3D
:10061000CC13DBD04FF00000704700BFD01A01BAF6
:10062000B1FA81F101F0180122FA01F0CB40C1F1D9
:100630002001DBB2C0B2C01A2CFA01F3D11A9143E7
:1006400011EAC311E6D17047704770477047704791
:100650002DE9FF4F0C461E464FF0FF378BB0D2E915
:100660000001DDF860800A908A46C1F30A5505B999
:100670003D46002108464FF00000BAF1000F00F49B
:10068000400005DA00EB80004FF4400101EA500021
:100690004FEA9059B9F1010F00DDB9460A9850EAC6
:1006A0004A000ED044F61050A5F2FF3545432F14F2
:1006B000B8F1000F1ED07542291E1EDDC9F10002DF
:1006C0001CE0B8F1010F4FF0000001D0302103E031
:1006D000F24305E02154401CB042FBDB30460022CF
:1006E000002121540B99C1F80880C1E900200FB006
:1006F000BDE8F08FBD1B6D1CDEE74A4600DA69429B
:1007000006A800F05BFA06AB93E8070003AB83E8AA
:10071000070050460A9900F0FCFA8DE80700A0F5A2
:1007200000501F3800900398002D0ADD42F21F018F
:100730004A460844002303A90390684600F065FD7B
:1007400009E0A0F500504A461F38002303A9039092
:10075000684600F06FFD8DE807000004000C03D030
:100760004FF0FF30410800E01046B8F1000F03D011
:100770000022009215461EE0751E05D400F098F97F
:10078000303262556D1EF9D5B3460122084302D0BE
:1007900000227F1C04E02078302801D100227F1E37
:1007A000002A099784D01DE0112D07DA00F080F9A6
:1007B000303262556D1C50EA0102F5D1084302D077
:1007C0000098C8B10EE00021681E05E0235C625C61
:1007D00063542254401E491C8142F7DBAB46A81BE0
:1007E000401E0990002004F80B000B98099AC0F8ED
:1007F0000880C0E9002B7AE711264FF0000857E780
:100800002DE9F04F88460446D21D22F0070191B031
:10081000D1E90001CDE90A0104F049FA02460B983A
:10082000C00F01D02D2007E02068810701D52B20C3
:1008300002E0202101EAC000032A099001D0072A22
:1008400005DB03464146204600F078F90BE12078AD
:10085000800601D5E06900E00620B8F1650F814609
:1008600006D0B8F1660F18D0B8F1670F70D131E03B
:100870000020B9F1110F009001DB112301E009F113
:1008800001030AAA01A90CA8FFF7E2FEDDE90C703A
:10089000002609F10105834647E001204B46009000
:1008A0004FF000470AAA01A90CA8FFF7D1FEDDE925
:1008B0000DB00C995D46002610B909F101000D1824
:1008C000B9EB050003D4C0F1FF3609F10105A5EB32
:1008D00009002BE0B9F1010F01DA4FF00109002006
:1008E000B9F1110F0090484601DD112300E00346E5
:1008F0000AAA01A90CA8FFF7ABFEDDE90C704D4672
:1009000000268346207800070AD4AB4500DA5D460E
:1009100001A8012D04DD411911F8011C302907D06F
:100920004F4502DA17F1040F04DA012082460FE086
:100930006D1EEEE7002F02DCED1B3E4403E0781C49
:10094000A84200DD7D1CB81B00F1010A4FF00047F2
:100950002078000703D4AA4501DB4FF0FF3A0021BD
:10096000B7F1004F0DF143088DF8431024D0022059
:100970002B23002F01DA7F422D230A21021EA0F132
:10098000010000DC5FB197FBF1FC97FBF1F201FB8A
:100990001C7C17460CF1300C08F801CDEEE7A8F1ED
:1009A000010003702188090501D5452100E065217A
:1009B000A0F1010800F8011C09980FA9A1EB080794
:1009C000FF1D00B10120411901EBEA70A169384413
:1009D000081A401EA0612078C00602D42046AFF35A
:1009E0000080099828B1D4E901219047206A401C71
:1009F00020622078C00622D52046AFF300801EE09A
:100A0000002E04DBB34502DD01A8805D00E030204C
:100A1000D4E901219047206A401C2062761CAAF18B
:100A200001005FEA000A0AD100F03EF8C0680168E0
:100A3000405CD4E901219047206A401C2062281EB6
:100A4000A5F10105DCDC07E0D4E9012118F8010B70
:100A50009047206A401C2062381EA7F10107F3DC92
:100A60002046AFF30080032011B041E601694A1C23
:100A700002610878704700B58FB0CDE901310021DF
:100A8000059105497944CDE9031011466846FFF701
:100A9000ABFC0FB000BD0000E5FFFFFF0A6802F8E5
:100AA000010B0A607047000000487047C001002039
:100AB00030B5B0F10A024FEA900E71F100034EEA30
:100AC000817EB0EB0E0061EB91014FEA101E4EEA01
:100AD000017E10EB0E0041EB11114FEA102E4EEA91
:100AE000016E10EB0E0041EB11214FEA104E4EEA61
:100AF000014E10EB0E0041EB1141401841F1000195
:100B00004FEAD00040EA41704FEAD10110EB800576
:100B10004FEA810444EA907444EB01046D1944EBFC
:100B20000404521BA3414FF0000348BF0A3200D512
:100B300030BD401C41F1000130BD00002DE9F04105
:100B40001F46044603260168072A01F4006004DBFF
:100B500008B116A505E016A503E008B115A500E04B
:100B600015A521F010002060A069C01EA0610FB182
:100B7000401EA0612046AFF300804FB1D4E90121AF
:100B800038469047206A401C2062C01C206206E064
:100B9000206AFAE7D4E9012115F8010B9047761E87
:100BA000F8D22046AFF30080BDE8F0814E414E0000
:100BB0006E616E00494E4600696E66002DE9F04791
:100BC000814616468AB0354878440DC88DE80D0038
:100BD00032487844801C03AC0DC884E80D0041F60F
:100BE0009B300844372190FBF1F290FBF1F5A5F121
:100BF000800501FB12041B3C02D56442012000E089
:100C00000020DFF898A080460027FA44AAF1BE0A27
:100C10000EE0E0070AD03246684607EB47010123A1
:100C20000AEB810100F006FB8DE8070064107F1CD1
:100C3000002CEED1194F7F44AE3F19E0E80715D0E4
:100C400007EB04100DF1180A90E80E008AE80E0078
:100C5000C068F04201D1981908903246012306A9D4
:100C600003A800F0E7FA03AB83E807006D10641CEB
:100C7000002DE3D14FF0010332466946B8F1000F71
:100C800003A802D000F0C1FA01E000F0D3FAC9E9EC
:100C90000001C9F808200AB0BDE8F087E85B000051
:100CA00000487047A00100207546FFF7F9FFAE46E7
:100CB00005006946534620F00700854618B020B568
:100CC000FFF7F4FABDE820404FF000064FF00007B0
:100CD0004FF000084FF0000B21F00701AC46ACE8E4
:100CE000C009ACE8C009ACE8C009ACE8C0098D4651
:100CF000704710B50446AFF300802046BDE81040B1
:100D0000FFF7C0BA01491820ABBEFEE7260002007B
:100D100070475FEA400C08BF91F0000F4FEA8C2348
:100D20004FEAC12243EA51514FEA1C5018BF00F567
:100D3000F0404FEA300018BF41F000415FEA6C5CC0
:100D400000F02980BCF1FF3F08BF40F080407047B1
:100D5000130C06BF12044FF0100C4FF0000C130ED2
:100D600004BF12020CF1080C130F04BF12010CF1A6
:100D7000040C930F04BF92000CF1020CD30F04BFBC
:100D800052000CF1010C11464FF00002A0F11F00BF
:100D9000A0EB0C00704711F0004F08BF704731F016
:100DA00000413FF4D5AF0B0C06BF09044FF0100C07
:100DB0004FF0000C0B0E04BF09020CF1080C0B0FD6
:100DC00004BF09010CF1040C8B0F04BF89000CF166
:100DD000020CCB0F04BF49000CF1010CCCF1200335
:100DE000A0EB0C0022FA03F302FA0CF241EA030131
:100DF00000F10100704720F07F4C80EA030023F0EF
:100E00007F47ACEB070303F57C5300F0004003F190
:100E1000FF032DE980494FEA154B09B44FEA14430B
:100E200025EA0B4E24EA03480FF2042606EB1327AB
:100E300049083E785FEA320203FB0667C7F5000700
:100E400007FB06F64FEA54374FEAD64606F102068C
:100E500007FB066CCCF1005C4FEA1C472CEA074C00
:100E600007FB06F40CFB06F504EB15464FEA961655
:100E700034BF00204FF000404FEAD13706FB07FC9B
:100E80004FEA1C4C0CFB0BF7D21B03FB0CF761EB7E
:100E900007010CFB0EF7B0EB074072EB17420CFB9F
:100EA00008F734BFA2EB0742B2EB074261EB1741F0
:100EB0004FEA0C444FEA910706FB07FC4FEA1C4C33
:100EC0000CFB0BF7B0EBC74072EB573203FB0CF790
:100ED00034BFA2EBC742B2EBC74261EB57310CFB08
:100EE0000EF7B0EBC70072EB57720CFB08F734BF7C
:100EF000A2EBC702B2EBC70261EB5771039F4FEA47
:100F0000816141EA921104EBCC044FEAD1374FEAF8
:100F1000826206FB07FC42EA90124FEA80604FEAC9
:100F20001C4C0CFB0BF7D21B03FB0CF761EB07010E
:100F30000CFB0EF7B0EB074072EB17420CFB08F707
:100F400034BFA2EB0742B2EB074261EB17414FEA15
:100F50008C554FEA910704EB9C2406FB07FC4FEAF3
:100F60001C4C0CFB0BF7B0EBC74072EB573203FB8A
:100F70000CF734BFA2EBC742B2EBC74261EB57316B
:100F80000CFB0EF7B0EBC70072EB57720CFB08F7C7
:100F900034BFA2EBC702B2EBC70261EB577115EB8E
:100FA0004C254FEA816141EA92114FEA82624FEA91
:100FB000D13742EA901206FB07FC44F100044FEAE5
:100FC00080604FEA1C4C0CFB0BF7D21B03FB0CF7A9
:100FD00061EB07010CFB0EF7B0EB074072EB174219
:100FE0000CFB08F734BFA2EB0742B2EB074261EB00
:100FF000174115EB1C154FEA813141EA92414FEA46
:10100000823242EA90424FEA80304FEA0C7644F155
:10101000000448EA03434EEA0B484FF0000EB2EBDF
:10102000080C71EB030724BF624639464EEB0E0EE7
:101030004FF0000B0018524149414BEB0B0BB2EB48
:10104000080C71EB03077BF1000B24BF62463946A5
:101050004EEB0E0E4FF0000B0018524149414BEB86
:101060000B0BB2EB080C71EB03077BF1000B24BFF9
:10107000624639464EEB0E0E51EA020718BF46F0A3
:10108000010616EB0E7655F1000254F1000103D56E
:10109000BDE88901BDE80088BDE88901BDE80048D8
:1010A000B619524141EB0101A3F101037047808061
:1010B0007F7E7D7C7B7A79787776767574737271B2
:1010C00071706F6E6E6D6C6C6B6A6A69686867666A
:1010D00066656464636362616160605F5F5E5E5DFC
:1010E0005D5C5C5B5B5A5A59595858575756565570
:1010F00055555454535352525251515050504F4FD2
:101100004F4E4E4D4D4D4C4C4C4B4B4B4A4A4A4921
:101110004949484848474747474646464545454464
:101120004444444343434342424242414141002BF1
:101130009C4630D477002BD01CB54FEA370703B458
:101140004FF010004FF01001BAF1000F06D0BCF1C3
:10115000000FDCBF40F0080040F008014FF0000035
:101160000FBCBDE810400BF1010BBBF1010F08BF34
:101170005FEA170722BF12F1010211F101014FF0DE
:10118000004143F1000300F0004043EA00007047D3
:10119000F9D35708D0E746EA064613F1400F4FEA65
:1011A00016461FDD13F1200FDFBF16430A4600214C
:1011B00020335B42BED0C3F1200746EA064602FA5E
:1011C00007F74FEA164646EA0706C3F1200722FA58
:1011D00003F201FA07F721FA03F14FF0000342EAA4
:1011E0000702A7E746EA020646EA06464FEA16461F
:1011F00046EA0106BCBF46EA0646360C4FF000033D
:101200004FF000024FF0000194E72DE9804C9A4620
:10121000934670B491E8380007C831EA400C48BFE3
:1012200034EA430C03D5FFF7E6FDFFF780FFF0BC7F
:10123000BDE8008C2DE9804C9A46934670B491E845
:10124000380007C810F0804F08BF13F0804F03D15B
:1012500000F005F8FFF76BFFF0BCBDE8008C20F054
:101260007F4780EA030023F07F4C07EB0C03A3F5D4
:101270007C5300F00040A3F1FE0392F0000F00F059
:10128000B38095F0000F00F077802DE901494FEA17
:1012900011404FEA144621EA004800FB06FC24EA0C
:1012A000064708FB06F607FB08F800FB07F718EBF4
:1012B00006484CEB164C4FEA124B18EB07484FEA26
:1012C00015464CEB174022EA0B4E0BFB06FC25EAB9
:1012D00006470EFB06F607FB0EFE0BFB07F71EEBA1
:1012E000064E4CEB164C4FF000061EEB074E4CEB37
:1012F000174B18EB0B0840F1000018EB0E0B58EBE6
:10130000000840F100008F1A4FF000013CBFC943B4
:10131000661B14BFB5EB040C00213CBFC943F61B90
:101320004FEA17444EEA8E0E27EA04454FEA1C475F
:1013300004FB07622CEA074C05FB07F70CFB05F6DC
:1013400004FB0CFC16EB074642EB174216EB0C466F
:1013500042EB1C421BEB060658EB0202414146EAF7
:101360009E0601D5BDE80189B619524141EB010144
:10137000A3F10103BDE801894FEA14454FEA114783
:1013800024EA054621EA074C05FB07F406FB07F7AC
:101390000CFB06F105FB0CFC11EB074144EB174479
:1013A0004FEA124711EB0C4144EB1C4422EA074C74
:1013B00005FB07F206FB07F70CFB06F605FB0CFC2A
:1013C00016EB074642EB174216EB0C4642EB1C4568
:1013D0006A1854F1000148BF7047B619524141EBF9
:1013E0000101A3F10103704795F0000F37D04FEAD8
:1013F00011424FEA144721EA024624EA074C02FB55
:1014000007F106FB07F70CFB06F402FB0CFC14EBE0
:10141000074441EB17414FEA154714EB0C4441EBED
:101420001C4125EA074C02FB07F506FB07F70CFBFE
:1014300006F602FB0CFC16EB074645EB174516EBD0
:101440000C4645EB1C42121951F1000148BF704790
:10145000B619524141EB0101A3F1010370474FEA74
:1014600014454FEA114724EA054621EA074C05FBDB
:1014700007F106FB07F70CFB06F24FF0000605FB31
:101480000CFC12EB074241EB174112EB0C4251EB03
:101490001C4148BF7047921841EB0101A3F10103C1
:1014A0007047000070B504460068816811F0010FB4
:1014B00028D18168144A114215D18168D543294049
:1014C000491C816000F03EFD064616E0816811F07F
:1014D000010F03D181682940491C816000F032FD71
:1014E000801B022809D9E06D40F01000E065206EF5
:1014F00040F001002066012070BD20680168C943EA
:10150000C907E3D1002070BD3F000080FEE77047AF
:10151000002240F6B83306E00021491C89B2994206
:10152000FBD3521C92B28242F6D3704772B6FEE7EA
:101530002DE9F84F00270446009790F85800DFF88F
:10154000DC930D46B846012811D0012684F8586076
:10155000206802F08BF960B1E06D40F02000E0659A
:101560005FF0010784F858803846BDE8F88F022004
:10157000FBE7D5E900210C23206803EA9113184406
:10158000036B01F01F014FF01F0C0CFA01FCC2F3BA
:10159000846223EA0C038A4013430363206802F049
:1015A00065F98246206802F05DF95AEA00003CD1F4
:1015B000AA6829682068B2F1004F37D002F05AF9C2
:1015C0002068416921F00041416120686969C26871
:1015D000C2F3C102520091402A69042A31D000EBC3
:1015E00082002B68026EDFF838C303F0F84302EA8A
:1015F0000C020B431A4342F000410166226828693D
:10160000A96902EB8000026E22F080720A43026632
:10161000297F20682A69012910D0002100EB82006F
:10162000026E22F000720A4302667DE0002202F0A0
:1016300021F92068416941F00041C5E74FF0007190
:10164000ECE7002102F008F9400320684FF00001A8
:1016500072D002F001F990FAA0F0B0FA80F1286897
:1016600042036ED090FAA0F0B0FA80F0814204D12B
:1016700000221146206802F00CF90121206802F0D6
:10168000EBF8400320684FF001015DD002F0E4F870
:1016900090FAA0F0B0FA80F12868420359D090FA8D
:1016A000A0F0B0FA80F0814204D10022012120682C
:1016B00002F0EFF80221206802F0CEF84003206823
:1016C0004FF0020148D002F0C7F890FAA0F0B0FA4B
:1016D00080F12868420344D090FAA0F0B0FA80F07C
:1016E000814204D100220221206802F0D2F80321B5
:1016F000206802F0B1F8400320684FF0030133D0B6
:1017000002F0AAF890FAA0F0B0FA80F1286842033B
:101710002FD090FAA0F0B0FA80F0814204D10022DC
:101720000321206802F0B5F82068816811F0010FEC
:1017300022D0ACE000E004E002F08EF8C0F3846157
:101740008DE7C0F3846091E702F086F8C0F384610E
:10175000A2E7C0F38460A6E702F07EF8C0F38461DC
:10176000B7E7C0F38460BBE702F076F8C0F38461AA
:10177000CCE7C0F38460D0E72A7B296850F8B03FFB
:10178000C1F3120C23EA0C0302F0180C654A22FA8A
:101790000CF20A4013430360E968494577D1286891
:1017A00041031CD090FAA0F1B1FA81F1491C01F07B
:1017B0001F0109294FEA403132D8002912D000BF59
:1017C00090FAA0F1B1FA81F101F1010101F01F01DC
:1017D00006FA01F609D100BFC0F3846109E0C0F345
:1017E0008461E3E7C0F38461EEE790FAA0F1B1FA17
:1017F00081F101F1010101F01F0146EA816102D18D
:10180000C0F3846003E090FAA0F0B0FA80F000F139
:10181000010000F01F0000EB400041EA005132E0FF
:1018200000290ED090FAA0F1B1FA81F101F1010185
:1018300001F01F0106FA01F606D100BFC0F3846172
:1018400006E0C0F38461F1E790FAA0F1B1FA81F10A
:1018500001F1010101F01F0146EA816102D1C0F3EB
:10186000846003E090FAA0F0B0FA80F000F101008B
:1018700000F01F002C4A00EB400002EB005041EA50
:10188000000141F00071AA68206801F0F3FF2748C9
:101890002A6802423FF466AE25488168254B01F074
:1018A000E0719A4202D0244B9A421BD10B0219D408
:1018B0002268B2F1A04F7FF455AE826841F4000176
:1018C00022F0E0720A4382601C481D490068B0FBA8
:1018D000F1F000EB4000800000E0401E0090002886
:1018E000FBD13FE6174D184BAA4207D1CD0105D4D5
:1018F00022689A42F5D041F0807109E0134DAA4266
:10190000EFD14A02EDD422689A42EAD041F4800134
:10191000826822F0E0720A43826023E600007F4082
:1019200000F0FF03FFFF0700000020FE000008801A
:1019300000030050000021C31000C09010000020E0
:10194000400D0300000052C700010050000084CB8E
:101950000068006C70470000F8B54FF00005040007
:101960002E46009502D0E06D10B107E00120F8BDD1
:10197000204600F0EDF8266684F8586020688168FB
:10198000C1F3407119B18168694A114081602068D2
:101990008168C1F3007179B98168664A114041F0EC
:1019A00080518160644865490068B0FBF1F000E057
:1019B000401E00900028FBD120688168C1F30071AF
:1019C00041B9E16D41F01001E165216E41F0010185
:1019D0002166012501F04AFFE16DC90600D430B14E
:1019E000E06D40F01000E06501252846F8BDE06D8F
:1019F00020F4807040F00200E0652068806810F0FC
:101A0000010F11D14FF0A04080684D4900F0010056
:101A1000896801F00101084306D14A48616882687B
:101A200022F47C120A438260E168E06B627F084323
:101A3000A16841EA4231084394F8241040EA014089
:101A4000012904D1218D404A02EB41410843E16A5A
:101A500029B101F47871226B014342EA0100216847
:101A6000CA683A4B1A400243CA6020680169626B37
:101A700021F0406111430161206801F0F7FE064644
:101A8000206801F0EFFE30432ED1207F94F838100B
:101A9000800340EA41022068C16844F2020399438E
:101AA0001143C16020690028206801690AD041F40F
:101AB00080310161206850F8C01F22696FF30D0169
:101AC000114307E021F480310161206850F8C01F04
:101AD0006FF30D01016094F8400001280CD02068DC
:101AE000016921F001010161606901282068016B31
:101AF00021F00F0111D013E0D4E911010843D4E91A
:101B000013121143084321680A6940F2FC739A4397
:101B1000104340F001000861E6E7226A521E1143BB
:101B20000163E06D20F0020040F00100E0655CE739
:101B3000C0FFFF5FC0FFFF7F10000020400D0300CB
:101B400000010050000300500000FEFF0740F0FFBE
:101B500010B598B00446142111A8FEF70DFD4421DC
:101B60006846FEF709FD15492068884223D1C40163
:101B7000400500940F90684600F0E2FA08B1FFF7C4
:101B8000D5FC0F48C16C41F40051C164C16C01F433
:101B900000511691C16C41F00201C164C06C11A9E1
:101BA00000F0020016900320CDE9114000201390B0
:101BB000044800F0D1F818B010BD0000000100503A
:101BC00000100240000400482DE9F0410446384866
:101BD000806800F01F05206801F048FE18B102215E
:101BE0000846BDE8F08194F8580001280CD0012087
:101BF00084F858002046FFF755FC01004FF0000321
:101C000004D084F85830EBE70220EAE7E06D40F6B4
:101C10000162904340F48070E065264A20684FF0EE
:101C2000A046904201D1374600E00746874200D0E7
:101C30001DB9E76D27F48017E765E76DFF0404D54C
:101C4000276E27F00607276600E023661C2707603B
:101C500084F858302068904201D1334600E00346B2
:101C6000834215D0A5B1052D12D0092D10D0E36DFA
:101C700043F48013E365904200D13046C068800190
:101C8000AED5E06D20F4005040F48050E065A7E749
:101C9000C268920105D5E26D22F4005242F48052EE
:101CA000E2658268044B1A40121D826098E70000CA
:101CB0000003005000010050C0FFFF7F70B590F896
:101CC0002520002401212346022A07D00422C263D2
:101CD00080F8251080F82430012429E00268156876
:101CE00025F00E0515600268156825F001051560E0
:101CF000826C156825F48075156090F84420056C99
:101D000002F01F0201FA02F26A60D0E91325556061
:101D1000426D32B1156825F480751560D0E916253D
:101D2000556080F8251080F82430816B01B1884718
:101D3000204670BD70B5044600F004F90546601CED
:101D400002D004484068044400F0FCF8401BA04264
:101D5000FAD370BD040000202DE9FC4FDFF8A0A1EC
:101D6000002301250AF1040B03244FF00F0C0BF1A3
:101D7000040EBDE005FA03F632406FD04F68012F24
:101D800005D0022F03D0112F01D0122F17D1D0F878
:101D900008905F0004FA07F829EA08090097D1F8CB
:101DA0000C8008FA07F848EA0908C0F80880476874
:101DB000B7430E79C6F300169E403E434660C668A0
:101DC0004FEA430804FA08F7BE4301978F6807FA01
:101DD00008F73743C7604E68022E01D0122E13D188
:101DE000DE0800EB86060096366A5F07FF0E0CFAE7
:101DF00007F926EA0906D1F8109009FA07F949EA25
:101E00000609009EC6F820900668019FBE430F7920
:101E100007F0030707FA08F7374307604E68F60034
:101E200065D5384E376E47F001073766366E23F0BA
:101E3000030706F001060096334E3E44B146B668ED
:101E40009F074FEA17780CFA08F7BE43B0F1904F9E
:101E500005D02E4FB84204D1012717E047E00027F4
:101E600014E02B4FB84201D102270FE0294FB842AE
:101E700001D103270AE0284FB84201D1042705E029
:101E8000264FB84201D1052700E0062707FA08F7D8
:101E90003743C9F80870DAF800605746D1F8048073
:101EA00096435FEAC83800D516433E60DBF8006011
:101EB0005F46D1F8048096435FEA883800D5164320
:101EC0003E60DEF800607746D1F8048096435FEA12
:101ED000C82800D516433E60094F0C373E68D1F83C
:101EE000048096435FEA882800D516433E605B1C59
:101EF0000A6832FA03F67FF43DAFBDE8FC8F0000BC
:101F000000040140001002400000014000040048AD
:101F100000080048000C0048001000480014004869
:101F20000069084000D00120704742690A4201D090
:101F300081627047816170470AB181617047816237
:101F400070470000014880687047000004000020CE
:101F50000248816842681144816070470400002093
:101F600010B50024032000F073F80F2000F008F8EB
:101F700008B1012401E000F025F8204610BD000062
:101F800070B50E4E05460024706898B14FF47A7112
:101F9000B1FBF0F00A490968B1FBF0F000F0A8FDD0
:101FA00040B9102D06D200222946501E00F030F80C
:101FB000356000E00124204670BD000004000020D0
:101FC000100000200A4882B0016E41F00101016654
:101FD000016E01F001010091816D41F08051816538
:101FE000806D00F08050009002B000F0A1B80000B9
:101FF00000100240002809DB00F01F02012191407F
:102000004009800000F1E020C0F800117047000096
:10201000F0B40E4B1B680C46C3F30223C3F1070553
:10202000042D00D90425191D072901D2002300E041
:10203000DB1E012606FA05F1491E214099409E400B
:10204000761E16403143F0BC02F049BE0CED00E0B4
:10205000064900F0070208684FF6FF03184040EAFF
:102060000220034A10430860704700000CED00E0B6
:102070000000FA052B492C4B0A6832214A432B49B0
:1020800040B1B0F5007F086829D020F4C06040F46A
:1020900080602CE00868C0F34120022804D051F889
:1020A000800F20F4807022E0D1F8800020F480704E
:1020B000C1F88000086820F4C06040F40070086037
:1020C000B2FBF3F0401C00E0401E4A69520501D506
:1020D0000028F9D1486940050AD503207047C0F3AC
:1020E0004120022806D051F8800F40F4807008602B
:1020F00000207047D1F8800040F48070C1F8800063
:10210000086820F4C06040F400700860B2FBF3F08F
:10211000401C00E0401E4A695205DBD50028F9D179
:10212000D8E700001000002040420F00007000407F
:102130000248816841F4804181607047007000402E
:102140002DE9F8430446006800269D4D00035ED546
:10215000A86D0027C00008D4A86D40F08050A86585
:10216000A86D012700F080500090DFF85892D9F850
:10217000001041F48071C9F80010FFF7E3FE8046BB
:1021800006E000BFFFF7DEFEA0EB080002282BD818
:10219000D9F80000C005F5D5D5F8900010F44070CE
:1021A00014D0216C814211D0D5F89000D5F8901050
:1021B00020F4407041F48031C5F89010D5F89010AB
:1021C00021F48031C5F89010C5F89000C00711D0F7
:1021D000FFF7B8FE804641F2883907E0FFF7B2FE0C
:1021E000A0EB0801494501D903260BE0D5F8900082
:1021F0008007F3D5D5F89000216C20F44070084397
:10220000C5F890001FB1A86D20F08050A865207817
:10221000C00707D0D5F88800616820F003000843A4
:10222000C5F888002078800707D5D5F88800A16810
:1022300020F00C000843C5F888002078400707D537
:10224000D5F88800E16820F030000843C5F8880020
:102250002078000707D5D5F88800216920F0C00054
:102260000843C5F888002078800607D5D5F888008F
:10227000616920F440600843C5F888002078400672
:1022800007D5D5F88800A16920F440500843C5F867
:1022900088002078000607D5D5F88800E16920F489
:1022A00040400843C5F888002088C00507D5D5F808
:1022B0008800216A20F440300843C5F8880020884F
:1022C000800507D5D5F88800616A20F440200843CE
:1022D000C5F88800208840050FD5D5F88800A16A88
:1022E00020F440100843C5F88800A06AB0F5801FAC
:1022F00003D1E86840F48010E860208800050FD51D
:10230000D5F88800E16A20F440000843C5F8880049
:10231000E06AB0F5800F03D1E86840F48010E8600F
:102320002088C0040FD5D5F88800216B20F04070BC
:102330000843C5F88800206BB0F1807F03D1E868BE
:1023400040F48010E86020884FF0006180040ED5D2
:10235000D5F88800626B20F040601043C5F8880013
:10236000606B884203D1E86840F48010E860208800
:1023700040040ED5D5F88800A26B20F040601043D1
:10238000C5F88800A06B884203D1E86840F480104B
:10239000E860208800040FD5D5F88800E16B20F0B4
:1023A00040500843C5F88800E06BB0F1805F03D16E
:1023B000E86840F48030E8603046BDE8F88300000B
:1023C00000100240007000402DE9F0470E46050065
:1023D0004FF0000725D0DFF8AC81D8F8000000F0FE
:1023E0000F00B0420CD2D8F8001021F00F01314399
:1023F000C8F80010D8F8000000F00F00B04210D16B
:102400002968614CC80741F2883A5AD06868DFF8F9
:102410007C91032808D0022820682DD04005002890
:102420002CDB0120BDE8F08720688001F9D5E06849
:1024300000F00302E068C0F30310401C032A19D027
:10244000534A00BFB2FBF0F0E268C2F306225043E9
:10245000E268C2F34162521C5200B0FBF2F0484500
:1024600017D9A06810F0F00F0CD0880711D5A86814
:1024700040B10EE0474AE5E78003D0E700F0B6F848
:10248000484506D9A06820F0F00040F08000A06028
:102490008027A068696820F003000843A060FFF768
:1024A00051FD814606E000BFFFF74CFDA0EB09019E
:1024B00051453AD8A068696800F00C00B0EB810F74
:1024C000F2D12868810714D5400703D5A06840F4ED
:1024D000E060A0602878000705D5A06820F460506F
:1024E00040F4E060A060A068A96820F0F000084314
:1024F00004E0802F03D1A06820F0F000A060D8F89D
:102500000010404601F00F01B14216D9016821F0D8
:102510000F0131430160FFF715FD074607E000BFDB
:10252000FFF710FDC11B514501D903207AE7D8F808
:10253000000000F00F00B042F2D12878400705D526
:10254000A068E96820F4E0600843A06028780007EC
:1025500006D5A068296920F4605040EAC100A06057
:1025600000F044F8A1680C4AC1F30311515C01F07A
:102570001F01C8400949086009480068BDE8F047E4
:10258000FFF7FEBC002002400010024000B4C4046B
:102590000024F40000127A004E55000810000020BC
:1025A000040000200548064900688968054AC1F30F
:1025B0000221515C01F01F01C8407047100000204B
:1025C000001002405E550008054806490068896809
:1025D000054AC1F3C221515C01F01F01C840704798
:1025E00010000020001002405E550008184910B588
:1025F0008868C0F381021748012A0BD08A6843100B
:10260000C2F38102022A06D08A68C2F38102032A39
:1026100003D0002010BD184610BDCA6802F00304A4
:10262000CA68C2F30312521C032C02D0B0FBF2F0B2
:1026300001E0B3FBF2F0CA68C968C2F30622504356
:10264000C1F34161491C4900B0FBF1F010BD00002D
:10265000001002400024F4002DE9F84304007AD071
:102660002078FA4DC00747D0A868E96800F00C0050
:1026700001F003010C2802D0082817D001E003293B
:1026800014D06068B0F5803F17D0B0F5A02F28684F
:1026900017D020F480302860286820F4802028603B
:1026A0006068E0B1FFF74EFC064614E0286880033E
:1026B00022D560680028D2D01EE0286840F480301F
:1026C000EDE740F480202860F7E700BFFFF73AFC11
:1026D000801B642870D828688003F7D50CE0FFF7CA
:1026E00031FC064605E000BFFFF72CFC801B642888
:1026F000F0D828688003F7D4207880074CD5A868E4
:10270000E96800F00C0001F003010C2802D0042855
:102710000DD001E002290AD0E068002828682BD0FB
:1027200040F480702860FFF70DFC064619E0286829
:10273000400502D5E068002891D06868217C20F02F
:10274000FE4040EA01606860C1480068FFF718FC7D
:10275000002800D120E076E1FFF7F4FB801B02287F
:10276000B8D828684005F7D56868217C20F0FE407D
:1027700040EA016068600FE020F480702860FFF795
:10278000E1FB064605E000BFFFF7DCFB801B0228EB
:10279000A0D828684005F7D42078000729D56069BB
:1027A0000028D5F8940013D040F00100C5F894003B
:1027B000FFF7C8FB064606E090E000BFFFF7C2FB4C
:1027C000801B022886D8D5F894008007F6D510E043
:1027D00020F00100C5F89400FFF7B4FB064604E0C2
:1027E000FFF7B0FB801B022878D8D5F8940080074B
:1027F000F6D42078400761D5A86D0026C00008D423
:10280000A86D40F08050A865A86D012600F08050AA
:10281000009090480168C90511D40168804641F4D0
:1028200080710160FFF78EFB074604E0FFF78AFB2B
:10283000C01B022852D8D8F80000C005F6D5A06801
:10284000012815D00528D5F8900016D020F00100F9
:10285000C5F89000D5F8900020F00400C5F890006D
:10286000A06841F28838B8B1FFF76CFB07460EE06C
:10287000D5F8900040F00100F0E740F00400C5F802
:102880009000F5E7FFF75EFBC11B414526D8D5F860
:1028900090008007F6D50CE0FFF754FB074604E0F4
:1028A000FFF750FBC11B414518D8D5F890008007B1
:1028B000F6D41EB1A86D20F08050A865207880065F
:1028C00029D5A0690028D5F8980013D040F0010060
:1028D000C5F89800FFF736FB064606E077E000BF34
:1028E000FFF730FB801B022877D8D5F898008007C7
:1028F000F6D510E020F00100C5F89800FFF722FBA4
:10290000064604E0FFF71EFB801B022865D8D5F8B9
:1029100098008007F6D4E069F0B3A968C1F381019B
:10292000032961D00228286820F0807028600BD02D
:10293000E86820F00300E860E86847490840E8607C
:10294000FFF700FB04464BE0FFF7FCFA064604E005
:10295000FFF7F8FA801B02283FD828688001F7D4D7
:10296000F4E908016FF00F0202EB01110843218A1C
:102970005204490802EB4151A26841EA022108438E
:10298000217D4FF07E42490802EB41610843217BE3
:1029900040EAC160E96800E062E0304A1140084363
:1029A000E860286840F080702860E86840F0807037
:1029B000E860FFF7C7FA044605E000BFFFF7C2FA78
:1029C000001B022809D828688001F7D548E004E0F8
:1029D000FFF7B8FA001B022802D90320BDE8F883EC
:1029E00028688001F4D43BE00128F7D0E868226A27
:1029F00000F00301914226D1616A00F0F002090162
:102A0000103991421FD1A26A00F4FE41B1EB022FAE
:102A100019D194F82C2000F07841B1EBC26F12D19B
:102A2000218E00F4C00249084905A1F50011914228
:102A300009D194F8341000F0C06049084906A1F1AA
:102A4000007181420CD00120C8E700000010024054
:102A50000400002000700040FFFFEEFE0C809F018C
:102A60000020BBE72DE9F0411D4616460F46040045
:102A700003D0D4F8800018B108E00120BDE8F0814F
:102A8000002084F87C00204600F0E4FB2420C4F8F9
:102A900080002068016821F001010160204601F0FA
:102AA00073FC0128EAD0A06A10B1204601F0BCFAFC
:102AB0002068816841F4804181602068816821F448
:102AC000004139438160700540EA05412068026891
:102AD000064B1A400A4302602068016841F0010178
:102AE00001602046BDE8F04101F002BBFFFF00FCA1
:102AF00010B5401EB0F1807F01D3012010BD4FF012
:102B0000E02460610F21601702F0E9F80020A06165
:102B100007202061002010BD704770477047704744
:102B200070477047F0B590F83C20012A3AD0012553
:102B300080F83C50022280F83D2003685A689C6867
:102B4000194E1A4FB34201D0BB4204D122F4700C8B
:102B50004A6842EA0C02DFF858C002EA0C02D1F8D7
:102B600000C04CEA020CC3F804C00268B2420DD0A7
:102B7000B2F1804F0AD00F4B9A4207D00E4B9A42C7
:102B800004D0BA4202D00D4B9A4204D1896824F095
:102B900080031943916080F83D50002180F83C107B
:102BA0000846F0BD0220F0BD002C01400034014079
:102BB0008FFFFFFD0004004000080040004001407E
:102BC000704710B5040003D094F83D0010B107E041
:102BD000012010BD002084F83C00204600F022F8BF
:102BE000022084F83D00211D206801F05BF90120DE
:102BF00084F8480084F83E0084F83F0084F84000E0
:102C000084F8410084F8420084F8430084F84400CA
:102C100084F8450084F8460084F8470084F83D00B5
:102C2000002010BD08B500680F4988421AD10F482E
:102C3000016E41F400610166006E002200F4006044
:102C4000009011461920FFF7E3F91920FFF7D2F998
:102C5000002211461A20FFF7DBF9BDE808401A20D0
:102C6000FFF7C8B908BD0000002C01400010024069
:102C700090F83D10012901D001207047022180F811
:102C80003D100168CA6842F00102CA6000688168AC
:102C9000064A1140062906D0B1F5803F03D00168ED
:102CA00041F00101016000207047000007000100B1
:102CB00070B5044690F83C00012815D0012584F831
:102CC0003C50022084F83D0022689068354B184043
:102CD00020F47F4090600868B0F5805F50D010DC31
:102CE00010F00F0F03D04BE04FF0020070BD4FEA21
:102CF0002012082A44D2DFE802F0515151514932E2
:102D00003A1B294BC21A984248D00ADCB0F5005F42
:102D100019D0B0F1101F41D0A0F5801120392FD16A
:102D20003CE0102A3AD0302A38D0402A28D135E069
:102D3000CB68D1E90121206801F00CF92068816895
:102D400041F0770109E0CB68D1E90121206801F069
:102D500001F92068816841F48041816010E0CA680F
:102D60004968206801F00AF95021206806E0CA6825
:102D70004968206801F013F96021206801F0F4F837
:102D800084F83D50002084F83C0070BDCA68496852
:102D9000206801F0F3F840212068EFE7226801463F
:102DA0001046EBE788FFCEFF30001000704770B58B
:102DB0000446006801694FF00005C943890715D42E
:102DC000C168C943890711D4E91E01610120207738
:102DD000206880698007204602D0FFF7E7FF04E003
:102DE00000F0E3F8204600F0E1F82577206801695B
:102DF000C943490717D4C168C943490713D46FF0C1
:102E000004010161022020772068806910F4407F6E
:102E1000204602D0FFF7CAFF04E000F0C6F82046C3
:102E200000F0C4F8257720680169C943090716D462
:102E3000C168C943090712D46FF008010161042079
:102E400020772068C0698007204602D0FFF7AEFFD8
:102E500004E000F0AAF8204600F0A8F825772068E2
:102E60000169C943C90617D4C168C943C90613D447
:102E70006FF010010161082020772068C06910F40C
:102E8000407F204602D0FFF791FF04E000F08DF86C
:102E9000204600F08BF8257720680169C943C907EF
:102EA00008D1C168C943C90704D1891E0161204600
:102EB00000F07EF820680169C943090609D4C16899
:102EC000C943090605D46FF0800101612046FFF770
:102ED00024FE20680169C943C90509D4C168C943F2
:102EE000090605D46FF4807101612046FFF714FED6
:102EF00020680169C943490609D4C168C943490624
:102F000005D46FF040010161204600F065F82068AB
:102F10000169C943890609D4C168C943890605D432
:102F20006FF0200101612046FFF7F8FD206801697C
:102F3000C943C90209D4C168C943C90205D46FF4A1
:102F4000801101612046FFF7EBFD20680169C9434C
:102F5000890209D4C168C943890205D46FF40011FC
:102F600001612046FFF7DBFD20680169C943490282
:102F700009D4C168C943490205D46FF480010161D5
:102F80002046FFF7CEFD20680169C94309020BD432
:102F9000C168C943090207D46FF4000101612046EA
:102FA000BDE87040FFF70CBE70BD70477047000071
:102FB00000680749884209D106480179002905D0EF
:102FC000C189491CC181C178491CC170704700008A
:102FD000002C014014000020704790F87C1001295B
:102FE00018D0012180F87C102421C0F8801050F8FE
:102FF000601B0A680B6823F001030B6022F000518C
:103000000022426050F8603C196020210162027782
:103010001046704702207047704770B5044690F81C
:103020007C0001281DD0012084F87C002420C4F8F5
:10303000800020680568026822F0010202602068B2
:10304000826822F060620A438260204600F0BAFF84
:10305000206805602020C4F88000002084F87C00EF
:1030600070BD022070BD70B5044690F87C00012848
:103070001DD0012084F87C002420C4F88000206842
:103080000568026822F0010202602068826822F06E
:1030900060420A438260204600F094FF2068056089
:1030A0002020C4F88000002084F87C0070BD02203D
:1030B00070BD7047704770472DE9F04103680446C2
:1030C000D8691A68996810F00F0F4FF0000569D0A1
:1030D0005E4E02F490770E4037437DD0C70709D08B
:1030E000D70507D501271F62D4F8883043F00103C4
:1030F000C4F8883083070AD5CB0708D02768022395
:103100003B62D4F8883043F00403C4F888304307A6
:103110000AD5CB0708D0276804233B62D4F888304F
:1031200043F00203C4F8883003070CD502F02003F3
:10313000334308D0266808233362D4F8883043F03C
:103140000803C4F88830D4F88830002B3CD08006BF
:1031500009D502F0200001F08051084303D0E16E50
:1031600009B120468847D4F8880021688968490653
:1031700001D400072AD5204600F0F4FF20688168BA
:1031800049061ED5816821F040018160A06FC0B161
:103190002F498163A06FFEF791FD002814D0A06F26
:1031A000816B0AE0860617D502F0200601F08057F1
:1031B0003E4311D0E16E24E02046BDE8F0410847CF
:1031C0000AE02046FFF777FFBDE8F0812046FFF7D1
:1031D00072FFC4F88850F7E7C60209D54E0207D53A
:1031E0004FF4801018622046BDE8F041FFF762BF3F
:1031F000060609D502F0800601F400010E4303D053
:10320000216F0029D8D1DFE741060DD551060BD536
:103210001968204621F0400119602021C4F880106F
:10322000256700F03AF9CFE7010206D5510004D531
:103230002046BDE8F041FFF73CBFC001C4D5002ADD
:10324000C2DA2046BDE8F041FFF7E6BE01000010FB
:103250004F41000810B598B00446142111A8FDF79D
:103260008BF944216846FDF787F91B49206888429D
:1032700030D101200024CDE900046846FEF760FF4C
:1032800008B1FEF753F91548016E41F4804101661B
:10329000016E01F480411691C16C41F00101C164DD
:1032A000C06C11A900F0010016904FF4B0501190BD
:1032B0000220CDE912040720CDE914404FF09040E0
:1032C000FEF74AFD00220E212520FEF7A1FE252053
:1032D000FEF790FE18B010BD00380140001002400B
:1032E00070B5D0F88430202B6DD1B9B1B2B190F85F
:1032F0007C30012B67D0012380F87C308165A0F8F9
:103300005C20A0F85E200021C16683684FF48056DF
:10331000FF24B34207D1036913B11CE0012070BD43
:1033200040F2FF131DE07F259BB1B3F1805F15D004
:10333000A0F86010C0F888102223C0F88430036819
:103340009C6844F001049C60436EB3F1005F0ED0B2
:1033500027E0036943B9A0F86040EBE703691BB1BC
:103360003F23A0F86030E5E7A0F86050E2E7B0F84E
:103370006830934215D88268B24201D1026972B1B5
:10338000124AC26680F87C1001680A6842F48072B2
:103390000A600068816841F0805181600FE00C4A4A
:1033A000EFE78268B24201D1026952B1094AC266AE
:1033B00080F87C100068016841F490710160002081
:1033C00070BD054AF3E7022070BD0000E942000825
:1033D000E9410008894200088941000870472DE949
:1033E000F8430446D0F880001F4616460D462028B4
:1033F00051D1DDB1D6B194F87C0001284BD0012029
:1034000084F87C004FF00008C4F888802120C4F8BC
:1034100080001834FEF796FDA6878146E68754F8AB
:10342000100C183CB0F5805F03D004E00120BDE82B
:10343000F883206910B12E46002510E000260EE02A
:103440008021204601F073FBB8B9C6B116F8010B14
:1034500021688862B4F85600401EA4F85600B4F8FB
:1034600056004B464FF0000200970028E8D14FF07D
:103470004001204601F05BFB30B10320D7E735F86F
:10348000020BC0F30800E3E72020C4F8800084F8B2
:103490007C800020CBE70220C9E77047FEE70000F0
:1034A00000B585B014216846FDF766F84FF6FF7049
:1034B000009000200321CDE90201019069460248F5
:1034C000FEF74AFC05B000BD0008004800B585B015
:1034D00014216846FDF750F84FF6FF700090012068
:1034E0000190032003900020029069460248FEF7F5
:1034F00033FC05B000BD00000008004870B5002492
:1035000006462146204600F003F900F041F94FF449
:103510009635304600F010F9641CAC42F9D370BD0A
:1035200030B587B014216846FDF726F81E48C16CF7
:1035300041F00401C164C16C01F004010591C16C4A
:1035400041F00101C164C16C01F001010591C16C40
:1035500041F00201C164C06C012500F00200059039
:103560004FF44870CDE900050024039469460294A5
:103570000E48FEF7F1FB280203940090CDE90154B8
:103580004FF0904469462046FEF7E6FBFFF79EFFAA
:10359000A06940F48070A06104481830016841F4CB
:1035A0000871016007B030BD0010024000040048FF
:1035B000203AD2B2034B02EB420203EB021200F0BC
:1035C00019B8000066550008F0B50E4607460025FC
:1035D00040F23F1407E021463846FFF7E9FF103C70
:1035E0006D1CA4B2761C3278002A01D0142DF2D3BF
:1035F000F0BD00002DE9F04791468A4600260446BA
:1036000000F086F8DFF84080012700BF00F0C0F826
:103610005FF0000539F8160007FA05F10842404648
:1036200001D1408800E0008800F086F86D1C102D64
:10363000F0D3641CE4B25146204600F069F8761CD1
:10364000182EE3D3BDE8F0872C00002010B5FFF75B
:1036500067FF002000F014F8084CA080A088A0F5B7
:103660000241303906D000F0C9FA002000F008F815
:10367000A08010BD00F039FAF7E700002C00002010
:1036800070B51D490A6842F400720A600A6842F483
:1036900080720A60184C103C226842F020022260BE
:1036A000164A1060086840F02000086000BF00BFA4
:1036B00000BF206840F020002060206840F4807047
:1036C0002060FFF7EDFE4FF09041886A40F4807073
:1036D000886200BF00BF00BF0848001F006885B2B5
:1036E000886940F480708861FFF7F0FE206840F43C
:1036F00000702060284670BD280400481408004867
:1037000001B5BDF800000149488008BD2C0000202B
:1037100010B50C460146202000F068F82146BDE8AF
:103720001040212000F062B801B5BDF80000014949
:10373000088008BD2C000020134A116841F4007174
:103740001160114910390B6843F480730B600B68EA
:1037500043F020030B600D4B1860106840F0200010
:10376000106000BF00BF00BF086840F02000086084
:10377000086840F48070086000BF00BF00BF0868A0
:1037800040F400700860704728040048140800489E
:103790001449086840F400700860086840F48070BC
:1037A000086010481038026842F0200202600E4B98
:1037B00022221A600A6842F020020A6000BF00BF9D
:1037C00000BF016841F020010160016841F480718F
:1037D000016000BF00BF00BF016841F400710160DB
:1037E000704700002804004814080048184B10B522
:1037F0001A6842F400721A601A6842F480721A6001
:10380000134A103A146844F020041460114C2060EC
:10381000186840F02000186000BF00BF00BF1068AB
:1038200040F020001060106840F48070106021604B
:10383000186840F02000186000BF00BF00BF10688B
:1038400040F020001060106840F48070106010BDDF
:10385000280400481408004800EB8100006E00F0C6
:10386000F84070478068C0F3C00070478068C0F3BC
:1038700080007047042303EAD15310B5184443690C
:10388000C1F3045107248C40A3438A40134343618E
:1038900010BD00EB8100016E21F000411143016673
:1038A0007047000030B589B020216846FCF764FEFF
:1038B00019481849002401604902C0E90114C46094
:1038C00004250461C0E905450477447701210162BC
:1038D00080F82440C462046380F83840C46380F8F0
:1038E0004040FEF739F808B1FDF720FE0B48009084
:1038F00006200190022002907F200594CDE9030567
:1039000069460548FDF714FE002801D0FDF70EFEBC
:1039100009B030BD000100505C0000200080F03E86
:10392000F0B587B014216846FCF726FE3248C16C1A
:1039300041F00401C164C16C01F004010591C16C46
:1039400041F02001C164C16C01F020010591C16CFE
:1039500041F00101C164C16C01F001010591C16C2C
:1039600041F00201C164C16C01F002010591C16C1A
:1039700041F00801C164C06C204E00F008004FF413
:103980006F440590002221463046FEF7D5FA1C4FC1
:10399000002204213846FEF7CFFA0125CDE9004583
:1039A00000240294694630460394FEF7D5F9CDE928
:1039B000005469464FF090400294FEF7CDF907207D
:1039C000CDE9000469460F480294FEF7C5F92803C3
:1039D00000900D48CDE9010469463046FEF7BCF978
:1039E00004200090CDE90154694638460394FEF75F
:1039F000B3F907B0F0BD0000001002400008004815
:103A0000000C0048000400480000111010B588B0F8
:103A10000024184805940694039404940094019497
:103A200013490294C0E900144FF6FF71C0E9024146
:103A3000046144618461FFF7C4F808B1FDF776FDC5
:103A40004FF48050039003A90A48FFF731F908B1F9
:103A5000FDF76CFD00940194694606480294FFF757
:103A600061F8002801D0FDF761FD08B010BD00002D
:103A7000002C0140C8000020194810B5174901600A
:103A80004FF416514160002181600C22C160C0E9F1
:103A900004128161C161016241620B460A46816282
:103AA000FEF7E0FF08B1FDF741FD00210C48FFF7EC
:103AB000DAFA08B1FDF73AFD00210948FFF7ADFA3F
:103AC00008B1FDF733FD0648FFF787FA002803D059
:103AD000BDE81040FDF72ABD10BD000000380140D0
:103AE00014010020FEE7FEE7704730B501210020F9
:103AF000FFF77CFE4FF47A70FDF70AFD00210120EC
:103B0000FFF774FE41F290711020FFF76FFE4FF443
:103B10001C516020FFF76AFE01216120FFF766FE5D
:103B200002214620FFF762FE48F210011320FFF742
:103B30005DFE48F2FE011220FFF758FE4FF4A0612F
:103B40000220FFF753FE41F230010320FFF74EFE43
:103B500040F2033421463020FFF748FE2146312051
:103B6000FFF744FE21463220FFF740FEE51E2946BE
:103B70003320FFF73BFE03213420FFF737FE2146B9
:103B80003520FFF733FE14213620FFF72FFE2146A4
:103B90003720FFF72BFE21463820FFF727FE21466E
:103BA0003920FFF723FE29463A20FFF71FFE0321A5
:103BB0003B20FFF71BFE21463C20FFF717FE4FF48A
:103BC000A0513D20FFF712FE4FF400719220FFF745
:103BD0000DFE21469320FFF709FE40F60D019020CF
:103BE000FFF704FE41F218010320FFF7FFFDBDE8D7
:103BF000304040F273110720FFF7F8BD10B543F2D3
:103C00000801E320FFF7F2FD1221E720FFF7EEFDA8
:103C100041F23121EF20FFF7E9FD00210120FFF7FC
:103C2000E5FD4FF4E0610220FFF7E0FD41F23001D5
:103C30000320FFF7DBFD00210420FFF7D7FD40F252
:103C400007210820FFF7D2FD00210920FFF7CEFD54
:103C500000210A20FFF7CAFD00210C20FFF7C6FD56
:103C600000210D20FFF7C2FD00210F20FFF7BEFD50
:103C700000211020FFF7BAFD07211120FFF7B6FD44
:103C800000211220FFF7B2FD00211320FFF7AEFD47
:103C9000C820FEF74FF841F290611020FFF7A6FD13
:103CA00040F227211120FFF7A1FD3220FEF742F854
:103CB0001D211220FFF79AFD3220FEF73BF84FF44A
:103CC00000611320FFF792FD14212920FFF78EFDDC
:103CD0000B212B20FFF78AFD3220FEF72BF8002165
:103CE0002020FFF783FD00212120FFF77FFD072122
:103CF0003020FFF77BFD40F207713120FFF776FDA2
:103D000006213220FFF772FD40F204713520FFF7E3
:103D10006DFD41F604713620FFF768FD0421372060
:103D2000FFF764FD00213820FFF760FD40F20671C7
:103D30003920FFF75BFD40F201713C20FFF756FD93
:103D40000F213D20FFF752FD00215020FFF74EFDCF
:103D5000EF215120FFF74AFD00215220FFF746FDD9
:103D600040F23F115320FFF741FD4FF41C516020FA
:103D7000FFF73CFD01216120FFF738FD00216A209B
:103D8000FFF734FD00218020FFF730FD0021812066
:103D9000FFF72CFD00218220FFF728FD0021832062
:103DA000FFF724FD00218420FFF720FD002185205E
:103DB000FFF71CFD10219020FFF718FD0021922035
:103DC000FFF714FD03219320FFF710FD4FF48871D6
:103DD0009520FFF70BFD00219720FFF707FD00213D
:103DE0009820FFF703FD41F218010320FFF7FEFCC6
:103DF000BDE8104040F273110720FFF7F7BC704791
:103E0000FEF7A6B800B593B038216846FCF7B4FBBE
:103E100014210EA8FCF7B0FB4FF40070FEF72AF94E
:103E20000220C1010391402104910121CDE9080143
:103E300000900A21CDE90A1007900C900D90684679
:103E4000FEF70AFC08B172B6FEE70F200E900320C1
:103E50000F90002010901190129002210EA8FEF7F2
:103E6000B3FA002801D072B6FEE713B000BD00001F
:103E70000548016841F47001016003494FF000609A
:103E8000803908607047000088ED00E00148FEF7C7
:103E90008EBF0000C80000200148FEF788BF000068
:103EA000C80000202DE9F0430268234B234D244E27
:103EB000244C4FF08049984207D0484505D0A8428D
:103EC00003D0B04201D0A04203D122F070074A686B
:103ED0003A431D4FDFF874C0DFF8748098420DD06C
:103EE00048450BD0A84209D0B04207D0A04205D027
:103EF000B84203D0604501D0404503D122F440755B
:103F0000CA682A434D6922F080022A4302608A6807
:103F1000C2620A688262984207D0A04205D0B842C5
:103F200003D0604501D0404501D1096901630121F9
:103F30004161BDE8F0830000002C01400004004016
:103F400000080040003401400040014000440140AE
:103F50000048014010B5846842EA032224F47F44FB
:103F60000A432243826010BD8268034B1A400A4311
:103F700042F00701816070478FFFCFFF10B5036AE1
:103F8000046A24F001040462846924F0F00444EA21
:103F9000021423F00A020A438461026210BD10B5C4
:103FA000036A23F0100303628369046A23F47043F5
:103FB00043EA023224F0A00343EA01118261016264
:103FC00010BD00003FB514A1D1E90021CDE90021C9
:103FD00013A2D2E90012CDE90212416EB9B1026812
:103FE00091689268C1F34261520F1DF80240E500EA
:103FF00002ACA25CB5FBF2F2A0F86A201DF8012029
:10400000615CD200B2FBF1F1A0F868103FBD012164
:10401000A0F86A10F8E700000101010307010000A1
:10402000080402040801010190F82810C90706D00D
:1040300001684A68C36A22F400321A434A6090F861
:104040002810890706D501684A68036B22F480327C
:104050001A434A6090F82810490706D501684A6853
:10406000436B22F480221A434A6090F82810090713
:1040700006D501684A68836B22F400421A434A60FD
:1040800090F82810C90606D501688A68C36B22F427
:1040900080521A438A6090F82810890606D5016874
:1040A0008A68036C22F400521A438A6090F8281040
:1040B000490611D501684A68436C22F480121A43FC
:1040C0004A60416CB1F5801F06D101684A68836C73
:1040D00022F4C0021A434A6090F82810090606D557
:1040E00001684A68C06C22F4002202434A607047AB
:1040F000F8B500260446C0F88860FDF723FF0546A2
:10410000206800686FF07E47000708D52B46002224
:104110004FF400112046009700F009FD60B92068B7
:10412000006840070AD52B4600224FF48001204644
:10413000009700F0FCFC08B10320F8BD2020C4F873
:104140008000C4F8840084F87C600020F8BD10B5BD
:10415000806A0021A0F85E10A0F85610FEF7ABFFB1
:1041600010BD000001680A6822F490720A600168BC
:104170008A68044B1A408A602021C0F8841000210C
:10418000C1667047FEFFFFEF10B5B0F86020D0F8B1
:1041900084300168222B04D0886940F008008861CF
:1041A00010BD496A836D11401980816D891C81653C
:1041B000B0F85E10491EA0F85E10B0F85E1000293D
:1041C000EED101680A6822F490720A6001688A6878
:1041D00022F001028A602021C0F884100021C1660B
:1041E000FFF7FCF810BD000070B50446B0F8606041
:1041F000D0F88400222805D02068816941F00801A8
:10420000816170BDB4F8685023E02068406AA16DF8
:1042100030400880A06D801CA065B4F85E00401E90
:10422000A4F85E00B4F85E0088B92068016821F443
:104230008071016020688168114A114081602020EE
:10424000C4F884000020E0662046FFF7C7F86D1E22
:10425000ADB2002DD9D1B4F85E000028D1D0B4F8A9
:1042600068108142CDD92068816821F08051816039
:104270000448E0662068016841F02001016070BDDB
:10428000FEFFFFEF8941000810B5B0F86020D0F8BC
:1042900084300168222B04D0886940F008008861CE
:1042A00010BD496A1140826D1170816D491C816594
:1042B000B0F85E10491EA0F85E10B0F85E1000293C
:1042C000EED101680A6822F490720A6001688A6877
:1042D00022F001028A602021C0F884100021C1660A
:1042E000FFF77CF810BD000070B50446B0F86060C0
:1042F000D0F88400222805D02068816941F00801A7
:10430000816170BDB4F8685023E02068406AA16DF7
:1043100030400870A06D401CA065B4F85E00401EDF
:10432000A4F85E00B4F85E0088B92068016821F442
:104330008071016020688168114A114081602020ED
:10434000C4F884000020E0662046FFF747F86D1EA1
:10435000ADB2002DD9D1B4F85E000028D1D0B4F8A8
:1043600068108142CDD92068816821F08051816038
:104370000448E0662068016841F02001016070BDDA
:10438000FEFFFFEF894200082DE9F05F0446016857
:1043900080682369E5691843636900272B43184344
:1043A000636EFA4A03430868F94D284018430860D1
:1043B00020684168E36821F4405119434160216855
:1043C000A069914201D0236A18438B68F14D2B40BC
:1043D00003438B602068C16A636A21F00F011943AF
:1043E000C162ED4B2068ED4998420DD1D1F888109B
:1043F00011F0030106D001295AD0022956D0032911
:104400003FD157E001253DE0E54B98420BD1D1F873
:10441000881011F00C0147D0042949D0082945D053
:104420000C292ED146E0DF4B98420BD1D1F88810F1
:1044300011F0300138D010293AD0202936D0302957
:104440001FD137E0D84B98420BD1D1F8881011F02A
:10445000C00129D040292BD0802927D0C02910D1D4
:1044600028E090420DD1D1F8881011F440611BD0A2
:10447000B1F5806F1CD0B1F5006F17D0B1F5406F6A
:1044800018D01025DFF824A34FF480764FF00009F0
:104490004FF4004B90426ED175B1022D29D0042DFE
:1044A00059D0082D68D176E00025EBE70225E9E731
:1044B0000425E7E70825E5E7FEF774F84DE0012855
:1044C00051D0022851D0032851D0042851D00528BA
:1044D00053D0062853D0072853D0082853D0092892
:1044E00053D00A2853D00B2853D03AE0B1FBF0F058
:1044F0006CE0606AA8B1012817D0022817D0032801
:1045000017D0042817D0052817D0062817D0072859
:1045100017D0082817D0092817D00A2817D00B2839
:1045200017D00120BAFBF0F050E00220FAE7042097
:10453000F8E70620F6E70820F4E70A20F2E70C2067
:10454000F0E71020EEE72020ECE74020EAE78020AB
:10455000E8E73046E6E7FEF749F80146606A0028DA
:10456000ADD10120C2E70220C0E70420BEE706204B
:10457000BCE70820BAE761E14AE00A20B6E70C2070
:10458000B4E71020B2E72020B0E74020AEE780205B
:10459000ACE73046AAE7606AA8B1012822D0022819
:1045A00022D0032822D0042822D0052822D0062891
:1045B00022D0072822D0082822D0092822D00A2871
:1045C00022D00B2822D00120BBFBF0F0002820D005
:1045D0006168884601EB4101814219D8B0EB083F80
:1045E00016D817E00220EFE70420EDE70620EBE7FE
:1045F0000820E9E70A20E7E70C20E5E71020E3E7D9
:104600002020E1E74020DFE78020DDE73046DBE7E0
:10461000012739E27DB3022D61D0042D7DD0082D14
:10462000F6D1606AA8B1012878D0022877D0032893
:1046300076D0042875D0052874D0062873D00728B2
:1046400072D0082871D0092870D00A286FD00B28A2
:1046500000D0012632464D46002358460021FBF784
:1046600037FE090241EA106102024FEA58001018B1
:104670006941424670E0FFE7FDF794FF0146606A3A
:10468000A8B1012817D0022817D0032817D0042872
:1046900017D0052817D0062817D0072817D00828C4
:1046A00017D0092817D00A2817D00B2800D00126C8
:1046B00032464D468CE00226FAE70426F8E7062645
:1046C000F6E70826F4E70A26F2E70C26F0E71026BC
:1046D000EEE72026ECE74026EAE78026E8E7606A76
:1046E000A8B1012824D0022824D0032824D00428EB
:1046F00024D0052824D0062824D0072824D0082830
:1047000024D0092824D00A2824D00B2800D0012640
:1047100032464D4600235046A0E726E07AE07BE093
:104720007CE07DE07EE07FE080E081E082E083E08D
:104730000226EDE70426EBE70626E9E70826E7E789
:104740000A26E5E70C26E3E71026E1E72026DFE767
:104750004026DDE78026DBE70023FBF7B9FD144A9E
:10476000A0F54071914271D952E7FDF73FFF014634
:10477000606A50B3012839D0022839D0032839D0D3
:10478000042839D0052839D0062813E000800040DD
:10479000F369FFCFFFF4FF11003801400010024021
:1047A0000044004000480040004C00400024F40059
:1047B000FFFC0F0024D0072824D0082824D0092883
:1047C00024D00A2824D00B2800D001264D4632469A
:1047D000002308461946FBF77BFD0902626841EA9F
:1047E00010610302500818186941B5E70226EDE789
:1047F0000426EBE70626E9E70826E7E70A26E5E7C9
:104800000C26E3E71026E1E72026DFE74026DDE778
:104810008026DBE702261DE704261BE7062619E7AC
:10482000082617E70A2615E70C2613E7102611E7D6
:1048300020260FE740260DE780260BE7E0694FF6BC
:10484000EF78584570D1092D8ED200E01AE1DFE8EB
:1048500005F006093C05800505058300D8E6FDF74F
:10486000A1FE01E0FDF7B0FE0146606AA8B1012893
:1048700015D0022815D0032815D0042815D00528F6
:1048800015D0062815D0072815D0082815D00928D6
:1048900015D00A2815D00B2814D0012612E00226C4
:1048A00010E004260EE006260CE008260AE00A26A0
:1048B00008E00C2606E0102604E0202602E0402650
:1048C00000E08026B1FBF6F01AE0606AA8B101288A
:1048D0002BD002282BD003282BD004282BD005283E
:1048E0002BD006282BD007282BD008282BD009281E
:1048F0002BD00A282BD00B2800D00126BAFBF6F0CB
:104900004100606801EB5001B1FBF0F080B2A0F112
:1049100010014145A2D84FF6F0710140C0F34200AA
:1049200001432068C160AFE046E00226E6E70426C6
:10493000E4E70626E2E70826E0E70A26DEE70C269B
:10494000DCE71026DAE72026D8E74026D6E78026DF
:10495000D4E7FDF74BFE87E7606AA8B1012817D0BE
:10496000022817D0032817D0042817D0052817D0FD
:10497000062817D0072817D0082817D0092817D0DD
:104980000A2817D00B2800D00126BBFBF6F0B7E7AA
:104990000226FAE70426F8E70626F6E70826F4E7F3
:1049A0000A26F2E70C26F0E71026EEE72026ECE7D1
:1049B0004026EAE78026E8E7092DBFF4D5AEDFE818
:1049C00005F006093C0583050505860020E6FDF790
:1049D000E9FD01E0FDF7F8FD0146606AA8B1012894
:1049E00015D0022815D0032815D0042815D0052885
:1049F00015D0062815D0072815D0082815D0092865
:104A000015D00A2815D00B2814D0012612E0022652
:104A100010E004260EE006260CE008260AE00A262E
:104A200008E00C2606E0102604E0202602E04026DE
:104A300000E08026B1FBF6F11AE0606AA8B1012817
:104A40002ED002282ED003282ED004282ED00528C0
:104A50002ED006282ED007282ED008282ED00928A0
:104A60002ED00A282ED00B2800D00126BAFBF6F152
:104A7000606801EB5001B1FBF0F080B2A0F11001D1
:104A80004145A3D82168C8600120A4F86A0024F831
:104A9000680F3846C4F80490C4F80890BDE8F09F49
:104AA0000226E3E70426E1E70626DFE70826DDE73E
:104AB0000A26DBE70C26D9E71026D7E72026D5E71C
:104AC0004026D3E78026D1E7FDF790FD84E7606AB2
:104AD000A8B1012817D0022817D0032817D004281E
:104AE00017D0052817D0062817D0072817D0082870
:104AF00017D0092817D00A2817D00B2800D0012674
:104B0000BBFBF6F1B4E70226FAE70426F8E706262F
:104B1000F6E70826F4E70A26F2E70C26F0E7102667
:104B2000EEE72026ECE74026EAE78026E8E72DE9D5
:104B3000F041984617460E460446069D08E0681C5C
:104B400006D0FDF7FFF9A0EB0800A8420BD855B13D
:104B50002068C06936EA000019D00020B842EED0C3
:104B60000020BDE8F0812068016821F4D071016067
:104B70002068816821F0010181602020C4F8800054
:104B8000C4F88400002084F87C000320E9E70120B9
:104B9000E4E700002DE9FF4735A1D1E90001CDE9A7
:104BA000020135A1D1E90001CDE900013448FEF749
:104BB00083FA33480068C169324CC9064AD51021CE
:104BC000016231484FF6FF7A4FF0000900782FA1BB
:104BD00000282F4818D0FBF7F7FC18B12DA12C485E
:104BE000FBF7F2FC6846FBF786FC82B25346694647
:104BF0002348FEF7F4FB00BF84F8009014212448FA
:104C0000FBF798FCBDE8FF87FBF7DEFC224D234E47
:104C100001274FF0020880B11EA11D48FBF7D4FC0C
:104C200078B11FA11A48FBF7CFFC70B102A8FBF7BF
:104C300062FC82B2534602A9DAE72F7086F8008040
:104C4000DAE785F800803770D6E785F8009086F8B7
:104C50000090D1E7134801680D4A20781154401C98
:104C60002070012210490648FEF73AFBCAE700000F
:104C70004552524F520D0A00574149540D0A000047
:104C80001401002000000020150000204C0000004E
:104C900048000020520000001800002014000020EE
:104CA000530000002438014034000020FEE703B424
:104CB00001984100009850EAC12018BF04204A0D15
:104CC00018BF40F0010040F2FF72B2EB515F08BF25
:104CD00040F00200012808BF052002B07047090714
:104CE000090E002804DB00F1E02080F80014704772
:104CF00000F00F0000F1E02080F8141D70473038FC
:104D00000A2801D2012070470020704710B586B0F4
:104D100014A11820FEF758FC174C207928B101285F
:104D20001ED0022803D015A102E018A100E01BA1AB
:104D30006846FBF745FB69464820FEF745FC60697D
:104D400000F088FB41EC100B18A153EC102B6846C7
:104D5000FBF736FB69466020FEF736FC06B010BD57
:104D600017A1E5E7202020202020202044415441A5
:104D700020202020200000001400002020202020DF
:104D80002020204E3A20202020200000202020201B
:104D90002020204E3A5320202020200020202020B8
:104DA0002020204E3A5220202020200020202020A9
:104DB000202020443A252E3166202020202000008B
:104DC000202020202020204E3A4C2020202020008F
:104DD00010B51648FCF7BCFD80B200F02AFA9FED32
:104DE000141B53EC112B00F037FA9FED131B53ECFF
:104DF000112B00F031FA00F0EBF9114900EE100A26
:104E0000DFED100A81ED040A0F4A20EE200A10EEB1
:104E1000100A81ED050A904203DB9FED0C0A81ED3B
:104E2000050ABDE810400148FCF7CEBE5C0000203A
:104E30006666666666660A40000000000000303F55
:104E4000140000200000C842000096430000964372
:104E5000F0B549A285B007CA8DE8070049A14B4DBE
:104E6000D1E90001CDE9030101212846FDF758F8F9
:104E7000474C022160712846FDF752F8A0710421C9
:104E80002846FDF74DF8E07101214FF09040FDF705
:104E900047F82072607900254FF4805788B9607A0E
:104EA00001280ED1607801280BD16570A57025709E
:104EB0006846FBF720FB82B23B4669463548FEF761
:104EC0008EFAE0790126B0B9E07A012813D1607832
:104ED00088B92079012803D0002803A80ED002E069
:104EE0002571E5816846FBF706FB82B23B466946C1
:104EF0002848FEF774FA207A50B11CE0FBF7FBFA61
:104F000082B23B4603A92348FEF769FA6670F2E7CE
:104F1000207B01280FD1607868B92079022814D04D
:104F2000002803A81DD0FBF7E6FA82B23B4669468B
:104F30001848FEF754FA60796072A079A072E0799F
:104F4000E072207A207305B0F0BDE5816846FBF77A
:104F5000D2FA82B23B4669460E48FEF740FA257106
:104F6000E9E7FBF7C8FA82B23B4603A90948FEF716
:104F700036FA6670DFE70000537563636573730D7F
:104F80000A0000005761726E0D0A0000000400481C
:104F900014000020140100200348407808B100F0FC
:104FA000DDB8FFF7B3BE0000140000202DE9F0418A
:104FB0002B4E37684FF47F4030602A4DDFF8A080D9
:104FC000294C28794FF48071A8F11408012806D1E2
:104FD000E878642803D34046FCF7A7FF03E00122EA
:104FE0004046FCF7A9FF012204212046FCF7A4FF5C
:104FF000002204212046FCF79FFF28794FF400711E
:10500000022806D1E878642803D34046FCF78DFFD8
:1050100003E001224046FCF78FFF012204212046D5
:10502000FCF78AFF002204212046FCF785FF687800
:105030004FF40041012810D001224046FCF77CFFCC
:10504000012204212046FCF777FF0022042120469C
:10505000FCF772FF3760BDE8F0810022EDE7000049
:105060001408004814000020000C0048FCF778FFEA
:10507000FEF7C8FEFEF754FCFEF714FCFEF7FCFC3E
:10508000FEF7C4FC1548FCF79FFD1548FDF799FD98
:105090001348FDF7EDFD13480068016841F0100169
:1050A0000160012210490F48FEF71AF9FEF7CEFA07
:1050B0000020FEF725FB4FF6FF70FEF735FB0020C2
:1050C000FEF71CFAFFF784FEFFF766FFFFF7C0FE4E
:1050D000FFF76CFF00F00AF8F4E700005C00002026
:1050E000C800002014010020340000202DE9FC41FC
:1050F00016A1184CD1E90001CDE90001E08941F287
:105100008837002601254FF48058B8420CD3267109
:105110006570A570E6816846FBF7EDF982B24346FB
:1051200069460D48FEF75BF9E089B8420CD3267159
:105130006570A570E6816846FBF7DDF982B24346EB
:1051400069460548FEF74BF9BDE8FC815761726E70
:105150000D0A0000140000201401002010B507A162
:105160001820FEF731FA0AA16020FEF72DFABDE8FB
:10517000104007A14820FEF727BA00002020202079
:10518000202020202020202020202020200000007F
:1051900020202020202020205741524E2020202057
:1051A0002000000010B500290AD00878002807D098
:1051B00005487844FBF708FA002801D0002010BD0C
:1051C0000248784410BD00003A1600003216000074
:1051D00021F00042A2F16052B2F5801F01F00043BD
:1051E00028BFD2F17F6C0BD95FEA001C43EAC202F0
:1051F00042EB507018BF704728BF20F00100704785
:10520000B2F5801FBCBF184670474FEA410C1CF531
:10521000001F02D2084600F093B970B500F0C6F83E
:1052200000000089FFF7F6BF4FF00040A0F58000B6
:105230007047B0FA80F310FA03F10AD0C3F11D03EE
:1052400003F580634FEA41504FEA035202EBD1214C
:1052500070474FF000007047DFF848C170B51CEA96
:10526000111E1EBF1CEA13159EEA0C0F95EA0C0FC7
:1052700000F06F8081EA030423EA4C134EEAD47EE7
:1052800021EA4C1141F4801143F48013AE44A1FB98
:10529000024CA0FB0365AEF17F7E361955EB0C0581
:1052A000A1FB034C4CF10003A0FB021C16EB0C0607
:1052B000654153F10003094218BF46F0010613F49B
:1052C000007F0BD14FEA03314FEA0530340341EA46
:1052D000155140EA16506FF003020AE04FEAC3216D
:1052E0004FEAC520F40241EA555140EA56506FF0AA
:1052F000020202EB2E4201EB025585EACE710AD082
:105300005FEA440C18BF24F0004450F1000041F162
:10531000000120EAD47040F2FE7C624500D270BDEC
:10532000A84214BF4FF080444FF04044002E08BF05
:105330000024BEF1806FA8BFA1F1C041BDE870405C
:1053400080F282804FF0000001F1C04101F0004185
:1053500070479EEA0C0F0CEA131518BF95EA0C0F64
:1053600006D04FF0000081EA030E0EF0004170BD40
:1053700000F01CF88900013E00F007B800F009B801
:105380004FEA430C5FEA5C5C08D081EA030100F05D
:105390005BB84FEA410C5FEA5C5CF6D14FF000006D
:1053A000014970470000FF070000F87F0EF1020E70
:1053B0002EF0030E5EF8046B364205D4012A43EB4F
:1053C000030515F5001F12D8012841EB010C1CF54F
:1053D000001F0CD80ED14FEAD17C15F5001F0CEB45
:1053E0004C0C0CF1020C08BF4CEBD37C04E04FF0EA
:1053F000080C01E04FEAD37C0CEB4C0526FA05F6CD
:1054000006F00706B6F1040C06D20EEB860CBDE8DA
:1054100070404CF0010C6047DFE80CF0090B020211
:105420004FF000414FF00000A1F5002170BD19467A
:105430001046012851EB010418BFD4F5001484BFB5
:10544000002001F0004170BD0808A0F500114FEAEE
:105450003101704743004FEAD30C4FEA3C0C434004
:105460001FBF40070CF1605113F0FE4F70471CF056
:10547000006F03D100200CF0004170470CF0004396
:1054800043EA507010B540EACC0000F00EF800BFBF
:10549000000000924FEA0001FFF7D6BF4FF0004135
:1054A0004FF00000A1F5002170470EF1020E2EF022
:1054B000030E5EF8044B244204D44FEA4102B2F1D9
:1054C0007F4F11D84FEA4003B3F17F4F0CD80ED174
:1054D0004FEAD07CB2F17F4F0CEB4C0C0CF1020C7C
:1054E00008BF4CEBD17C04E04FF0080C01E04FEA20
:1054F000D17C0CEB4C0324FA03F404F00704B4F160
:10550000040C06D20EEB840CBDE810404CF0010CEC
:105510006047DFE80CF0070802024FF00040A0F5FA
:10552000800010BD0846420018BFD2F1807288BFCB
:1055300000F0004010BD4FF04070E1EE100A7047DF
:10554000FF2141EAD050C0057047FBF759B9000070
:105550000000000000000102030406070809000023
:105560000000010203040000000000000000000031
:10557000000000000000000000000000000000002B
:10558000000000000000000000000000000000001B
:105590000000000000000000800180018001800107
:1055A00080018001800180018001800180018001F3
:1055B0008001000000008001800100000000000068
:1055C00000000000000000000000CC00CC00CC0077
:1055D000CC00CC00CC000000000000000000000067
:1055E00000000000000000000000000000000000BB
:1055F00000000000000000000000000000000000AB
:105600000000600C600C600C30063006FE1FFE1FB0
:10561000300638071803FE1FFE1F180318038C01FD
:105620008C018C01000000008000E003F80F9C0E4C
:105630008C1C8C188C009800F801E007800E801CF0
:105640008C188C189C18B80CF00FE00380008000B8
:105650000000000000000000000000000E181B0CFD
:10566000110C11061106110311039B018E01C038A4
:10567000C06C60446044304430441844186C0C38AA
:105680000000000000000000E001F00338071806E9
:1056900018063003F001F000F8009C310E33061EAE
:1056A000061C061C063FFC73F021000000000000F1
:1056B000000000000000000000000C000C000C00C6
:1056C0000C000C000C0000000000000000000000B6
:1056D00000000000000000000000000000000000CA
:1056E0000000000000000000000200038001C00074
:1056F000C00060006000300030003000300030003A
:1057000030003000300060006000C000C000800148
:10571000000300020000000020006000C0008001C3
:1057200080010003000300060006000600060006D4
:105730000006000600060003000380018001C0008F
:1057400060002000000000000000000000000000D9
:105750000000C000C000D806F807E0013003380799
:105760000000000000000000000000000000000039
:105770000000000000000000000000000000000029
:10578000000080018001800180018001FC3FFC3F1E
:105790008001800180018001800100000000000084
:1057A00000000000000000000000000000000000F9
:1057B00000000000000000000000000000000000E9
:1057C00000000000000000008001800100010001D5
:1057D0008000000000000000000000000000000049
:1057E0000000000000000000000000000000E007D2
:1057F000E0070000000000000000000000000000C2
:105800000000000000000000000000000000000098
:105810000000000000000000000000000000000088
:105820000000000000000000C000C00000000000F8
:105830000000000000000000000C000C0006000644
:105840000006000300030003800380018001800143
:10585000C000C000C0006000600000000000000048
:105860000000000000000000E003F007380E180CF4
:105870000C180C180C180C180C180C180C180C1808
:105880000C18180C380EF007E003000000000000B0
:10589000000000000000000000018001C001F001D4
:1058A00098018801800180018001800180018001D0
:1058B0008001800180018001800100000000000063
:1058C0000000000000000000E003F80F180C0C18A6
:1058D0000C1800180018000C000600038001C0001E
:1058E000600030001800FC1FFC1F000000000000DA
:1058F0000000000000000000E001F807180E0C0C8A
:105900000C0C000C0006C003C007000C00180018A7
:105910000C180C18180CF807E00300000000000039
:105920000000000000000000000C000E000F000F3F
:10593000800DC00C600C600C300C180C0C0CFC3F83
:10594000FC3F000C000C000C000C000000000000EC
:105950000000000000000000F80FF80F1800180009
:105960000C00EC03FC071C0E001C001800180018AB
:105970000C181C0C180EF807E003000000000000D3
:105980000000000000000000C007F00F381C1818CD
:1059900018000C00CC03EC0F3C0E1C1C0C180C184F
:1059A0000C18181C380EF007E0030000000000007F
:1059B0000000000000000000FC1FFC1F000C00069F
:1059C0000006000380038001C001C000E000600009
:1059D0006000700030003000300000000000000067
:1059E0000000000000000000E003F007380E180C73
:1059F000180C180C3806F007F007180C0C180C18C7
:105A00000C180C18380CF80FE00300000000000020
:105A10000000000000000000E003F007380E1C0C3E
:105A20000C180C180C181C1C381EF81BE019001858
:105A3000000C000C1C0EF807F00100000000000034
:105A40000000000000000000000000000000000056
:105A50000000800180010000000000000000000044
:105A60000000000000008001800100000000000034
:105A70000000000000000000000000000000000026
:105A80000000800180010000000000000000000014
:105A90000000000000008001800100010001800082
:105AA00000000000000000000000000000000000F6
:105AB0000000000000000010001C800FE003F80050
:105AC0001800F800E003800F001C00100000000028
:105AD00000000000000000000000000000000000C6
