:020000040800F2
:100000008009002031020008E32400086D20000868
:10001000E12400081D0600085F270008000000001A
:10002000000000000000000000000000E7240008BD
:10003000E906000800000000E5240008E9240008A3
:100040004B0200084B0200084B0200084B0200085C
:100050004B0200084B0200084B0200084B0200084C
:100060004B0200084B0200084B0200084B0200083C
:100070004B0200084B020008210600084B02000852
:100080004B0200084B0200084B0200084B0200081C
:100090004B0200084B0200084B0200084B0200080C
:1000A0004B0200084B0200084B0200084B020008FC
:1000B0004B0200084B0200084B0200084B020008EC
:1000C0004B0200084B0200084B0200084B020008DC
:1000D0004B0200084B0200084B0200084B020008CC
:1000E0004B0200084B0200084B0200084B020008BC
:1000F0004B0200084B0200084B0200084B020008AC
:100100004B0200084B0200084B0200084B0200089B
:100110004B0200084B0200084B0200084B0200088B
:100120004B0200084B0200082D0600084B02000895
:100130004B0200084B0200084B0200084B0200086B
:100140004B0200084B0200084B0200084B0200085B
:100150004B0200084B020008390600084B02000859
:100160004B0200084B0200084B0200084B0200083B
:100170004B0200084B0200084B0200080000000080
:100180004B0200084B02000800F002F800F041F8B2
:100190000AA090E8000C82448344AAF10107DA45E2
:1001A00001D100F036F8AFF2090EBAE80F0013F0F3
:1001B000010F18BFFB1A43F0010318472C2600005B
:1001C0004C260000103A24BF78C878C1FAD85207EC
:1001D00024BF30C830C144BF04680C6070470000C1
:1001E0000023002400250026103A28BF78C1FBD840
:1001F000520728BF30C148BF0B607047642900F028
:10020000F780002070471FB502F0D8FA1FBD10B567
:1002100010BD00F0DEF91146FFF7F5FF02F0B0FA6D
:1002200000F022F903B4FFF7F2FF03BC00F0CAF9B3
:100230000948804709480047FEE7FEE7FEE7FEE77A
:10024000FEE7FEE7FEE7FEE7FEE7FEE704480549B6
:10025000054A064B70470000812500088901000807
:1002600080030020800900208005002080050020F8
:1002700053EA020C00F069802DE9F04B4FF00006C4
:10028000002B1FBFB3FA83F503FA05F424FA05F631
:100290005E4012BF1643B2FA82F502FA05F4C5F1C8
:1002A00020051EBF22FA05FC44EA0C04203556EA5C
:1002B000044C4FEA144418BF641C4FF000084FF080
:1002C0000009904271EB030C39D3002919BFB1FA30
:1002D00081F701FA07F6B0FA80F700FA07F6C7F1DE
:1002E00020071EBF20FA07FC46EA0C062037B6FBA3
:1002F000F4FCA7EB0507103F07F01F0BCBF120061E
:100300000CFA0BFB2CFA06F644BFB3460026202F4E
:10031000A4BF5E464FF0000B5BEA060C08BF4FF02F
:10032000010B19EB0B09ABFB027C48EB0608C01B69
:1003300006FB02CC0BFB03CC71EB0C01C1E70B46B7
:10034000024641464846BDE8F08B13B54FF0000029
:100350004FF00001AFF30080BDE81C407047000083
:100360000FB41CB5074B06AA7B446946009005985C
:1003700000F00BF90020694600F01AF91CBC5DF88A
:1003800014FB0000450200002DE9F0410E46044632
:10039000002020622046E168884730B3252805D038
:1003A000D4E901219047206A401CF2E7E168204629
:1003B00000278847050018D0A5F14100192802D868
:1003C00020354FF400673246294620462760FFF764
:1003D00015FF40B1012804D0F61D26F007060836A7
:1003E000D8E7361DD6E72846DAE7206ABDE8F0816F
:1003F0002DE9F0410646002410687529314616A5FE
:1004000010D0AFF30080002802DA404213A507E0C5
:1004100031688A0701D512A502E0490704D511A564
:10042000012401E0AFF3008000210A2206F1240735
:1004300009E0B0FBF2FCB0FBF2F302FB1C00303031
:1004400078541846491C0028F3D123462A463046E2
:10045000BDE8F04100F03BB8000000002D000000B6
:100460002B0000002000000010B50446AFF3008010
:100470002046BDE81040FFF7D5BE4FF0000200B5A2
:10048000134694469646203922BFA0E80C50A0E8B7
:100490000C50B1F12001BFF4F7AF090728BFA0E865
:1004A0000C5048BF0CC05DF804EB890028BF40F831
:1004B000042B08BF704748BF20F8022B11F0804F73
:1004C00018BF00F8012B70477047704770472DE93F
:1004D000F0470D4699469246044600F1240801680B
:1004E000880604D5E06921F01001216000E00120B8
:1004F000A84201DD471B00E00027A1697A1902EB41
:100500000900081AA0612078C00602D42046AFF383
:100510000080002608E0D4E901211AF8060090477F
:10052000206A401C761C20624E45F4DB2078C00611
:100530000AD52046AFF3008006E0D4E9012130203F
:100540009047206A401C2062381EA7F10107F4DCA6
:1005500007E0D4E9012118F805009047206A401C03
:100560002062281EA5F10105F3DC2046AFF30080D0
:100570002078000602D50220BDE8F0870120FBE7C5
:1005800001694A1C02610878704700B58FB0CDE957
:1005900001310021059105497944CDE90310114647
:1005A0006846FFF7F1FE0FB000BD0000E5FFFFFF5A
:1005B0000A6802F8010B0A607047000000487047A3
:1005C0002003002001491820ABBEFEE726000200F0
:1005D00070477546FFF7F2FFAE4605006946534681
:1005E00020F00700854618B020B5FFF72FFEBDE8C4
:1005F00020404FF000064FF000074FF000084FF08A
:10060000000B21F00701AC46ACE8C009ACE8C0091A
:10061000ACE8C009ACE8C0098D467047FEE70000B1
:10062000014800F015B9000018010020014800F051
:100630000FB9000060020020014800F009B9000075
:10064000C002002001681823CAB2103AB2FBF3F2CC
:10065000054B6FF30901032A9B5CC36500D9091D93
:100660008165084670470000C627000810B501469E
:1006700000208B698A6A4FF0C07453B1B3F5005FF4
:1006800015D072B1012A0CD0022A0AD0032A09D14E
:1006900004E01AB1012A06D0022A03D1C96AC901AD
:1006A00000D5012010BDC96AA142FAD010BD002AB0
:1006B000F7D0012AF2D0022AF3D0032AF3D010BDDA
:1006C00030B50468256825F48025256004686360DA
:1006D0008368402B036803D099600068C26030BD16
:1006E0009A600068C16030BD704772B6FEE770B5B1
:1006F000040004D094F82500002510B109E0012081
:1007000070BD84F82450204600F032F8204600F0F6
:100710002FF8022084F825002068016840F6F8725E
:1007200091430160616960680843D4E90312114391
:100730000843A1680843A1690843216A0843216866
:100740000A68104308606068102805D1E17FE069FD
:1007500061F31F60216888612068C16841F01E0153
:10076000C160E563012084F82500002070BD000011
:10077000F0B587B0044614216846FFF77EFE2E4987
:100780002068884255D12D480024016841F00101BC
:100790000160006800F0010005902848001F016812
:1007A00041F010010160016801F01001059101683C
:1007B00041F001010160016801F00101059101684A
:1007C00041F004010160016801F004010591016834
:1007D00041F0020101600068022500F0020005906E
:1007E00070200090CDE901540D26CDE903466946FD
:1007F000134800F09FF940270097CDE90154CDE957
:10080000034669460F4800F095F94FF47070009068
:10081000CDE90154CDE9034669460B4800F08AF959
:100820000097CDE90154CDE903466946074800F039
:1008300081F907B0F0BD00000000055034380240D7
:100840000010024000000240000802400004024084
:100850002DE9F84304464FF00009CDF800906348B5
:100860004FF41651A56D0068B0FBF1F72E6894F8AF
:100870005C10082000FA01F131420FD021680A68AB
:1008800052070BD50A6822F004020A6094F85C1043
:100890008840A860606D40F00100606594F85C10CD
:1008A0004FF0010808FA01F0304208D02168496988
:1008B000090604D5A860606D40F00200606594F8F8
:1008C0005C1004208840304208D0216809688907FC
:1008D00004D5A860606D40F00400606594F85C1079
:1008E00010208840304218D021680968090714D5C3
:1008F000A86020680168490304D50068000308D592
:10090000A16C07E00168C90503D4016821F0080162
:100910000160216C09B12046884794F85C102020C2
:100920008840304231D021680968C9062DD5A860B9
:1009300094F8350005282068016806D0490347D59A
:10094000006800031DD4616C1CE021F016010160F9
:100950002068416921F080014161206C08B9A06CD8
:1009600020B12068016821F00801016094F85C1052
:100970003F208840A86084F8358084F83490216D49
:100980001FE0E16B09B120468847606D00282BD03D
:10099000606DC00714D0052084F835002068016818
:1009A00021F0010101600098401C0090B84203D87A
:1009B00020680068C007F6D184F8358084F8349048
:1009C000E16C002910D001B02046BDE8F043084793
:1009D0000168C905D5D4016821F01001016084F8CF
:1009E000358084F83490CCE7BDE8F8831C00002003
:1009F0002DE9F041044600F09BF906465CB1022067
:100A000084F83500002584F834502068016821F00E
:100A1000010101600DE00120BDE8F08100F088F9DE
:100A2000801B052805D920206065032084F8350047
:100A3000F2E720680068C007F0D1226811682048FA
:100A40000140D4E901031843D4E903363343184382
:100A500063691843A3691843E3691843236A184379
:100A60000843616A042903D1D4E90B1319430843ED
:100A7000106020684069666A20F0070130460E4326
:100A8000012704280CD1A06A0643E06A40B1204641
:100A9000FFF7ECFD20B14020606584F83570BAE7BF
:100AA000206846612046FFF7CDFD94F85C203F2189
:100AB00091408160656584F835700020ACE70000E6
:100AC0003F8010F02DE9F0410446866D90F8340027
:100AD000002501280DD0012084F8340094F83570E9
:100AE0000020012F07D084F8340002252846BDE8F5
:100AF000F0810220FBE7022784F83570606520460C
:100B0000FFF7DEFD94F85C103F208840B06020685D
:100B1000016841F016010160206C20B12068016875
:100B200041F0080101602068016841F001010160A5
:100B3000DCE700002DE9F84FDFF8BCA10022012519
:100B400003264FF00F090AF1040BAAF1040E00BFAF
:100B50000B6805FA02F42340A34270D10F7907F025
:100B60000307012F01D0022F16D187684FEA4208F0
:100B700006FA08FC27EA0C07D1F80CC00CFA08FCAE
:100B80004CEA070CC0F808C04768A7430C79C4F3C7
:100B9000001494403C4344600C79E443A4070AD019
:100BA000C4684FEA420C06FA0CF7BC438F6807FA98
:100BB0000CF72743C7600C7904F00304022C12D110
:100BC000D40800EB840CDCF820405707FF0E09FA2C
:100BD00007F824EA0804D1F8108008FA07F848EA70
:100BE0000408CCF8208004684FEA420C06FA0CF79F
:100BF000BC430F7907F0030707FA0CF72743076098
:100C00004C6814F4403F70D03C4C276847F4804750
:100C10002760246822F0030704F480440094384CD1
:100C200007EB040CDCF8084897074FEA177809FA35
:100C300008F7BC43334FB84202D1002724E054E008
:100C4000314FB84201D101271EE0304FB84201D1E7
:100C5000022719E02E4FB84201D1032714E02D4F8F
:100C6000B84201D104270FE02B4FB84201D105272C
:100C70000AE02A4FB84201D1062705E0284FB842C2
:100C800001D1072700E0082707FA08F72743CCF827
:100C90000878DAF800405746D1F804C09C435FEA70
:100CA000CC2C00D51C433C60DBF800405F46D1F8FB
:100CB00004C09C435FEA8C2C00D51C433C60DEF8EA
:100CC00000407746D1F804C09C435FEA8C3C00D5D5
:100CD0001C433C60084F083F3C68D1F804C09C436B
:100CE0005FEACC3C00D51C433C60521C102AFFF448
:100CF0002FAFBDE8F88F0000083C014044380240A7
:100D000000300140000002400004024000080240A0
:100D1000000C024000100240001402400018024083
:100D2000001C02400AB1816170470904FBE7000022
:100D300001488068704700001000002070B5040072
:100D400025D094F83D00002520B984F83C50204679
:100D500000F0B8F8242084F83D002068016821F0F4
:100D6000010101602068016841F4004101602068D0
:100D7000016821F40041016000F0A6FD4D4A616860
:100D8000914201D84C4900E04C49884201D20120EF
:100D900070BD4B492368B0FBF1F15E6826F03F0659
:100DA0000E435E606368934206D94FF496735943CD
:100DB0004FF47A73B1FBF3F12368491C1E6A26F0E5
:100DC0003F06314319626168914210D84900401EC4
:100DD000B0FBF1F2521CC2F30B02042A01D2042030
:100DE00022E0B0FBF1F0401CC0F30B001CE0A26855
:100DF000F2B301EBC10303EB0116431EB3FBF6F3A1
:100E00005B1C43F480431B0549D092B301EBC10244
:100E100002EB0111401EB0FBF1F0401CC0F30B00CF
:100E200040F4804040F400402168CA694CF6FF73EA
:100E30009A431043C861D4E907100143206802684F
:100E400022F0C00211430160D4E90301014320688C
:100E5000826848F2FF339A4311438160D4E9050167
:100E600008432168CA6822F0FF021043C86001E00D
:100E70000EE016E02068016841F001010160256480
:100E8000202084F83D00256384F83E50002070BD8A
:100E900001EB4106431EB3FBF6F35B1CB3E70120F5
:100EA000C2E701EB4101401EB0FBF1F0401CC0F372
:100EB0000B00B7E7A086010080841E0000093D00FA
:100EC00040420F0010B586B0044614216846FFF773
:100ED000D4FA14492068884221D1134800210268BD
:100EE00042F002020260006800F0020005904FF438
:100EF000407000901220CDE90101032003900420EE
:100F0000049069460948FFF715FE0748103001684C
:100F100041F400110160006800F40010059006B073
:100F200010BD000000540040303802400004024070
:100F30002DE9FF4104460068816800917749784EA9
:100F40004FF04027884201D1324600E03A4692688D
:100F5000019240688846029001D1304600E0384650
:100F60004068039060684FF00105B0F5007F1CD029
:100F7000D8B1900705D50398000602D5204601F0A8
:100F8000A7F80098C0070FD0029840067FD52168C7
:100F90002046CA68E16A8B1CE3620A80618E491EA2
:100FA0006186618E002967D071E00098800719D5AD
:100FB0000298000616D5616A20468A1C6262226881
:100FC0000988D160618D491E6185618D51B90168C3
:100FD0004A6822F0A0024A60418E19B980F8415057
:100FE00000F0A0F80198C00705D00398400602D58C
:100FF000204601F03DF80198400622D5039880066E
:101000001FD52168414501D1304600E0384640688F
:1010100020F0600101D1304600E038464160206890
:10102000416821F0A00141602068C168806801909A
:1010300084F84150606C40F002006064204600F08B
:1010400072F80098000767D50298800664D520687A
:10105000416821F0A00141602168414501D130463D
:1010600000E03846406820F0600000D03E467060E6
:1010700020688068009043E001684A6822F06002BE
:101080004A60418D19B980F8415000F04BF8009842
:1010900040061ED5029880061BD52068416821F0C5
:1010A000600141602168414501D1304600E0384689
:1010B000406820F0A00101D1304600E03846416090
:1010C00084F84150606C40F002006064204600F0FB
:1010D0002AF8019800071FD5039880061CD52168BF
:1010E000414501D1304600E03846406820F0A0007C
:1010F00000D03E4670602068416821F06001416088
:1011000084F84150606C40F00400606404B02046F4
:10111000BDE8F04100F007B8BDE8FF8100380040AD
:1011200000340040704770472DE9F047040005D0B7
:1011300094F841004FF0000818B109E00120BDE823
:10114000F08784F8408051486063204600F0A6F89C
:10115000022684F841602068C16940F6BF77B94330
:10116000C1612068066260694FF4007902282FD0BF
:10117000E06870B12025A068202800D86D0001200B
:1011800000F03AFA216949451FD1E16819B1A90077
:1011900002E01025EFE7E900B0FBF1F000EB800082
:1011A00061694000B0FBF1F0401D0A21B0FBF1F095
:1011B00000F00101401A40080902821EFE2A09D3EC
:1011C000606C40F010006064B8E7B0FBF5F0E5E754
:1011D0000220002122690843024320680262D4E908
:1011E00001010843A269E168114308432168CA6903
:1011F000BA43104340F40060C861206A01283AD124
:101200002348606323482168234A4FF040238142EA
:1012100001D1114600E01946C96921EA070101D14F
:10122000154600E01D46E9612168814201D1114661
:1012300000E019460E622568854201D1114600E0A2
:101240001946C9698EB2616849451BD0D1B10021E8
:101250002789B4F80CC047EA0C07B4F818C04CEA68
:10126000010C47EA0C07B9B2314341F400618542F1
:1012700000D01A46D161C4F84480012084F84100AE
:1012800000205CE74FF48071E2E70000872100084E
:10129000310F00080038004000340040F0B58BB03A
:1012A000064614216846FFF7E8F8002505950695DF
:1012B000079508952B493068884251D10120059047
:1012C00032200224CDE9060405A800F0C5F908B1D2
:1012D000FFF70BFA2448016841F48041016000687F
:1012E000214900F4804010390990086840F004005A
:1012F0000860086800F004000990086840F00200E7
:1013000008600868052700F00200099008208DE8B1
:101310003100CDE9035769461448FFF70BFCB802CA
:101320008DE83100CDE9035769461148FFF702FC0B
:10133000114C1048C4E900050015A560C4E903502C
:10134000800060618000A0618011C4E9070520462B
:101350006562FFF74DFB08B1FFF7C7F9F463A663B9
:101360000BB0F0BD00380040403802400008024099
:10137000000402405860024018010020F8B50446FD
:1013800029B122B194F84100012829D101E00120BE
:10139000F8BD94F84000012822D0012684F840606E
:1013A000042084F8410000256564E1622068C0697A
:1013B00000F00700032815D0052813D02286628686
:1013C000E16B1F480864E16B1E48C863E16B1E486F
:1013D000C8642168C869C0F30120032809D00BE064
:1013E0000220F8BD4FF6FF7000EA420020866086BA
:1013F000E6E7C86888680090238E0C31E26AE06BEB
:10140000FFF760FB40B154F8440F40F0080044F887
:10141000040966702570BAE784F840502068416876
:10142000C90703D1416841F0010141602068C169E9
:10143000490503D4C16941F48061C1610020F8BD50
:101440007D210008592100083121000810B51649F6
:10145000884228D11548164903685B1C03600A6856
:101460004968120202EB112141600A0201D541F0E4
:101470007F4141F30F22C0E902126420B3FBF0F177
:1014800000FB113000280ED109480AA10C38FEF7E4
:1014900067FF07490A22BDE810404FF480530C391A
:1014A000064800F093BD10BDD000002000000020D1
:1014B0002C00002070636D3D25640A00D0010020DF
:1014C0007047704702488168027811448160704714
:1014D000100000200B4810B5016841F40071016054
:1014E000016841F480610160016841F4807101602C
:1014F000032000F06FF80F2000F006F800F024F849
:10150000002010BD003C024070B50D4D04464FF464
:101510007A712878B1FBF0F00A490968B1FBF0F064
:1015200000F080FC48B9102C07D200222146501E42
:1015300000F030F800206C6070BD012070BD00002C
:10154000100000201C0000200A4808B5016841F482
:1015500080410160006800F4804000900548001F51
:10156000016841F080510160006800F080500090F7
:1015700008BD000044380240002809DB00F01F02CB
:10158000012191404009800000F1E020C0F80011E5
:1015900070470000F0B40E4B1B680C46C3F30223E7
:1015A000C3F10705042D00D90425191D072901D20F
:1015B000002300E0DB1E012606FA05F1491E21404A
:1015C00099409E40761E16403143F0BC01F0C8B8E9
:1015D0000CED00E0064900F0070208684FF6FF0333
:1015E000184040EA0220034A104308607047000098
:1015F0000CED00E00000FA0501460020012908D1A9
:101600001149096811F4000104D0B1F5000F00D1AF
:101610000E4870470C48001F01680068490200F03E
:101620003F0001D50A4900E00A49074AB1FBF0F042
:101630007C321168C1F3881141431068C0F3027015
:10164000B1FBF0F070470000083802400080BB009A
:1016500040787D010024F4002DE9F8430546006838
:101660004FF00109C1074FF0000601D1400727D50F
:10167000DFF80C81C8F86860FFF75AFB0746414C59
:1016800005E000BFFFF754FBC01B022857D82068B5
:101690000001F7D468688101287A41EA007039496D
:1016A00084310860C8F86890FFF742FB074604E001
:1016B000FFF73EFBC01B022841D820680001F7D588
:1016C0002878800752D52F484030016841F080517A
:1016D000016000682C4C00F080500090206840F4BD
:1016E00080702060FFF724FB074604E0FFF720FB33
:1016F000C01B022823D82068C005F7D5214C7034C0
:10170000206810F4407020D0A98901F44071814212
:101710001BD020681D4920F44070C1F800900E6075
:1017200020602068C00710D0FFF702FB064641F298
:10173000883707E0FFF7FCFA801BB84202D9032084
:10174000BDE8F88320688007F4D5E9680D48C1F347
:1017500001220830032A0BD0016821F4F81101603E
:101760002068A989C1F30B01084320600020E7E746
:101770000268074B22F4F81219400A430260EFE7AF
:10178000000047420038024000700040400E4742CF
:10179000FFFCFF0F2DE9F0470E46050065D0DFF88E
:1017A0001481D8F80000F7B200F00700B04207D269
:1017B00088F80070D8F8000000F00700B04254D15B
:1017C00028683D4C810712D5400703D5206840F4B6
:1017D000E05020602878000703D5206840F460407E
:1017E00020602068A96820F0F00008432060287875
:1017F000C0072DD0304968680839012812D0022866
:1018000013D0032811D00968890700292DDA21682F
:1018100021F0030101432160FFF78AFA814641F27A
:10182000883A0EE009688903EFE709688901ECE767
:10183000FFF77EFAA0EB0901514502D90320BDE86C
:10184000F0872068696800F00C00B0EB810FEFD1E1
:10185000D8F80010404601F00701B14207D90770DF
:10186000006800F00700B04201D00120E7E72878C7
:10187000400705D52068E96820F4E050084320605F
:101880002878000706D52068296920F4604040EADE
:10189000C100206000F038F82168084AC1F3031144
:1018A000515CC8400649086006480068FFF72CFEF6
:1018B0000020C4E7003C024008380240CE27000860
:1018C0001C00002014000020044805490068096835
:1018D000044AC1F38221515CC84070471C000020BB
:1018E00008380240DE2700080448054900680968F6
:1018F000044AC1F34231515CC84070471C000020CB
:1019000008380240DE270008154810B5006810F0BE
:101910000C02144813D01449042A0FD0082A0ED1FF
:101920000F4C241F2268236802F03F025B0207D598
:101930002068C0F38810A0FB010106E0084610BD36
:101940002168C1F38811A1FB00010023FEF790FC80
:101950002168C1F30141491C4900B0FBF1F010BD01
:10196000083802400024F40040787D012DE9F84F4A
:1019700004006ED02078DFF84C93C007A9F104056D
:101980004AD009F104000168C1F38101012908D09E
:101990000068C0F3810002280AD1D9F80000400293
:1019A00006D52868800337D560680028E1D033E089
:1019B0006068B0F5803F10D0B0F5A02F286810D037
:1019C00020F480302860286820F480202860606837
:1019D000A8B1FFF7ADF906460DE0286840F4803065
:1019E000F4E740F480202860F7E700BFFFF7A0F994
:1019F000801B642873D828688003F7D50CE0FFF7B4
:101A000097F9064605E000BFFFF792F9801B6428AE
:101A1000F0D828688003F7D42078DFF8AC828007FC
:101A20004FF0000A3ED5A748001D016811F00C0FC9
:101A300008D00068C0F3810002280BD1D9F800005B
:101A4000400207D42868800716D5E068012800D135
:101A500012E033E1E068B8B10120C8F80000FFF7F8
:101A600067F9064605E000BFFFF762F9801B022810
:101A7000C0D828688007F7D52868216920F0F800C9
:101A800040EAC10028600DE0C8F800A0FFF750F957
:101A9000064604E0FFF74CF9801B02281FD828688F
:101AA0008007F7D42078000722D5864F87486169E0
:101AB000703771B101210160FFF73AF9064604E081
:101AC000FFF736F9801B022809D838688007F7D558
:101AD0000EE0C0F800A0FFF72BF9064605E082E013
:101AE000FFF726F9801B02287DD838688007F7D4D5
:101AF0002078400768D5DFF8CCB100270BF13C0B0C
:101B0000DBF80000C0000BD4DBF8001041F080517E
:101B1000CBF80010DBF80000012700F080500090A7
:101B20006B4E3068C00510D4306840F4807030606F
:101B3000FFF7FEF8009005E0FFF7FAF80099401A69
:101B4000022850D83068C005F6D55E4EA0686C36C5
:101B500001280FD00528306810D020F00100306037
:101B6000306820F004003060A068B8B1FFF7E0F8FA
:101B700000900FE0306840F00100F4E740F004000E
:101B80003060F7E7FFF7D4F80099411A41F2883046
:101B9000814266D830688007F4D50EE0FFF7C8F8B8
:101BA000009007E0FFF7C4F80099411A41F288302D
:101BB000814256D830688007F4D42FB1DBF800108A
:101BC00021F08051CBF80010A069C8B33D49091D30
:101BD0000968C1F3810102294AD00228504607D082
:101BE000C8F8600000E03CE0FFF7A2F804463BE0E4
:101BF0004746C8F86000FFF79BF8064605E000BFBF
:101C0000FFF796F8801B02282BD828688001F7D4AC
:101C1000D4E907010843A16A2E4A490802EB0141B1
:101C2000626A41EA8211084394F82C1040EA01618B
:101C3000C9F8001001203866FFF77AF8044606E07C
:101C40003EE000BFFFF774F8001B022809D828689F
:101C50008001F7D534E000BFFFF76AF8001B0228C7
:101C600002D90320BDE8F88F28688001F4D427E06A
:101C70000128F7D0D9F80000E26900F48001914210
:101C80001CD1226A00F03F01914217D147F6C07182
:101C9000626A0140B1EB821F10D1A26A4FF0FF339C
:101CA00000F4403103EB5202B1EB024F06D194F83D
:101CB0002C1000F07060B0EB016F01D00120D1E773
:101CC0000020CFE70438024000004742800E474220
:101CD000007000400000FFFF70B5040009D0606A8A
:101CE000002540B125616561A56294F8510040B1BD
:101CF0000CE0012070BD6068B0F5827FF4D0E56132
:101D0000F2E784F85050204600F044F8022084F8AE
:101D100051002068016821F040010160A0882189FC
:101D200000F4827001F404410843A18901F40061C8
:101D30000843217C01F002010843217D01F00101EB
:101D40000843218B01F400710843217F01F0380121
:101D5000084394F8201001F080010843218D01F41C
:101D60000051084321680860A069042101EA10407D
:101D700094F8241001F0100108432168486020689D
:101D8000C16921F40061C1616565012084F85100D9
:101D9000002070BDF0B587B0044614216846FEF7F8
:101DA0006CFB1C492068884232D11B480024016822
:101DB00041F480510160006800F48050059016489D
:101DC0001438016841F001010160016801F001016E
:101DD0000591016841F0020101600068022500F0F0
:101DE000020005902020CDE9000502AA0326052760
:101DF00082E8D00069460948FEF79CFE3020CDE914
:101E0000000502AA694682E8D0000548FEF792FE66
:101E100007B0F0BD003001404438024000000240ED
:101E20000004024010B5401EB0F1807F01D30120B4
:101E300010BD4FF0E02460610F21601700F090FCAE
:101E40000020A06107202061002010BD70B50400B3
:101E500004D094F84100002510B106E0012070BDC7
:101E600084F84050204600F023F8242084F84100F4
:101E70002068C16821F40051C160204600F0B0FB29
:101E80002068016921F4904101612068416921F0D5
:101E90002A0141612068C16841F40051C160656454
:101EA000202084F8410084F842006563002070BD62
:101EB0002DE9F04186B0064614216846FEF7DDFAAA
:101EC000DFF8F0C031683C480222032307273B4D6E
:101ED000002461454FD138491431D1F800C04CF08D
:101EE000100CC1F800C0096801F0100105910168EB
:101EF00041F0010101600068694600F001000590B1
:101F000058028DE81500CDE903372846FEF712FE8A
:101F10002C4D2B484FF000672860C5E901744FF441
:101F20008068C5E903486C61AC61EC612C622846AD
:101F30006C62FEF75DFD08B1FEF7D7FBF563AE639B
:101F4000204D1F4860357830E5E802074020A5E8BD
:101F500011011C4845F814496030AC61EC612C62F9
:101F60006C62FEF745FD08B1FEF7BFFBB563AE63DB
:101F700006B0BDE8F081144EB142F9D10E491031DE
:101F80000E6846F400360E60096801F400310591D0
:101F9000016841F0010101600068694600F001003C
:101FA00005900C208DE81500CDE903372846FEF793
:101FB000C1FDDDE700100140303802400000024062
:101FC0004064024060020020004400402DE9F843D4
:101FD000044690F84100984616460D46202802D047
:101FE0000220BDE8F88385B17EB100206064212025
:101FF00084F84100FEF79CFEA6848146E684A06832
:102000002027B0F5805F02D003E00120E9E72069D6
:1020100010B12E4600250EE000260CE0802120465F
:1020200000F064FBA8B9C6B116F8010B216848603E
:10203000E08C401EE084E08C4B464FF00002CDF86F
:1020400000800028EAD14FF04001204600F04EFB0E
:1020500040B184F841700320C3E735F8020BC0F3A8
:102060000800E3E784F841700020BAE7FEE70000CB
:1020700070B515490268154B4FF040248A4201D1D2
:102080001A4600E02246D568C26A961CC6621580D0
:10209000428E521E4286428E002A14D102688A4223
:1020A00001D1194600E02146496821F0600100D0C5
:1020B00023465960418D002905D14FF0010180F878
:1020C0004110FFF72FF870BD003800400034004089
:1020D00070B5416A144B8A1C426205680988134A2C
:1020E0004FF040249D4201D1154600E02546E960AD
:1020F000418D491E4185418D002914D101689942C5
:1021000001D1114600E02146496821F0A00100D02C
:1021100022465160418E002905D14FF0010180F81F
:102120004110FEF7FFFF70BD003800400034004052
:1021300010B5806B01684A6822F003024A600021F2
:1021400041854186012180F84110416C41F0080130
:102150004164FEF7E8FF10BD10B50146806BC96908
:1021600049B901684A6822F001024A6000214186AB
:10217000012180F84110FFF769F910BD10B5806B9F
:10218000FFF79EF910BD7CB5016804468868009091
:1021900094F841000125042834D10098C00718D0D4
:1021A0004868C043400614D4C9682046E26A1180DA
:1021B000E16A891CE162618E491E6186618E41B9C6
:1021C00001684A6822F060024A6080F84150FFF7D7
:1021D0003DF90098400615D520684168C943890635
:1021E00010D4416821F0600141602068C1688068B6
:1021F000019084F84150606C40F002006064204619
:10220000FEF791FF94F84100032834D1009880072D
:1022100019D521684868C043000614D4626A204674
:102220001288CA60616A891C6162618D491E61857C
:10223000618D41B901684A6822F0A0024A6080F8C5
:102240004150FFF73EF90098000714D52068416817
:10225000C94389060FD4416821F0A001416020687C
:102260008068009084F84150606C40F00400606425
:102270002046FEF758FF7CBD0C4810B50A490160A6
:10228000102141600021816041618161C177017746
:10229000417781770162FEF72AFA002803D0BDE872
:1022A0001040FEF722BA10BD000005503C0000208F
:1022B000154808B5016841F400110160016801F496
:1022C00000110091016841F4800101600068002262
:1022D00000F48000009011460E20FFF75BF90E20FD
:1022E000FFF74AF9002211463A20FFF753F93A2046
:1022F000FFF742F9002211464620FFF74BF9BDE8EF
:1023000008404620FFF738B93038024070B586B033
:1023100014216846FEF7B1F821480024016841F015
:1023200010010160016801F010010591016841F0A0
:1023300080010160016801F080010591016841F0B0
:1023400004010160016801F004010591016841F098
:1023500001010160016801F001010591016841F08E
:102360000201016000680F4E00F00200059000229B
:1023700010213046FEF7D6FC0125CDE90054694610
:1023800009480294FEF7D6FB10200090CDE90154D5
:10239000694630460394FEF7CDFB06B070BD0000E1
:1023A0003038024000080240000002400D4810B5DD
:1023B0000B4901600C49416000214FF4804281606B
:1023C000C0E9031241618161C1610162FEF7B6FC9F
:1023D000002803D0BDE81040FEF787B910BD00000B
:1023E000005400407C000020A08601000E4810B57B
:1023F0000C4901604FF44071416000210322C0E9A3
:1024000002124FF4FA52C0E904128161C161016203
:10241000FEF78AFE002803D0BDE81040FEF765B93C
:1024200010BD000000380040D00000200F4810B55B
:102430000D4901604FF48271416000218160C160EB
:102440004FF400720161C0E90512C161016241628D
:1024500081620A21C162FFF73FFC002803D0BDE87A
:102460001040FEF742B910BD003001407801002055
:102470000C4810B50A4901604FF4E1314160002178
:1024800081600C22C160C0E904128161C161FFF763
:10249000DDFC002803D0BDE81040FEF726B910BDD2
:1024A00000100140D00100200C4810B50A4901601D
:1024B0004FF4E1314160002181600C22C160C0E92C
:1024C00004128161C161FFF7C1FC002803D0BDE89F
:1024D0001040FEF70AB910BD004400401802002069
:1024E000FEE7FEE770477047FEF7ECBF30B593B0EC
:1024F00030216846FDF7C1FF14210CA8FDF7BDFF90
:102500001D480025016841F080510160006800F01D
:10251000805011901948016841F4804101600068C1
:10252000022400F4804011900120039010200490B8
:10253000009406940820CDE90750A820CDE90904AD
:1025400004200B906846FFF711FA08B172B6FEE757
:102550000CA90F2081E831004FF4A0500F904FF4E8
:102560008050109005210CA8FFF714F9002801D025
:1025700072B6FEE713B030BD403802400070004034
:102580000248016841F470010160704788ED00E085
:1025900001680C3151E8002F22F4907241E80023C9
:1025A000002BF5D10168143151E8002F22F001020F
:1025B00041E80023002BF5D1016B012909D1016805
:1025C0000C3151E8002F22F0100241E80023002BCB
:1025D000F5D1202180F842100021016370470000EE
:1025E00070B5044600680169E26821F44051114366
:1025F00001612169A068E2690843616911430843E8
:102600002168CA6849F20C639A430243CA60206891
:102610004169A26921F44071114341613149206847
:10262000884202D03049884202D1FFF75DF901E0CB
:10263000FFF74AF9E2690023192164253226B2F531
:10264000004F626828D0A0FB0101930F9200FDF7B4
:102650000FFE0146B0FBF5F06FF01802504301EB9E
:10266000800006EB0010B0FBF5F000F0F002B1FBCB
:10267000F5F002EB0012B1FBF5F06FF018035843D0
:1026800001EB800006EB0010B0FBF5F000F00F004E
:1026900021681044886070BDA0FB010192185B4165
:1026A000FDF7E6FD0146B0FBF5F00201B1FBF5F0E8
:1026B0006FF01803584301EB800006EBC000B0FB3D
:1026C000F5F000F0F80002EB4002B1FBF5F05843E2
:1026D00001EB800006EBC000B0FBF5F000F0070056
:1026E000D6E7000000100140001401402DE9F84336
:1026F000984617460D460446089E24E0701C22D0DA
:10270000FEF716FBA0EB0800B0421AD8CEB1206845
:10271000C168490717D5802D15D0402D13D0016809
:10272000C94309070FD4016800254068009020467E
:10273000FFF72EFF0820606484F840500120BDE8B8
:10274000F8830320FBE72068006835EA000004D026
:102750000020B842D2D00020F1E70120F9E7FEE7DF
:102760000907090E002804DB00F1E02080F80014BE
:10277000704700F00F0000F1E02080F8141D704752
:10278000FEF7A8FEFFF7B2FEFFF7C0FDFFF790FDD2
:10279000FFF72CFEFFF76CFEFFF76EFDFFF706FE5E
:1027A000FFF744FEFFF780FE042202490248FEF7CD
:1027B000E5FDFEE72C000020D00000204FF0407027
:1027C000E1EE100A70470006101600061016000011
:1027D00000000000000001020304060708090000D1
:1027E0000000010203040000082800080000002087
:1027F00020000000C4010008282800082000002054
:1028000060090000E0010008000000000000000076
:1028100000000000000000000100000010000000A7
:08282000000000000024F40098
:040000050800018965
:00000001FF
