:020000040800F2
:10000000200B00209D010008C727000839230008A5
:10001000C527000867080008AF2A00080000000094
:10002000000000000000000000000000CB270008D6
:10003000A509000800000000C927000839280008A9
:10004000B7010008B7010008B7010008B7010008B0
:10005000B7010008B7010008B7010008B7010008A0
:10006000B7010008B7010008B7010008B701000890
:10007000B7010008B7010008DD080008B701000853
:10008000B7010008B7010008B7010008B701000870
:10009000B7010008B7010008B7010008B701000860
:1000A000B7010008B7010008B7010008B701000850
:1000B000B7010008B7010008B7010008B701000840
:1000C000B7010008B7010008B7010008B701000830
:1000D000B7010008B7010008B7010008B701000820
:1000E000B7010008B7010008B7010008B701000810
:1000F000B7010008B7010008B7010008B701000800
:10010000B7010008B7010008B7010008B7010008EF
:10011000B7010008B7010008B7010008B7010008DF
:10012000B7010008B7010008E9080008B701000896
:10013000B7010008B7010008B7010008B7010008BF
:10014000B7010008B7010008B7010008B7010008AF
:10015000B7010008B7010008F5080008B70100085A
:10016000B7010008B7010008B7010008B70100088F
:10017000B7010008B7010008B7010008000000003F
:10018000B7010008B7010008DFF80CD000F04CFB05
:1001900000480047515C0008200B002006488047BB
:1001A00006480047FEE7FEE7FEE7FEE7FEE7FEE75C
:1001B000FEE7FEE7FEE7FEE7D12800088901000818
:1001C0002DE9F05F0546002092469B46884606468C
:1001D000814640241BE0284641464746224600F01F
:1001E0006CFA53465A46C01A914110D3114618462C
:1001F000224600F053FA2D1A67EB01084F462246BB
:100200000120002100F04AFA17EB00094E41201EA0
:10021000A4F10104DFDC484631462A464346BDE8E6
:10022000F09F10B5431A934209D28318881803E04F
:1002300010F8011D03F8011D521EF9D210BD40EA4D
:1002400001039B0703D009E008C9121F08C0042A54
:10025000FAD203E011F8013B00F8013B521EF9D23B
:1002600010BDD2B201E000F8012B491EFBD270474D
:100270000022F6E710B513460A4604461946FFF772
:10028000F0FF204610BD10B54843044603F008F9BE
:10029000002805D00021002C02D0641E0155FAE789
:1002A00010BD2DE9FE4F804681EA0300C00F0C46C9
:1002B000009021F0004123F00045B8EB0200A94175
:1002C00005D24046214690461C460B46024623F086
:1002D0000040104347D0270DC7F30A00C3F30A516B
:1002E0000290401A019040286BDAC3F3130040F4E7
:1002F000801B0098924620B10023D2EB030A63EBE7
:100300000B0B01985946C0F14002504600F0C6F967
:1003100006460D4650465946019A00F0DEF910EBAC
:1003200008006141002487EA115284EAE7731A4306
:1003300040D0009A62B3019A012A4FEA075215DCB5
:10034000001B61EB02014FF0004202EA0752CDE9C7
:100350000042001C41F5801132462B4600F015FA90
:1003600003B0BDE8F08F40462146F9E7001B61EB82
:100370000201001C41F5801300185B412018A2F512
:10038000001747EB030140EAD570B6196D4111E043
:100390006D084FEA360645EAC0754FEA0752001B62
:1003A00061EB0201001C41F5801149084FEA300061
:1003B0000019514132462B4603B0BDE8F04F00F022
:1003C000D5B90098012240000023D0EB020263EB74
:1003D000E073009821464FEAE074B8EB000061EB4F
:1003E0000401E9E783F000435BE781F0004158E74F
:1003F0002DE9FE4F81EA030404F0004421F000419E
:1004000000944FF0000B23F0004350EA01045ED04B
:1004100052EA03045BD0C3F30A54C1F30A552C44D7
:10042000A4F2F3340194A0FB0254C1F3130141F48C
:100430008011C3F3130343F4801301FB024400FB58
:10044000034E840A970A44EA815447EA8357A4FB7F
:10045000076802958D0A05FB07854FEA932C04FB7C
:100460000C542705029D4FEA065847EA1637B5EBAC
:1004700008056EEB070C870E920E47EA811742EAD9
:100480008312A7FB0201B6EB0B0164EB00042B0DFA
:1004900043EA0C335E1844EB1C50DA465146E7FB46
:1004A0000201C5F313044FEA0B3343EA14534FEA36
:1004B0000432019C43EA0603A4F10C040294009C5C
:1004C000CDE900B400F061F903B0BDE8F08F002081
:1004D0000146F9E72DE9F04D81EA030404F0004BF1
:1004E00021F0004514464FF0000A23F0004150EA85
:1004F000050220D054EA01021DD0C5F30A57024676
:10050000C5F31303C1F31300C1F30A5640F4801579
:1005100043F48013A7EB0608101BD64608F2FD38FB
:1005200073EB050002D308F1010801E092185B416A
:10053000B8F1000F03DA00200146BDE8F08D00207D
:100540004FF48011064684460EE0171B73EB050737
:1005500005D3121B63EB050306434CEA010C490863
:100560004FEA300092185B4150EA0107EDD152EAA0
:10057000030012D082EA040083EA0501084305D093
:10058000101BAB4106D20122002306E000224FF0EF
:10059000004302E06FF0010253101AEB06004CEB2F
:1005A000085110EB0A0041EB0B01BDE8F04D00F0E3
:1005B000DDB80EB5C10F80EAE0700844CA0700211B
:1005C00040F233438DE80E000A460B4600F0DDF89A
:1005D00003B000BD70B5C1F30A5201F0004500241C
:1005E000C1F3130140F2FF3341F480119A4201DA62
:1005F000002070BD40F233439A42A2F2334203DC42
:10060000524200F05AF800E090402C43F1D04042B2
:1006100070BD00F0004230F000400AD0C10D01F57D
:100620006071C0F3160042EA0151C208400711434D
:10063000704700200146704701F0004330B421F0BC
:10064000004150EA010206D00A0DA2F56072C1F322
:100650001301002A02DC30BC00207047440F44EA3A
:10066000C104C100E01830BC00EBC25000F047B834
:1006700030B50B46014600202022012409E021FA72
:1006800002F59D4205D303FA02F5491B04FA02F56F
:100690002844151EA2F10102F1DC30BD202A04DB42
:1006A000203A00FA02F1002070479140C2F1200385
:1006B00020FA03F3194390407047202A04DB203AC4
:1006C00021FA02F00021704721FA02F3D040C2F172
:1006D00020029140084319467047202A06DBCB17B9
:1006E000203A41FA02F043EAE07306E041FA02F3ED
:1006F000D040C2F1200291400843194670470029BA
:10070000A8BF7047401C490008BF20F00100704797
:1007100010B4B0FA80FC00FA0CF050EA010404BFF7
:1007200010BC704749B1CCF1200421FA04F411FA4D
:100730000CF118BF012121430843A3EB0C01CB1D91
:100740004FEA00614FEA102042BF002010BC704702
:1007500000EBC35010440029A4BF10BC7047401CDC
:10076000490008BF20F0010010BC704710B5141EEE
:1007700073F1000408DA401C41F1000192185B415A
:100780001A4301D120F0010010BD2DE9F04D924631
:100790009B4611B1B1FA81F202E0B0FA80F2203248
:1007A0009046FFF77BFF04460F4640EA0A0041EA05
:1007B0000B0153465A46084313D0114653EA010031
:1007C00019D0C8F140025046FFF777FF05460E46A4
:1007D000504659464246FFF761FF084305D00120C5
:1007E00004E020463946BDE8F08D0020054346EA86
:1007F000E0762C4337430A986305E40AA0EB08002F
:100800000022FD0A44EA47540A3002D5002001467E
:10081000E9E7010510196941DDE908450019694159
:10082000BDE8F04DA2E70000064C074D06E0E06889
:1008300040F0010394E8070098471034AC42F6D327
:10084000FFF7A6FC60720008807200080EB540F247
:10085000334102910021CDE900110A460B46FFF712
:1008600094FF03B000BDFEE7B1EBE03F02DC47F6CA
:10087000FF707047B1F5000F01DB00120912B1F5EE
:10088000002F01DB00110911B1F5004F01DB001150
:100890000911C0EBC03009B290FBF1F000B2704713
:1008A000B1EBE01F02DC47F6FF707047B1F5000FB7
:1008B00001DB00120912B1F5002F01DB0011091153
:1008C000B1F5004F01DB0011091141F34E0202EBBB
:1008D000002009B290FBF1F000B27047014800F02F
:1008E00015B9000018030020014800F00FB90000FE
:1008F00060040020014800F009B90000C004002095
:1009000001681823CAB2103AB2FBF3F2054B6FF339
:100910000901032A9B5CC36500D9091D816508464E
:1009200070470000F470000810B5014600208B6984
:100930008A6A4FF0C07453B1B3F5005F15D072B13D
:10094000012A0CD0022A0AD0032A09D104E01AB1E4
:10095000012A06D0022A03D1C96AC90100D50120A3
:1009600010BDC96AA142FAD010BD002AF7D0012AF1
:10097000F2D0022AF3D0032AF3D010BD30B50468B8
:10098000256825F480252560046863608368402B12
:10099000036803D099600068C26030BD9A60006847
:1009A000C16030BD704772B6FEE770B5040004D078
:1009B00094F82500002510B109E0012070BD84F8ED
:1009C0002450204600F032F8204600F02FF8022094
:1009D00084F825002068016840F6F87291430160B0
:1009E000616960680843D4E9031211430843A168B0
:1009F0000843A1690843216A084321680A68104333
:100A000008606068102805D1E17FE06961F31F602C
:100A1000216888612068C16841F01E01C160E563FA
:100A2000012084F82500002070BD0000F0B587B0DB
:100A3000044614216846FFF71BFC2E4920688842B3
:100A400055D12D480024016841F001010160006882
:100A500000F0010005902848001F016841F01001D6
:100A60000160016801F010010591016841F0010188
:100A70000160016801F001010591016841F0040184
:100A80000160016801F004010591016841F0020173
:100A900001600068022500F00200059070200090BF
:100AA000CDE901540D26CDE903466946134800F00F
:100AB0009FF940270097CDE90154CDE903466946E7
:100AC0000F4800F095F94FF470700090CDE9015493
:100AD000CDE9034669460B4800F08AF90097CDE955
:100AE0000154CDE903466946074800F081F907B093
:100AF000F0BD0000000005503438024000100240F4
:100B00000000024000080240000402402DE9F843C2
:100B100004464FF00009CDF8009063484FF4165199
:100B2000A56D0068B0FBF1F72E6894F85C10082002
:100B300000FA01F131420FD021680A6852070BD543
:100B40000A6822F004020A6094F85C108840A860E9
:100B5000606D40F00100606594F85C104FF0010892
:100B600008FA01F0304208D021684969090604D525
:100B7000A860606D40F00200606594F85C1004208D
:100B80008840304208D021680968890704D5A860E8
:100B9000606D40F00400606594F85C10102088409F
:100BA000304218D021680968090714D5A860206868
:100BB0000168490304D50068000308D5A16C07E06B
:100BC0000168C90503D4016821F008010160216CA6
:100BD00009B12046884794F85C10202088403042B4
:100BE00031D021680968C9062DD5A86094F8350070
:100BF00005282068016806D0490347D5006800032E
:100C00001DD4616C1CE021F016010160206841696F
:100C100021F080014161206C08B9A06C20B12068EE
:100C2000016821F00801016094F85C103F208840C1
:100C3000A86084F8358084F83490216D1FE0E16B62
:100C400009B120468847606D00282BD0606DC00731
:100C500014D0052084F835002068016821F00101D6
:100C600001600098401C0090B84203D820680068DA
:100C7000C007F6D184F8358084F83490E16C0029FF
:100C800010D001B02046BDE8F04308470168C9050F
:100C9000D5D4016821F01001016084F8358084F812
:100CA0003490CCE7BDE8F883180000202DE9F0412E
:100CB000044600F09BF906465CB1022084F835003A
:100CC000002584F834502068016821F0010101609A
:100CD0000DE00120BDE8F08100F088F9801B0528B7
:100CE00005D920206065032084F83500F2E72068EC
:100CF0000068C007F0D12268116820480140D4E99B
:100D000001031843D4E90336334318436369184396
:100D1000A3691843E3691843236A18430843616AC7
:100D2000042903D1D4E90B13194308431060206848
:100D30004069666A20F0070130460E430127042807
:100D40000CD1A06A0643E06A40B12046FFF7ECFDF3
:100D500020B14020606584F83570BAE720684661AC
:100D60002046FFF7CDFD94F85C203F219140816043
:100D7000656584F835700020ACE700003F8010F016
:100D80002DE9F0410446866D90F8340000250128D5
:100D90000DD0012084F8340094F835700020012F24
:100DA00007D084F8340002252846BDE8F0810220EF
:100DB000FBE7022784F8357060652046FFF7DEFD0B
:100DC00094F85C103F208840B0602068016841F0D2
:100DD00016010160206C20B12068016841F0080113
:100DE00001602068016841F001010160DCE700005A
:100DF0002DE9F84FDFF8BCA10022012503264FF0B2
:100E00000F090AF1040BAAF1040E00BF0B6805FAE2
:100E100002F42340A34270D10F7907F00307012F9A
:100E200001D0022F16D187684FEA420806FA08FC63
:100E300027EA0C07D1F80CC00CFA08FC4CEA070CA6
:100E4000C0F808C04768A7430C79C4F30014944065
:100E50003C4344600C79E443A4070AD0C4684FEAD9
:100E6000420C06FA0CF7BC438F6807FA0CF72743CD
:100E7000C7600C7904F00304022C12D1D40800EBF3
:100E8000840CDCF820405707FF0E09FA07F824EA23
:100E90000804D1F8108008FA07F848EA0408CCF8EA
:100EA000208004684FEA420C06FA0CF7BC430F7925
:100EB00007F0030707FA0CF7274307604C6814F4A0
:100EC000403F70D03C4C276847F480472760246837
:100ED00022F0030704F480440094384C07EB040C20
:100EE000DCF8084897074FEA177809FA08F7BC4377
:100EF000334FB84202D1002724E054E0314FB842CA
:100F000001D101271EE0304FB84201D1022719E07C
:100F10002E4FB84201D1032714E02D4FB84201D122
:100F200004270FE02B4FB84201D105270AE02A4FD2
:100F3000B84201D1062705E0284FB84201D1072762
:100F400000E0082707FA08F72743CCF80878DAF812
:100F500000405746D1F804C09C435FEACC2C00D532
:100F60001C433C60DBF800405F46D1F804C09C4362
:100F70005FEA8C2C00D51C433C60DEF800407746CD
:100F8000D1F804C09C435FEA8C3C00D51C433C6014
:100F9000084F083F3C68D1F804C09C435FEACC3C52
:100FA00000D51C433C60521C102AFFF42FAFBDE853
:100FB000F88F0000083C01404438024000300140F6
:100FC000000002400004024000080240000C024001
:100FD000001002400014024000180240001C0240B1
:100FE0000AB1816170470904FBE70000014880688D
:100FF000704700000C00002070B5040025D094F864
:101000003D00002520B984F83C50204600F0B8F897
:10101000242084F83D002068016821F0010101606E
:101020002068016841F4004101602068016821F4F2
:101030000041016000F0AEFD4D4A6168914201D867
:101040004C4900E04C49884201D2012070BD4B4917
:101050002368B0FBF1F15E6826F03F060E435E6048
:101060006368934206D94FF4967359434FF47A73E9
:10107000B1FBF3F12368491C1E6A26F03F06314399
:1010800019626168914210D84900401EB0FBF1F22C
:10109000521CC2F30B02042A01D2042022E0B0FB4E
:1010A000F1F0401CC0F30B001CE0A268F2B301EBAE
:1010B000C10303EB0116431EB3FBF6F35B1C43F4C1
:1010C00080431B0549D092B301EBC10202EB011131
:1010D000401EB0FBF1F0401CC0F30B0040F4804018
:1010E00040F400402168CA694CF6FF739A431043EC
:1010F000C861D4E9071001432068026822F0C002E9
:1011000011430160D4E9030101432068826848F279
:10111000FF339A4311438160D4E9050108432168F4
:10112000CA6822F0FF021043C86001E00EE016E03A
:101130002068016841F0010101602564202084F8E5
:101140003D00256384F83E50002070BD01EB410650
:10115000431EB3FBF6F35B1CB3E70120C2E701EBD0
:101160004101401EB0FBF1F0401CC0F30B00B7E79B
:10117000A086010080841E0000093D0040420F004F
:1011800010B586B0044614216846FFF771F814497B
:101190002068884221D113480021026842F00202EF
:1011A0000260006800F0020005904FF4407000906B
:1011B0001220CDE901010320039004200490694628
:1011C0000948FFF715FE07481030016841F4001187
:1011D0000160006800F40010059006B010BD00002A
:1011E0000054004030380240000402402DE9FF4125
:1011F00004460068816800917749784E4FF0402797
:10120000884201D1324600E03A4692680192406835
:101210008846029001D1304600E03846406803908D
:1012200060684FF00105B0F5007F1CD0D8B1900781
:1012300005D50398000602D5204601F0AFF80098C6
:10124000C0070FD0029840067FD521682046CA68A3
:10125000E16A8B1CE3620A80618E491E6186618EA1
:10126000002967D071E00098800719D50298000620
:1012700016D5616A20468A1C626222680988D1609C
:10128000618D491E6185618D51B901684A6822F0FE
:10129000A0024A60418E19B980F8415000F0A0F8D0
:1012A0000198C00705D00398400602D5204601F0FA
:1012B00045F80198400622D5039880061FD521687D
:1012C000414501D1304600E03846406820F06001D9
:1012D00001D1304600E0384641602068416821F085
:1012E000A00141602068C1688068019084F8415085
:1012F000606C40F002006064204600F072F80098D4
:10130000000767D50298800664D52068416821F0FF
:10131000A00141602168414501D1304600E03846D6
:10132000406820F0600000D03E4670602068806811
:10133000009043E001684A6822F060024A60418DF3
:1013400019B980F8415000F04BF8009840061ED5BE
:10135000029880061BD52068416821F06001416039
:101360002168414501D1304600E03846406820F010
:10137000A00101D1304600E03846416084F8415078
:10138000606C40F002006064204600F02AF801988A
:1013900000071FD5039880061CD52168414501D15F
:1013A000304600E03846406820F0A00000D03E46BD
:1013B00070602068416821F06001416084F841500C
:1013C000606C40F00400606404B02046BDE8F04169
:1013D00000F007B8BDE8FF8100380040003400404D
:1013E000704770472DE9F047040005D094F841009C
:1013F0004FF0000818B109E00120BDE8F08784F83B
:10140000408051486063204600F0A6F8022684F828
:1014100041602068C16940F6BF77B943C161206867
:10142000066260694FF4007902282FD0E06870B13D
:101430002025A068202800D86D00012000F042FA85
:10144000216949451FD1E16819B1A90002E01025C1
:10145000EFE7E900B0FBF1F000EB800061694000CC
:10146000B0FBF1F0401D0A21B0FBF1F000F00101EA
:10147000401A40080902821EFE2A09D3606C40F01F
:1014800010006064B8E7B0FBF5F0E5E7022000214A
:1014900022690843024320680262D4E9010108433B
:1014A000A269E168114308432168CA69BA4310433D
:1014B00040F40060C861206A01283AD12348606383
:1014C00023482168234A4FF04023814201D111462D
:1014D00000E01946C96921EA070101D1154600E07B
:1014E0001D46E9612168814201D1114600E019469B
:1014F0000E622568854201D1114600E01946C9698E
:101500008EB2616849451BD0D1B100212789B4F85A
:101510000CC047EA0C07B4F818C04CEA010C47EAC3
:101520000C07B9B2314341F40061854200D01A463C
:10153000D161C4F84480012084F8410000205CE7B8
:101540004FF48071E2E7000053240008ED11000819
:101550000038004000340040F0B58BB0064614213E
:101560006846FEF785FE00250595069507950895C2
:101570002B493068884250D1012005903220022446
:10158000CDE9060405A800F0CDF908B1FFF70BFA84
:101590002448016841F4804101600068214900F459
:1015A000804010390990086840F00400086008681D
:1015B00000F004000990086840F002000860086824
:1015C000052700F00200099008208DE83100CDE9E0
:1015D000035769461448FFF70BFCB8028DE8310049
:1015E000CDE9035769461148FFF702FC114C10483A
:1015F000C4E900050015A560C4E90350400060611E
:101600008000C4E90605256220466562FFF74EFBAF
:1016100008B1FFF7C8F9F463A6630BB0F0BD000092
:1016200000380040403802400008024000040240F8
:101630005860024018030020F8B5044629B122B1D1
:1016400094F84100012829D101E00120F8BD94F867
:101650004000012822D0012684F84060042084F84C
:10166000410000256564E1622068C06900F0070060
:10167000032815D0052813D022866286E16B1F4807
:101680000864E16B1E48C863E16B1E48C8642168AA
:10169000C869C0F30120032809D00BE00220F8BD7F
:1016A0004FF6FF7000EA420020866086E6E7C868D1
:1016B00088680090238E0C31E26AE06BFFF760FBD4
:1016C00040B154F8440F40F0080044F80409667033
:1016D0002570BAE784F8405020684168C90703D1F3
:1016E000416841F0010141602068C169490503D4A6
:1016F000C16941F48061C1610020F8BD492400083E
:1017000025240008FD23000870B51749884229D117
:10171000164C012060702078154DC0F10100C1B257
:1017200021706068401C0522B0FBF2F3606002FB90
:10173000130060B901EB810005EB4010B0F9002007
:1017400005F5A070B0F900100AA001F0BFF92078EB
:10175000502200EB800005EB4010BDE870400A49C4
:1017600000F0F0BE70BD0000D0020020000000209C
:101770005C00002070636D3D2564207370656578A2
:101780003D25640D0A0000009C0100207047704751
:101790000248816802781144816070470C00002083
:1017A0000B4810B5016841F400710160016841F413
:1017B00080610160016841F480710160032000F0E4
:1017C0006FF80F2000F006F800F024F8002010BD9C
:1017D000003C024070B50D4D04464FF47A712878F4
:1017E000B1FBF0F00A490968B1FBF0F000F080FCB1
:1017F00048B9102C07D200222146501E00F030F8C4
:1018000000206C6070BD012070BD00000C00002045
:10181000180000200A4808B5016841F480410160C1
:10182000006800F4804000900548001F016841F006
:1018300080510160006800F08050009008BD0000F9
:1018400044380240002809DB00F01F0201219140CA
:101850004009800000F1E020C0F80011704700004E
:10186000F0B40E4B1B680C46C3F30223C3F107050B
:10187000042D00D90425191D072901D2002300E0F9
:10188000DB1E012606FA05F1491E214099409E40C3
:10189000761E16403143F0BC01F040B90CED00E07B
:1018A000064900F0070208684FF6FF03184040EAB7
:1018B0000220034A10430860704700000CED00E06E
:1018C0000000FA0501460020012908D111490968E4
:1018D00011F4000104D0B1F5000F00D10E4870479B
:1018E0000C48001F01680068490200F03F0001D564
:1018F0000A4900E00A49074AB1FBF0F07C3211685E
:10190000C1F3881141431068C0F30270B1FBF0F0DD
:1019100070470000083802400080BB0040787D011D
:101920000024F4002DE9F843054600684FF0010952
:10193000C1074FF0000601D1400727D5DFF80C8121
:10194000C8F86860FFF752FB0746414C05E000BF4E
:10195000FFF74CFBC01B022857D820680001F7D4C2
:1019600068688101287A41EA007039498431086049
:10197000C8F86890FFF73AFB074604E0FFF736FB2C
:10198000C01B022841D820680001F7D528788007BD
:1019900052D52F484030016841F080510160006805
:1019A0002C4C00F080500090206840F48070206043
:1019B000FFF71CFB074604E0FFF718FBC01B0228DB
:1019C00023D82068C005F7D5214C7034206810F466
:1019D000407020D0A98901F4407181421BD0206859
:1019E0001D4920F44070C1F800900E60206020680E
:1019F000C00710D0FFF7FAFA064641F2883707E031
:101A0000FFF7F4FA801BB84202D90320BDE8F8833F
:101A100020688007F4D5E9680D48C1F30122083039
:101A2000032A0BD0016821F4F81101602068A9890C
:101A3000C1F30B01084320600020E7E70268074B71
:101A400022F4F81219400A430260EFE7000047420F
:101A50000038024000700040400E4742FFFCFF0F7C
:101A60002DE9F0470E46050065D0DFF81481D8F85F
:101A70000000F7B200F00700B04207D288F800700B
:101A8000D8F8000000F00700B04254D128683D4C5F
:101A9000810712D5400703D5206840F4E05020604C
:101AA0002878000703D5206840F460402060206853
:101AB000A96820F0F000084320602878C0072DD0E6
:101AC000304968680839012812D0022813D0032849
:101AD00011D00968890700292DDA216821F0030156
:101AE00001432160FFF782FA814641F2883A0EE015
:101AF00009688903EFE709688901ECE7FFF776FADF
:101B0000A0EB0901514502D90320BDE8F087206808
:101B1000696800F00C00B0EB810FEFD1D8F800102D
:101B2000404601F00701B14207D90770006800F094
:101B30000700B04201D00120E7E72878400705D52B
:101B40002068E96820F4E050084320602878000706
:101B500006D52068296920F4604040EAC100206071
:101B600000F038F82168084AC1F30311515CC840FD
:101B70000649086006480068FFF72CFE0020C4E70D
:101B8000003C024008380240FC70000818000020A9
:101B9000100000200448054900680968044AC1F3A0
:101BA0008221515CC840704718000020083802406C
:101BB0000C7100080448054900680968044AC1F32B
:101BC0004231515CC840704718000020083802407C
:101BD0000C710008154810B5006810F00C0214488C
:101BE00013D01449042A0FD0082A0ED10F4C241FF9
:101BF0002268236802F03F025B0207D52068C0F329
:101C00008810A0FB010106E0084610BD2168C1F361
:101C10008811A1FB00010023FEF7D2FA2168C1F36D
:101C20000141491C4900B0FBF1F010BD08380240E9
:101C30000024F40040787D012DE9F84F04006ED0B7
:101C40002078DFF84C93C007A9F104054AD009F1C8
:101C500004000168C1F38101012908D00068C0F3C4
:101C6000810002280AD1D9F80000400206D5286870
:101C7000800337D560680028E1D033E06068B0F5B4
:101C8000803F10D0B0F5A02F286810D020F480300D
:101C90002860286820F4802028606068A8B1FFF7D9
:101CA000A5F906460DE0286840F48030F4E740F4DA
:101CB00080202860F7E700BFFFF798F9801B6428B1
:101CC00073D828688003F7D50CE0FFF78FF9064634
:101CD00005E000BFFFF78AF9801B6428F0D8286868
:101CE0008003F7D42078DFF8AC8280074FF0000A39
:101CF0003ED5A748001D016811F00C0F08D0006800
:101D0000C0F3810002280BD1D9F80000400207D4AB
:101D10002868800716D5E068012800D112E033E179
:101D2000E068B8B10120C8F80000FFF75FF9064687
:101D300005E000BFFFF75AF9801B0228C0D82868C9
:101D40008007F7D52868216920F0F80040EAC10033
:101D500028600DE0C8F800A0FFF748F9064604E047
:101D6000FFF744F9801B02281FD828688007F7D4A2
:101D70002078000722D5864F87486169703771B196
:101D800001210160FFF732F9064604E0FFF72EF962
:101D9000801B022809D838688007F7D50EE0C0F804
:101DA00000A0FFF723F9064605E082E0FFF71EF9E1
:101DB000801B02287DD838688007F7D42078400738
:101DC00068D5DFF8CCB100270BF13C0BDBF8000045
:101DD000C0000BD4DBF8001041F08051CBF80010AC
:101DE000DBF80000012700F0805000906B4E306857
:101DF000C00510D4306840F480703060FFF7F6F80A
:101E0000009005E0FFF7F2F80099401A022850D838
:101E10003068C005F6D55E4EA0686C3601280FD03C
:101E20000528306810D020F001003060306820F0C4
:101E300004003060A068B8B1FFF7D8F800900FE058
:101E4000306840F00100F4E740F004003060F7E74C
:101E5000FFF7CCF80099411A41F28830814266D8E8
:101E600030688007F4D50EE0FFF7C0F8009007E077
:101E7000FFF7BCF80099411A41F28830814256D8E8
:101E800030688007F4D42FB1DBF8001021F08051C6
:101E9000CBF80010A069C8B33D49091D0968C1F31A
:101EA000810102294AD00228504607D0C8F86000B4
:101EB00000E03CE0FFF79AF804463BE04746C8F8EC
:101EC0006000FFF793F8064605E000BFFFF78EF8C5
:101ED000801B02282BD828688001F7D4D4E9070199
:101EE0000843A16A2E4A490802EB0141626A41EAAD
:101EF0008211084394F82C1040EA0161C9F80010DF
:101F000001203866FFF772F8044606E03EE000BFA5
:101F1000FFF76CF8001B022809D828688001F7D564
:101F200034E000BFFFF762F8001B022802D903204B
:101F3000BDE8F88F28688001F4D427E00128F7D0A5
:101F4000D9F80000E26900F4800191421CD1226AB4
:101F500000F03F01914217D147F6C071626A01401B
:101F6000B1EB821F10D1A26A4FF0FF3300F4403171
:101F700003EB5202B1EB024F06D194F82C1000F0A3
:101F80007060B0EB016F01D00120D1E70020CFE7F6
:101F90000438024000004742800E47420070004073
:101FA0000000FFFF70B5040009D0606A002540B151
:101FB00025616561A56294F8510040B10CE00120F3
:101FC00070BD6068B0F5827FF4D0E561F2E784F817
:101FD0005050204600F044F8022084F85100206858
:101FE000016821F040010160A088218900F482701D
:101FF00001F404410843A18901F400610843217CF4
:1020000001F002010843217D01F001010843218B09
:1020100001F400710843217F01F03801084394F86E
:10202000201001F080010843218D01F40051084384
:1020300021680860A069042101EA104094F8241086
:1020400001F010010843216848602068C16921F44B
:102050000061C1616565012084F85100002070BDF8
:10206000F0B587B0044614216846FEF701F91C4913
:102070002068884232D11B480024016841F4805115
:102080000160006800F4805005901648143801681B
:1020900041F001010160016801F001010591016851
:1020A00041F0020101600068022500F00200059085
:1020B0002020CDE9000502AA0326052782E8D000EA
:1020C00069460948FEF794FE3020CDE9000502AAD2
:1020D000694682E8D0000548FEF78AFE07B0F0BDE9
:1020E0000030014044380240000002400004024039
:1020F00010B5401EB0F1807F01D3012010BD4FF01C
:10210000E02460610F21601700F008FD0020A0614D
:1021100007202061002010BD70B5040004D094F8A1
:102120004100002510B106E0012070BD84F8405048
:10213000204600F023F8242084F841002068C1687C
:1021400021F40051C160204600F0F2FB20680169D3
:1021500021F4904101612068416921F02A01416127
:102160002068C16841F40051C1606564202084F892
:10217000410084F842006563002070BD2DE9F04104
:1021800086B0064614216846FEF772F8DFF8F0C004
:1021900031683C480222032307273B4D0024614558
:1021A0004FD138491431D1F800C04CF0100CC1F8AF
:1021B00000C0096801F010010591016841F00101BA
:1021C00001600068694600F00100059058028DE842
:1021D0001500CDE903372846FEF70AFE2C4D2B48A3
:1021E0004FF000672860C5E901744FF48068C5E9C5
:1021F00003486C61AC61EC612C6228466C62FEF7AE
:1022000055FD08B1FEF7CFFBF563AE63204D1F48C7
:1022100060357830E5E802074020A5E811011C4848
:1022200045F814496030AC61EC612C626C62FEF7D9
:102230003DFD08B1FEF7B7FBB563AE6306B0BDE880
:10224000F081144EB142F9D10E4910310E6846F4B6
:1022500000360E60096801F400310591016841F013
:10226000010101600068694600F0010005900C2042
:102270008DE81500CDE903372846FEF7B9FDDDE707
:10228000001001403038024000000240406402402B
:1022900060040020004400402DE9F843044690F813
:1022A0004100984616460D46202802D00220BDE87F
:1022B000F88385B17EB100206064212084F841005C
:1022C000FEF794FEA6848146E684A0682027B0F538
:1022D000805F02D003E00120E9E7206910B12E46BB
:1022E00000250EE000260CE08021204600F0A6FB31
:1022F000A8B9C6B116F8010B21684860E08C401EF1
:10230000E084E08C4B464FF00002CDF800800028BE
:10231000EAD14FF04001204600F090FB40B184F834
:1023200041700320C3E735F8020BC0F30800E3E770
:1023300084F841700020BAE7FEE7000070B5154947
:102340000268154B4FF040248A4201D11A4600E042
:102350002246D568C26A961CC6621580428E521EFD
:102360004286428E002A14D102688A4201D119465F
:1023700000E02146496821F0600100D02346596001
:10238000418D002905D14FF0010180F84110FFF780
:1023900027F870BD003800400034004070B5416A35
:1023A000144B8A1C426205680988134A4FF0402486
:1023B0009D4201D1154600E02546E960418D491E48
:1023C0004185418D002914D10168994201D11146FE
:1023D00000E02146496821F0A00100D0224651606A
:1023E000418E002905D14FF0010180F84110FEF720
:1023F000F7FF70BD003800400034004010B5806B1E
:1024000001684A6822F003024A6000214185418642
:10241000012180F84110416C41F008014164FEF750
:10242000E0FF10BD10B50146806BC96949B901686C
:102430004A6822F001024A6000214186012180F8A9
:102440004110FFF761F910BD10B5806BFFF79EF9E1
:1024500010BD7CB5016804468868009094F841007E
:102460000125042834D10098C00718D04868C0431B
:10247000400614D4C9682046E26A1180E16A891CCA
:10248000E162618E491E6186618E41B901684A68C8
:1024900022F060024A6080F84150FFF735F9009859
:1024A000400615D520684168C943890610D44168A3
:1024B00021F0600141602068C1688068019084F863
:1024C0004150606C40F0020060642046FEF789FFD6
:1024D00094F84100032834D10098800719D5216869
:1024E0004868C043000614D4626A20461288CA6055
:1024F000616A891C6162618D491E6185618D41B986
:1025000001684A6822F0A0024A6080F84150FFF753
:102510003EF90098000714D520684168C943890630
:102520000FD4416821F0A0014160206880680090CC
:1025300084F84150606C40F0040060642046FEF76F
:1025400050FF7CBD10B5002305E000BF31F82340EB
:1025500020F813405B1C9342F8D310BD0C4810B513
:102560000A4901601021416000218160416181615F
:10257000C1770177417781770162FEF716FA00286B
:1025800003D0BDE81040FEF70EBA10BD00000550A4
:102590003C020020154808B5016841F400110160B3
:1025A000016801F400110091016841F480010160AB
:1025B0000068002200F48000009011460E20FFF712
:1025C0004FF90E20FFF73EF9002211463A20FFF79F
:1025D00047F93A20FFF736F9002211464620FFF767
:1025E0003FF9BDE808404620FFF72CB930380240DB
:1025F00070B586B014216846FDF73AFE21480024E4
:10260000016841F010010160016801F010010591BD
:10261000016841F080010160016801F080010591CD
:10262000016841F004010160016801F004010591B5
:10263000016841F001010160016801F001010591AB
:10264000016841F00201016000680F4E00F00200D5
:102650000590002210213046FEF7C2FC0125CDE98D
:102660000054694609480294FEF7C2FB102000900E
:10267000CDE90154694630460394FEF7B9FB06B034
:1026800070BD0000303802400008024000000240E7
:102690000D4810B50B4901600C49416000214FF411
:1026A00080428160C0E9031241618161C1610162C0
:1026B000FEF7A2FC002803D0BDE81040FEF773B976
:1026C00010BD0000005400407C020020A0860100E4
:1026D0000E4810B50C4901604FF440714160002173
:1026E0000122C0E902124FF4FA52C0E904128161DA
:1026F000C1610162FEF776FE002803D0BDE81040FC
:10270000FEF751B910BD000000380040D002002093
:102710000F4810B50D4901604FF4827141600021EE
:102720008160C1604FF400720161C0E90512C161AE
:102730000162416281620A21C162FFF733FC002815
:1027400003D0BDE81040FEF72EB910BD00300140A7
:10275000780300200C4810B50A4901604FF4E131BC
:102760004160002181600C22C160C0E904128161D6
:10277000C161FFF7D1FC002803D0BDE81040FEF78F
:1027800012B910BD00100140D00300200C4810B554
:102790000A4901604FF4E1314160002181600C225F
:1027A000C160C0E904128161C161FFF7B5FC002876
:1027B00003D0BDE81040FEF7F6B810BD004400405D
:1027C00018040020FEE7FEE77047704738B54FF465
:1027D00080552B460B220EA11048FFF75DFD4FF4EC
:1027E000FA51502004F0B2F80D4C2B46A06060B1B5
:1027F00007220CA10948FFF74FFD012000906A460F
:102800000021A06803F0D4FB38BD0C2207A1F1E73A
:10281000696E746F20696E6974000000D003002037
:102820000000002073756363657373006E6F74201E
:102830007375636365737300FEF7AABF30B593B019
:1028400030216846FDF714FD14210CA8FDF710FD9A
:102850001D480025016841F080510160006800F0CA
:10286000805011901948016841F48041016000686E
:10287000022400F480401190012003901020049065
:10288000009406940820CDE90750A820CDE909045A
:1028900004200B906846FFF7CFF908B172B6FEE747
:1028A0000CA90F2081E831004FF4A0500F904FF495
:1028B0008050109005210CA8FFF7D2F8002801D015
:1028C00072B6FEE713B030BD4038024000700040E1
:1028D0000248016841F470010160704788ED00E032
:1028E00001680C3151E8002F22F4907241E8002376
:1028F000002BF5D10168143151E8002F22F00102BC
:1029000041E80023002BF5D1016B012909D10168B1
:102910000C3151E8002F22F0100241E80023002B77
:10292000F5D1202180F8421000210163704700009A
:1029300070B5044600680169E26821F44051114312
:1029400001612169A068E269084361691143084394
:102950002168CA6849F20C639A430243CA6020683E
:102960004169A26921F440711143416131492068F4
:10297000884202D03049884202D1FFF71BF901E0BA
:10298000FFF708F9E2690023192164253226B2F520
:10299000004F626828D0A0FB0101930F9200FDF761
:1029A0000FFC0146B0FBF5F06FF01802504301EB4D
:1029B000800006EB0010B0FBF5F000F0F002B1FB78
:1029C000F5F002EB0012B1FBF5F06FF0180358437D
:1029D00001EB800006EB0010B0FBF5F000F00F00FB
:1029E00021681044886070BDA0FB010192185B4112
:1029F000FDF7E6FB0146B0FBF5F00201B1FBF5F097
:102A00006FF01803584301EB800006EBC000B0FBE9
:102A1000F5F000F0F80002EB4002B1FBF5F058438E
:102A200001EB800006EBC000B0FBF5F000F0070002
:102A3000D6E7000000100140001401402DE9F843E2
:102A4000984617460D460446089E24E0701C22D086
:102A5000FEF7CCFAA0EB0800B0421AD8CEB120683D
:102A6000C168490717D5802D15D0402D13D00168B6
:102A7000C94309070FD4016800254068009020462B
:102A8000FFF72EFF0820606484F840500120BDE865
:102A9000F8830320FBE72068006835EA000004D0D3
:102AA0000020B842D2D00020F1E70120F9E7FEE78C
:102AB0000FB4024610B504A9034B039800F05AFD69
:102AC00010BC5DF814FB0000855B00080FB4054BDB
:102AD00010B503A9044A029800F04CFD10BC5DF843
:102AE00014FB0000855B00084C00002003B4019833
:102AF0004100009850EAC12018BF04204A0D18BFB9
:102B000040F0010040F2FF72B2EB515F08BF40F0AD
:102B10000200012808BF052002B070470907090E0E
:102B2000002804DB00F1E02080F80014704700F07A
:102B30000F0000F1E02080F8141D70470000000035
:102B400010B52F499FED2C1B2DED020B84B005987D
:102B500020F000408842D8BF9DED040B2DDD2949AF
:102B6000884209D1049840B94FF0010000F0FCFC04
:102B700000F0CAFC06B010BD05DB9DED040B00F0B3
:102B8000B7FC06B010BD68469DED040B00F0A0F840
:102B900010F0030004BF9DED021B9DED000B0CD057
:102BA00001280ED09DED021B9DED000B022817D0D1
:102BB000012000F0DDFB06B010BD00F0A5FA06B064
:102BC00010BD9DED021B9DED000B012000F0D0FB20
:102BD00051EC100B81F0004106B041EC100B10BD20
:102BE00000F092FA51EC100B81F0004106B041EC7C
:102BF000100B10BD000000000000000000000000ED
:102C0000FB21E93F0000F07F10B52F499FED2C1B01
:102C10002DED020B84B0059820F000408842DCBF07
:102C200000209DED040B32DD2849884209D104982B
:102C300040B94FF0010000F097FC00F065FC06B0D1
:102C400010BD05DB9DED040B00F052FC06B010BD7D
:102C500068469DED040B00F03BF810F0030011D026
:102C6000012818D09DED021B9DED000B02281AD003
:102C700000F04AFA51EC100B81F0004106B041EC33
:102C8000100B10BD9DED021B9DED000B012000F00F
:102C90006FFB06B010BD9DED021B9DED000B00F01B
:102CA00033FA06B010BD012000F062FB51EC100BAE
:102CB00081F0004106B041EC100B10BD0000000097
:102CC0000000000000000000FB21E93F0000F07F51
:102CD0002DE9F14F04462DED020B2DED088B8AB046
:102CE0009FEDE70B80ED020B139EE74826F00045B1
:102CF00085420ADC9DED120B002084ED000B0AB02A
:102D0000BDEC088B03B0BDE8F08FE0489FEDE0AB71
:102D10009FEDE1BBA84247DDE14F9FEDE39B9FEDB7
:102D2000E48B9DED120B53EC1A2B51EC100B002E83
:102D30001CDDFDF757FB41EC100BBD4208D053ECF6
:102D40001B2B51EC100BFDF74DFBC4E900010BE010
:102D500053EC192B51EC100BFDF744FB53EC182BE3
:102D6000FDF740FBC4E900010120C8E7FDF799FA2F
:102D700041EC100BBD4208D053EC1B2B51EC100B57
:102D8000FDF78FFAC4E900010BE053EC192B51EC6D
:102D9000100BFDF786FA53EC182BFDF782FAC4E905
:102DA00000014FF0FF30AAE7C348A84279DB9DED50
:102DB000120B51EC100B02F0BFFD41EC180B9FED14
:102DC000C00B53EC102BFDF713FB9FEDBF1B53EC17
:102DD000112BFDF766FAFDF7FDFB0746FDF7E9FB52
:102DE00041EC190B53EC1A2BFDF702FB53EC182B9B
:102DF000FDF7FBFA41EC180B53EC1B2B51EC190BB4
:102E0000FDF7F6FADFF8C8A241EC100B4FEA1558AF
:102E10000125FA4453EC102B51EC180BFDF7E2FAA4
:102E2000032DC4E900013DD0C1F30A5005EB451163
:102E3000A8EB00001139814234DA0AEB051BB0EE31
:102E400048AA9BED000BF0EE68AA53EC102B51EC56
:102E5000190BFDF7CDFA41EC1B0B51EC1A0B53EC9F
:102E60001B2BFDF7BFFA41EC180B51EC1A0B53EC7E
:102E7000182BFDF7B7FA53EC1B2BFDF7B3FA9BEDBC
:102E8000020B41EC1A0B53EC102B51EC190BFDF714
:102E9000AFFA53EC1A2BFDF7A5FA41EC100B6D1CA1
:102EA000B8E70EE0002EA8BF3846BFF628AF94ED75
:102EB000000B51EC100B81F00041C4E90001784295
:102EC0001DE7C6F3130040F4801EC6F30A50A0F2BB
:102ED000F530471100F01F05C5F12000DDF848B0BE
:102EE00008900020069007900520EC467949002DB7
:102EF00007EB0002794408BF51F8221009D051F8BD
:102F0000223001EB8201AB404A68089922FA01F1B4
:102F10001943A1FB0E26A1FB0B131A449A4234BF9E
:102F20000123002303EB06080CEB8003D3E901A681
:102F30000E448E4234BF0121002192448A4411B1D3
:102F4000924502D903E0924501D2012100E000211F
:102F5000C3E901A641444CF82010011EA0F1010074
:102F6000C4DC029800F10050850F0298DDE9036788
:102F70008000DDF81480FDF71CFB41EC1A0B304695
:102F8000FDF764FC9FED541B53EC112BFDF730FA59
:102F900041EC1B0B3846FDF759FC9FED511B53ECE0
:102FA000112BFDF725FA41EC180B4046FDF74EFCBE
:102FB0009FED4D1B53EC112BFDF71AFA41EC190B49
:102FC00051EC180B53EC192BFDF76BF953EC1B2B41
:102FD000FDF767F953EC1A2BFDF763F9CDE908010A
:102FE000002008909DED080B53EC1A2B51EC100BB0
:102FF000FDF7F8F953EC1B2BFDF7F4F953EC182B04
:10300000FDF7F0F953EC192BFDF7EFF99FED381BA5
:1030100053EC112BFDF7ECF99FED370B41EC180B3E
:1030200053EC102B9DED080B51EC100BFDF7E0F964
:1030300053EC182BFDF735F99FED310B41EC180BD4
:1030400053EC102B9DED080B51EC100BFDF7D0F954
:1030500053EC182BFDF725F941EC100B139810F0E9
:10306000004F06D06D4251EC100B81F0004141EC55
:10307000100B284684ED000B41E600000000000024
:103080000000000000000000FB21E93F7CD9024065
:1030900000004054FB21F93F3163621A61B4D03D16
:1030A000FB21F93F000000000000601A61B4D03D30
:1030B0007370032E8A19A33BFB21394100000000E5
:1030C00083C8C96D305FE43F000000000000E03FAE
:1030D0005A430000A8420000000000000000103E1B
:1030E000000000000000103C000000000000103A4A
:1030F000182D4454FB21F93D3326A611460B113CF3
:1031000000000054FB21F93D10B52DED040B2DED11
:10311000088B82B0B0EE419AF0EE619A0B9820F0E5
:1031200000449FED4BABB4F1795F11DA9DED0A0BD2
:1031300051EC100BFDF74EFA002801BFB0EE4A0A21
:10314000F0EE6A0A02B0BDEC088B04BF04B010BDFB
:103150009DED0A0B53EC102B51EC100BFDF748F9C9
:1031600041EC180B3C480621B0EE480AF0EE680A24
:10317000784400F081F853EC182B51EC100BFDF75C
:1031800037F99DED0A0B41EC1B0B53EC192B51EC5D
:10319000100BFDF72DF941EC190B53EC1B2B51ECE7
:1031A000180BFDF725F953EC192BFDF71BF99FEDD3
:1031B0002C0B41EC190B53EC102B51EC180BFDF7B9
:1031C00017F941EC100B2848844210DA53EC192B04
:1031D00051EC100BFDF706F953EC1A2BFDF705F92E
:1031E00041EC100B02B0BDEC088B04B010BD1F48C1
:1031F000A042BCBF9FED1E1B8DED001B06DBA4F59E
:1032000000100190002000909DED001B51EC100B70
:1032100053EC112BFDF7E6F89DED000B41EC180B7C
:1032200053EC102B51EC1A0BFDF7DCF841EC1A0BA8
:1032300053EC192B51EC180BFDF7D4F853EC1A2B67
:10324000FDF7D3F841EC100BCCE7000000000000C4
:10325000000000000000F03FCC3F00000000000034
:10326000000000000000E03F3333D33F0000E93F9F
:10327000000000000000D23F70B504462DED028B27
:103280004D1E00EBC500B0EE408AF0EE608A90ED76
:10329000000B35F0060017D053EC182B51EC100B37
:1032A000FDF7A6F841EC100B6D1E04EBC50090ED88
:1032B000001B51EC100B53EC112BFCF7F2FF41EC0F
:1032C000100B35F00600E7D1022D36D0042D1CD0AE
:1032D000062D1CBFBDEC028B70BD53EC182B51ECBE
:1032E000100BFDF785F894ED0A1B53EC112BFCF73E
:1032F000D8FF53EC182BFDF77BF894ED081B53EC2B
:10330000112BFCF7CEFF41EC100B53EC182B51ECBA
:10331000100BFDF76DF894ED061B53EC112BFCF729
:10332000C0FF53EC182BFDF763F894ED040B53EC3E
:10333000102BFCF7B6FF41EC100B53EC182B51ECA3
:10334000100BFDF755F894ED021B53EC112BFCF715
:10335000A8FF53EC182BFDF74BF894ED001B53EC32
:10336000112BFCF79EFFBDEC028B41EC100B70BDE6
:1033700031B504462DED040B2DED0A8BB0EE41BAAC
:10338000F0EE61BA0B989DED0A0B20F00040B0F111
:10339000795F0DDA51EC100BFFF7A8FB042808BF8A
:1033A00000F0C2F89DED0A0BBDEC0A8B05B030BDF4
:1033B00053EC102B51EC100BFDF71AF841EC180BE5
:1033C0009DED0A0B53EC182B51EC100BFDF710F888
:1033D00041EC190B2C48B0EE480AF0EE680A0521C2
:1033E0007844FFF749FF9FED2ACBB0EE40AAF0EEFC
:1033F00060AA9CB353EC1C2B51EC190BFCF7F8FFA3
:1034000041EC1C0B53EC1A2B51EC190BFCF7F0FFA1
:103410009FED210B41EC190B53EC102B51EC1B0BC6
:10342000FCF7E6FF53EC192BFCF7DCFF53EC182BF1
:10343000FCF7DEFF53EC1B2BFCF7D4FF53EC1C2BEB
:10344000FCF7D0FF9DED0A1B53EC112BFCF7CDFFD1
:10345000BDEC0A8B05B041EC100B30BDFFE753EC1F
:103460001A2B51EC180BFCF7C3FF53EC1C2BFCF789
:1034700018FF53EC192BFCF7BBFF9DED0A1B53EC17
:10348000112BFCF70EFFE3E7543E000000000000A4
:10349000495555555555C5BF000000000000E03F97
:1034A0002DE9F04782460F4C10480D4E0E4F001B81
:1034B0004FF0000820F007054FF0010900221146E7
:1034C000504602F09DFB002802D1306810B1002068
:1034D000BDE8F0873C60C4E90058C6F80090EDE70D
:1034E0005400002024050020500000202007002068
:1034F00010B553EC102B51EC100BFCF7D2FE41EC45
:10350000100B10BD000000009FED050B10B553EC33
:10351000102B51EC100BFCF7DDFF41EC100B10BD34
:1035200000000000000000009FED050B10B553ECFB
:10353000102B51EC100BFCF75BFF41EC100B10BD96
:10354000000000000000001002E008C8121F08C1BF
:10355000002AFAD170477047002001E001C1121F14
:10356000002AFBD170470000014908607047000045
:10357000580000202DE9FF4F8BB09A460F460546B4
:10358000002606E025280BD052460D9990476D1C69
:10359000761C28780028F5D10FB03046BDE8F08FB2
:1035A0000024A0460122604900E0044315F8013FD1
:1035B000203B02FA03F00842F7D128782E2817D1D1
:1035C00015F8010F44F004042A280ED06FF02F02E2
:1035D0002878A0F1300109290AD808EB880102EB0C
:1035E000410100EB01086D1CF2E757F8048B6D1CDC
:1035F000287869283ED006DC0028CDD063280BD07F
:10360000642804D136E0732810D075284BD0524678
:103610000D999047761C85E017F8040B8DF8000093
:1036200000208DF80100E946012003E057F8049BD3
:103630004FF0FF3061074FF0000401D40AE0641C32
:1036400044450DDA8442FADB19F804100029F6D15A
:1036500006E0641C8442FCDB19F804100029F8D150
:10366000264404E019F8010B52460D999047641E58
:10367000F8D257E001CF4FF00A0B002802DA40429F
:103680002D2102E0210504D52B218DF824100121E4
:1036900003E0E10705D02021F7E70DF120090891AB
:1036A0000CE00021F9E701CF4FF00A0BF9E759468A
:1036B000FCF7DEFF01F1300209F8012D0028F6D1F8
:1036C000ADEB090000F1200B600701D44FF00108B9
:1036D000D84502DDA8EB0B0000E000208046002466
:1036E00006E009A85246005D0D999047641C761CBF
:1036F00008988442F5DB04E0302052460D9990474B
:10370000761CB8F10001A8F10108F5DC05E019F814
:10371000010B52460D999047761CBBF10001ABF1AD
:10372000010BF4DC6D1C34E70928010010FB00F0EC
:1037300000F5804040F3CF3047F6FF710B1A6FF46D
:103740009C7110FB01F24FF4804101EB420242F206
:10375000550101EBE23111FB00F10A4A01F580410C
:1037600002EBE13111FB00F000F5804003EBE030AB
:1037700047F6FE71884200DD0846012101FA80F01B
:1037800000B270471DE2FFFF2DE9F05F0C46DDE956
:103790000AB50646A0429A46914647F6FF774FF093
:1037A000EC0049DD16FB00F000B2804603F08CFA15
:1037B000791CB1EB600F01DC384603E0404603F0B2
:1037C00083FA40100FFA80F8A01B4FF4EC7110FB45
:1037D00001F000B2044603F077FA4FF40041B1EB78
:1037E000600F03DD204603F06FFA47103EB200245D
:1037F0001EE000BF59F824005AF82420012140306F
:1038000001EBE0111144C011C2F30E0313FB06F3E8
:1038100000EBE330D21316FB0200FDF725F8C003DE
:1038200003F028FB10FB08F0C1132BF81410641CE4
:10383000AC42DFDBBDE8F09F14FB00F000B2804635
:1038400003F042FA4FF40041B1EB600F01DC38465F
:1038500003E0404603F038FA40100FFA80F8301BBE
:103860004FF4EC7110FB01F000B2044603F02CFAA7
:103870004FF40041B1EB600F03DD204603F024FA62
:1038800047103EB200241CE059F8240001214030CA
:103890005AF8242001EBE0111144831516FB032292
:1038A000C0F3CE1010FB06F002EBE030FCF7DCFFBB
:1038B000C00303F0DFFA10FB08F0C1132BF814105B
:1038C000641CAC42E0DBB5E72DE9F0470E468246CA
:1038D00000244FF480453FE020B2C0EBC03031B24D
:1038E00090FBF1F000B24FF00008B0F5005F10DB84
:1038F000A84202DAC0F5804004E0B0F5C04F05DA16
:10390000A0F5804000B24FF0010802E0C0F5004091
:1039100000B21349484300148000814603F076F951
:1039200005EB8030A5EBE037484603F06FF905EB77
:103930008030A5EBE03017FB00F040F3CF30B8F15A
:10394000000F03D047F6FF71081A00B2C00303F05E
:1039500091FA2AF81400641CB442BDDBBDE8F0877C
:103960009C4501002DE9F84F0024661E06EB400C33
:1039700001FB00FB254626461EE000BF02EB850743
:10398000654402EB850597ED000AD5ED000A03EBCF
:10399000840830EE200A88ED000A97ED000AD5ED84
:1039A000000A04EB0B0503EB850530EE600A0444C6
:1039B00085ED000A6500761C8E42DFDB02287DDB88
:1039C0005FD04FF0000E7446754653E0754604EB29
:1039D000400A0BEB05094FF0020644E0AAF1020A87
:1039E00004F1020402EB840C02EB8A071CED010ACD
:1039F00057ED010A05F1020503EB850830EE200AB8
:103A000009F1020908ED010A1CED010A57ED010A4E
:103A100097ED001A30EE600ADCED000A70EEC10A84
:103A2000C8ED000A97ED001ADCED000A0A9F03EBCF
:103A3000890C07EB860770EE810A17ED021A57ED25
:103A4000011A06F1020621EE001A01EEE01A0CED51
:103A5000011A17ED021A61EE200A17ED011A41EE64
:103A6000000ACCED000A8642B8DB009D86444FEA8E
:103A70004E046D1C00958D42A8DB144C0440012CB3
:103A800022D0441E254600261CE000BF02EB85071D
:103A900003EB840C97ED000A30EE000A8CED000A6F
:103AA00097ED010A04EB0B0703EB870730EE000AE2
:103AB0000444B1EE400A87ED000A00E004E005EBA3
:103AC0004005761C8E42E1DBBDE8F88F01000080E6
:103AD0002DE9FF4F92B00021139C784F4443089486
:103AE0004FEA440C4400A24600EB40090E460D4646
:103AF000D7ED030A97ED040A32E000BF02EB84071A
:103B000002EB860817ED011A98ED002AF0EE602A04
:103B100071EE011AB0EE421A03EB81084C4402EE3A
:103B2000A11A72EE211A4E446D1CC8ED001AD7ED91
:103B3000001A089F31EEA12AF0EE401A0F4403EB61
:103B4000870762EE211A31EE612A31EE211A87EDE4
:103B5000002A01EB0C0703EB8707014487ED001AED
:103B6000139FBD42CADB01287DD04FF0000E714685
:103B7000CDF804A09AE000BF01990EEB4E056E1837
:103B80000899B1460EEB010B0BEB010A74460221BA
:103B900086E000BF09F10209B61E02EB890702EBBD
:103BA000860CAD1C17ED011A5CED011A02EB8508BD
:103BB000CDF8448018ED012A71EE211AA41CB0EE54
:103BC000421A03EB840800EEA11A72EE211ACDF816
:103BD00000800BF1020B48ED011ADDF84480D7EDAF
:103BE000001A9CED002AD8ED002ADDF8008031EEA5
:103BF000C22AF0EE621A0AF1020A40EE821A32EE8E
:103C0000822A88ED002A17ED012A5CED012A9CED3D
:103C1000003A03EB8B0C32EE622A62EE002A97ED3B
:103C2000002A1F9F32EE032A07EB810757ED013A66
:103C300022EE003A31EE432A31EE031A31EEA23A77
:103C400071EEE21A57ED022A62EE822A43EEC32A8F
:103C50004CED012A57ED022A62EE832A17ED013A54
:103C600043EE022A00E026E0CCED002A209F03EB81
:103C70008A0C07EB8107891C17ED022A57ED012AF0
:103C800022EE012A02EEE12A0CED012A17ED022AAA
:103C900062EE211A17ED012A42EE011ACCED001A4C
:103CA0008142FFF677AF0B998644491C139C0B9118
:103CB000A142FFF661AF16B0BDE8F08F1C000020F6
:103CC0002DE9F04F002594B08600B1460E9601FB19
:103CD00000F42E464FEA400E2F4637E006EB0E0C5E
:103CE00002EB8C08F44418ED010A02EB8C0C7F1CEB
:103CF00030EE001A98ED000A02EB86085CED010A2E
:103D000098ED002A03EB850C30EE000A72EE601A83
:103D100072EE200A4E4430EE812A70EEC10A8CED1C
:103D2000002A05EB040C31EEC02A03EB8C08A444F6
:103D300088ED002A03EB8C0831EE800AA44403EBE3
:103D40008C0CC8ED000A8CED000A05448F42C5DBDF
:103D500002287DDB7DD04FF000050895BEE0089D70
:103D60004FEA850B0BEB0E092E46CA4609EB0E0CEB
:103D70004FF00205AAE000BF0BF1020B02EB8B082B
:103D8000ACF1020CD8ED000A02EB8C07049797ED1A
:103D9000000A09F1020902EB89070F97AAF1020A4A
:103DA000D7ED001A02EB8A0730EE801A30EEC03AE7
:103DB0000C9797ED000A049F06F1020671EEC00A07
:103DC00017ED012A0F9F31EE800A58ED011A57EDC9
:103DD000013A0C9F71EEC22A71EE821A17ED014A68
:103DE00003EB860706EB040833EEC42A73EE843A2D
:103DF00031EEA34A71EEE31A73EE203A07ED014A61
:103E000073EE600AC7ED003A32EEC03A1D9F32EE03
:103E1000800A71EE022A07EB850731EE421A17ED90
:103E2000022A57ED013ACDF8108022EE032A03EB67
:103E3000880803EEE22A08ED012A17ED022A22EE95
:103E4000222A57ED012A02EE832A88ED002A01E09A
:103E500093E04BE01E9FDDF8108007EB8507A04440
:103E600017ED022A57ED012ACDF8108022EE212A03
:103E700003EB880802EEE02A08ED012A17ED022A7A
:103E800062EE200A17ED012A42EE210AC8ED000A6F
:103E90001F9FDDF8108007EB8507A04457ED020A4D
:103EA00057ED011A03EB880860EE800A05F1020560
:103EB00041EEC10A48ED010A57ED020A60EE810A9F
:103EC00017ED011A41EE000AC8ED000A8542FFF61F
:103ED00053AF089D05440895119D6D1C11958D42A9
:103EE000FFF63DAF264D0540012D46D0DFF894800A
:103EF000451E064600EB400C0027DDF8389098ED93
:103F0000050A38E002EB860B02EB8C0ADBED000AB7
:103F1000DAED001A5BED012A1AED012A30EEA11A42
:103F200071EEE01A72EEC20A32EE822A03EB8508C5
:103F300005EB040A71EEA11A32EE022A05444E4442
:103F400088ED002A30EEC12A03EB8A08A24470EE05
:103F5000810A22EE002ACC447F1C88ED002A03EB64
:103F60008A0860EE600AC8ED001A0AEB040803EB49
:103F70008808C8ED000A8F42C4DB14B0BDE8F08F9A
:103F8000010000801C0000202DE9FF4F04462DEDAC
:103F9000028B9BB01F46DDE92D6B1E98DDF8ACA0AF
:103FA00060430890FF48154602FB04F9D0ED060A6D
:103FB0001E9800EE100AB8EEC00AC0EE808A18EE15
:103FC000900AFCF726FB41EC100BFEF7B9FD51EC13
:103FD000100BFCF731FB08EE100A18EE900AFCF704
:103FE00018FB41EC100BFEF70FFE51EC100BFCF729
:103FF00023FB02EE100A601E401015901E980C90D4
:10400000401C4110AC4222DB0020864684460290D0
:104010001AE00023029A0CE0DDF8A88008EB800883
:10402000401C98ED000A06EB8208521C88ED000A3D
:104030005B1CA342F0DB0298089A204402900EEB2E
:10404000020086460CF1010CAC45E2DB1FE00023C8
:104050009E461AE01A4610464FF0000C10E000BFD2
:10406000DDF8A8800CF1010C08EB800898ED000A3F
:1040700006EB8208224488ED000ADDF820804044E7
:10408000AC45EDDB0EF1010E5B1CA645E2DB00202A
:1040900002900C9800FB09F00790009060000690D9
:1040A0000990012033E002984FF0000C4844029040
:1040B0000098069BA0EB09000090009A02981EE071
:1040C000DDF8A8800CF1010C08EB8308CDF82C80FA
:1040D00018ED010A06EB8008204430EE000A88ED56
:1040E000000ADDF82C8098ED000A06EB82082244D5
:1040F00030EE000A88ED000ADDF820804344AC452C
:10410000DEDB069A0998104406900EF101008646FF
:104110008842C8DB012C78D01598A8424FF00000E7
:104120000290079800904FF0000009904FF00100B6
:104130007EDB67E00298484402900098A0EB0900FB
:1041400000900298039000981490099800EB4400A6
:1041500009900D90002050E0039806900D9A0B9264
:104160000E92149802223AE0069B801C9B1C069338
:104170000B9B06EB80089B1C0B930E9BDDF82CC061
:104180009B1E0E932A9B921C03EB8C0EDDF838C00D
:104190001EED010A03EB8C0C069B5CED010A06EB9D
:1041A0008303189330EE200A03ED010A1EED010A85
:1041B0005CED010A30EE600A08ED010A9EED000A8E
:1041C000DCED000A189B30EE600A83ED000A9EEDDC
:1041D000000ADCED000A30EE200A88ED000AA24257
:1041E000C2DB0398204403901498089A204414904A
:1041F0000D9810440D900F98401C0F90A842ABDB17
:104200000498401C0490884294DB7AE00298484469
:1042100002900098A0EB090000900298039000988B
:104220001490099800EB440009900D900B9000E069
:1042300064E002205DE00398801C03901498801CC9
:1042400014900D98149A801C0D900B980592801E66
:104250000B900D9A0E92039800230B9A45E000BF35
:10426000DDF8A8C0DDF838805B1C0CEB880E0CEB89
:10427000820C1EED010A5CED010A06EB8008CDF808
:10428000648030EE200A204408ED010A1EED010A88
:104290005CED010ADDF8148030EE600A06EB880858
:1042A000CDF8608008ED010A9EED000ADCED000A01
:1042B000DDF8648030EE600A88ED000A9EED000AA9
:1042C000DCED000ADDF8608030EE200A88ED000A9F
:1042D000DDF814C0DDF82080A444CDF814C0DDF86A
:1042E00038C04244C444CDF838C0AB42B8DB119862
:1042F000801C1190A0429EDB0498401C04908842D0
:1043000084DB002002900C98B7EE000A78430090FE
:104310000B901E989FED241A401E784303900120B5
:10432000A6E0029868EE000A38440290009842EE37
:10433000410AC01B28EE011A0090029814900098C0
:1043400002EE001A4FF0000E0690B0EE600A3846FA
:104350007246DDF80C802EE00BEB8E03DDF850C0CA
:10436000D3ED000A0BEB80030EF1010ED3ED001A22
:104370002C9B40EE210A03EB8C03C3ED000A149B37
:10438000DDF818C05B1C14930BEB880308F10108DF
:10439000D3ED000A2C9B60EE810A03EB8C03C3ED86
:1043A000000A03E01C00002000000000069B401CE7
:1043B0005B1C521C0693BA42CEDB0B98F0EE400A0F
:1043C000C01B0990F0EE411A059702204BE0F0EE79
:1043D000402A059862EEA02AB0EE413A3844059092
:1043E00043EE612AB0EE403A099863EE211AC01BF1
:1043F000B0EE413A0990009A43EE201A0692F0EE90
:10440000620A02984FF0000E099B059A27E000BF50
:10441000DDF8B0C00BEB82080CEB800C98ED003A95
:10442000DCED002A401C521C40EE832A0EF1010EE6
:10443000CCED002ADDF8B0C0DDF818800CEB880C5C
:1044400008F10108CDF818800BEB8308DCED002A99
:1044500098ED003A5B1C41EE832ACCED002ABE4564
:10446000D6DB0498401C04908842B0DB1198401CB5
:1044700011908842FFF655AF4FF0000E012316E071
:104480000EEB07008646024600200DE00BEB800C89
:104490000BEB82089CED000AD8ED000A401C521C70
:1044A00030EE200A8CED000AB842EFDB5B1C8B4239
:1044B000E6DB00230120DDF81CE02FE04B44AEEBEF
:1044C000090E184672464FF0000C23E00AEB8008F4
:1044D000CDF8188098ED000A0AEB8208CDF8148018
:1044E000D8ED000A06EB8008204430EE600A0CF19B
:1044F000010C88ED000ADDF8188098ED000ADDF85F
:104500001480D8ED000A06EB8208224430EE200A1F
:1045100088ED000AAC45D9DB0498401C0490884221
:10452000CCDB012C72D01598A8424FF0000002900D
:10453000079800904FF0010069DB56E0029A02EB09
:104540000900009A0290A2EB0900009002980390E3
:1045500000981490002043E00222DDF850E0039818
:1045600034E000BF0EF1020E801C0AEB800C0AEB57
:104570008E035CED010A93ED000A06EB8008CDF88E
:104580002C8030EEC00A921C08ED010A1CED010AD5
:10459000D3ED000A06EB8E08CDF8248030EE200A19
:1045A00008ED010A9CED000A53ED010ADDF82C80AC
:1045B00030EE200A88ED000A9CED000A53ED010A56
:1045C000DDF8248030EE600A88ED000AA242C9DBE3
:1045D0000398204403901498204414900F98401C92
:1045E0000F90A842B8DB0498401C04908842A5DBD9
:1045F00059E00298484402900098A0EB090000900E
:104600000298039000981490022044E0BFE047E035
:104610000398801C03901498801C14900023DDF8EC
:1046200050E0039833E000BF0AEB80020AEB8E0CE7
:1046300012ED010ADCED000A06EB8008CDF82C80B3
:1046400030EE600A20445B1C08ED010A12ED010AFD
:10465000DCED000A06EB8E08CDF8248030EE200A4F
:10466000A64408ED010A92ED000A5CED010ADDF8AE
:104670002C8030EE200A88ED000A92ED000A5CEDF5
:10468000010ADDF8248030EE600A88ED000AAB42B2
:10469000CADB1198801C1190A042B9DB0498401C21
:1046A00004908842A5DB012C71D000200AE000BFF5
:1046B0000BEB800191ED000A2C9901EB8001401C6D
:1046C00081ED000AB842F3DB0023012213E000BFB2
:1046D00003EB0900034600210AE000BF06EB800758
:1046E000491C97ED000A0AEB8007204487ED000A79
:1046F000A942F3DB521C1E988242E9DB1599E04384
:10470000A94249DC86460020029001203BE0029944
:10471000A64401EB090001460290724602202DE0FA
:10472000891C00270846921C24E02F9B0AEB800876
:1047300003EB820C06EB80031CED010A53ED010A2A
:1047400093ED001A204420EE200ADCED000A7F1CC5
:1047500000EEC10A08ED010A5CED010A93ED000AC2
:1047600013ED011A20EE800ADCED000A00EE810A4A
:1047700088ED000AAF42D8DB0BF102008346A0426D
:10478000CEDB0498401C1E9904908842BFDB1BB00E
:10479000BDEC028BBDE8FF8F834600200290012014
:1047A0003BE00299A34401EB090086464FF0000C60
:1047B00002902EE059467046022225E02F9B891C6C
:1047C00003EB8107801C06EB800317ED010A53ED14
:1047D000010A93ED001A0AEB800820EE200AD7EDBB
:1047E000000A921C00EEC10A08ED010A17ED010A49
:1047F000D3ED000A13ED011A20EE200AD7ED000ACE
:1048000000EE810A88ED000AA242D7DBA6440CF133
:10481000010CAC45CEDB0498401C014604901E9868
:104820008142BEDBB3E700002DE9FE4F002501FB0E
:1048300000F4A3464FEA40092E461CE002EB850730
:1048400002EB840C97ED000ADCED000A03EBC508CF
:10485000044430EE200A761C88ED000A97ED000A29
:10486000DCED000A09EB450703EB870730EE600A31
:10487000054407ED010A8E42E0DB02287EDB62D0B0
:104880004FF00005DE462C4656E005EB00064FEAE9
:104890004609029674464FEA45074FF0020645E086
:1048A000DDF830C004F102040CEB860802EB840C46
:1048B00058ED020A1CED011A9CED002A58ED011A70
:1048C00020EE810A60EE820A05F1020502EB850CFA
:1048D00007F1020741EEC10A9CED001A03EB8708BD
:1048E000CDF80480A9F1020901EE820A31EE201A06
:1048F00006F1020688ED001A9CED001A03EB890808
:10490000CDF8008070EEC10AC8ED000A5CED010A26
:10491000DDF8048070EE800A48ED010A5CED010AC2
:10492000DDF8008030EEC00A08ED010A8642B7DBF0
:10493000029D86440AF10104A2468C42A5DB134C79
:104940000440012C1FD0461E054606EB0B07002431
:1049500017E000BF02EB870C02EB86089CED000A13
:1049600003EB850C05EB4005B1EE400A8CED000A27
:1049700098ED000A07440CED010A00E003E006444C
:10498000641C8C42E6DBBDE8FE8F00000100008065
:104990002DE9F04F01FB00F467002546002691B099
:1049A00004EB4509B44645E002EB8508CDF82C80C0
:1049B00098ED000A02EB8908CDF82880D8ED000AAE
:1049C00002EB860E02EB870B30EE200ADEED000ACA
:1049D0009BED001A4FEA860A03EB8A0870EE810A03
:1049E00005448144064430EE201A30EEC00A0744E4
:1049F00088ED001A0AEB800803EB88080CF1010C23
:104A000008ED010A9EED000ADBED000A0AEB400802
:104A100003EB880A30EE600A0AED010ADDF828800F
:104A200098ED000ADDF82C80D8ED000A30EE600A1F
:104A30008AED000A8C45B7DB4FEA400A02287CDB8E
:104A40007CD04FF0000B5D46B3E04FEA8B075D462C
:104A50000AEB070C4FF00206A5E000BFDDF8688006
:104A600005F1020508EB8608CDF8208005EB040966
:104A700018ED020A02EB8908CDF80C8018ED012A26
:104A8000DDF82080A14460EE020A18ED011ADDF87D
:104A90000C80D8ED001ADDF86C8020EE210A08EBBE
:104AA000860841EE210ACDF8248001EE420A18ED75
:104AB000021A02EB8908CDF80C8058ED011ADDF8D6
:104AC0002480A14461EE212A18ED013ADDF80C8022
:104AD00002EB890998ED002ADDF8708043EE022A86
:104AE00021EE022A08EB8608CDF80C8018ED021A98
:104AF00003EE612A19ED013A99ED004A58ED013AA9
:104B000061EE031A21EE041A02EB850843EE841AC3
:104B100003EEC31A18ED014A30EEA13A71EEE01A25
:104B200070EE010A30EE411A98ED000A70EE023A7A
:104B300030EE420A34EE222A01E091E03FE074EECA
:104B4000622A33EE024A07F1020703EB8708ACF151
:104B5000020C08ED014A30EEA34A06F1020688ED88
:104B6000004A32EEC14A03EB8C0831EE221A08EDFE
:104B7000014A31EEC04A31EE800A88ED004A07EB67
:104B80000A0803EB880808ED011A88ED000A32EEE6
:104B9000430A0CEB0A0803EB880808ED010A30EE23
:104BA000E30A88ED000A8642FFF658AF83440EF10F
:104BB0000105AE468D42FFF648AFC50750D1271814
:104BC0007F1E85000095DFF8A080054607EB4409AD
:104BD0002E464FF0000C98ED010A3FE002EB8708EB
:104BE00002EB860BD8ED001A02EB8908814498EDA0
:104BF000001A03EB8508064471EE810A31EEC11AF2
:104C00005BED011ACDF8208060EE600A21EE001AFB
:104C10000CF1010C71EE811A48ED011A5BED011ADD
:104C200005EB0A0803EB880E31EEC11A07EB040806
:104C300002EB880B0EED011A9BED001ADDF82080C7
:104C4000074430EEC11A88ED001A9BED001A71EE90
:104C5000200ACEED000ADDF8008045448C45BDDB1E
:104C600011B0BDE8F08F00001C0000202DE9FF4FBF
:104C70000446FF481E462DED028B99B0D0ED020A86
:104C80001C98DDE92AB700EE100ADDE928A9B8EE84
:104C9000C00A1546C0EE808A18EE900AFBF7B9FCF0
:104CA00041EC100BFDF74CFF51EC100BFBF7C4FC73
:104CB00008EE100A18EE900AFBF7ABFC41EC100B63
:104CC000FDF7A2FF51EC100BFBF7B6FC02EE100A49
:104CD0001C981C99401C4210601E099440101391AE
:104CE00001FB04FE6142169005FB04F01591012CB6
:104CF0007ED000210AE000BF0BEB810393ED000A98
:104D00002C9B03EB8103491C83ED000AB142F3DBCA
:104D10000023012113E0034419464FF0000C0AE080
:104D200009EB81080CF1010C98ED000A07EB8108F2
:104D3000214488ED000AAC45F2DB0A99491C8C46F7
:104D40000A911C998C45E6DB159906910021039187
:104D50001699A9424FF0010155DCA2E003990144E4
:104D600003910699214406910399091B02910021A0
:104D700044E00699491E04910299022321440291BC
:104D800038E000BFDDF810C0891C0CF1020CCDF832
:104D900010C0DDF8B4C0DDF810800CEB880C09EB16
:104DA00081081CED010ACDF8208058ED010A98ED2C
:104DB000001A07EB810820EE200ADCED000ACDF88E
:104DC000348000EE810A08ED010ADDF820801CED38
:104DD000010AD8ED000A18ED011ADDF8348020EE42
:104DE000200ADCED000A00EEC10A88ED000A00E0AE
:104DF0003CE19B1CA342C5DB1199491C1191A942BE
:104E0000B7DB0A99491C1C9B0A919942A6DB4CE02E
:104E1000069921440691491E049103990144039186
:104E20000291022138E004994FF0000C891C049192
:104E30000299891C02912BE0DDF810802D9B0CF16A
:104E4000010C03EB8803089309EB810813ED010AB9
:104E500058ED010A98ED001A20EE200AD3ED000A61
:104E600007EB81030D9300EE810A214403ED010A53
:104E7000089BD8ED000A18ED011A13ED010A20EE87
:104E8000200AD3ED000A0D9B00EEC10A83ED000A53
:104E9000AC45D1DB0099891C0091A142C3DB0A9982
:104EA000491C1C9B0A919942B2DB00210391139982
:104EB000414302911699A9424FF0010166DBD2E00D
:104EC0000399014403910299091A029103990591EA
:104ED00002990491022154E005994FF0000C891CBD
:104EE00005910499891C04910599049B091B1B1BBE
:104EF00041E0214407EB810CCDF834C023441CED84
:104F0000010A07EB830CCDF820C05CED010A09EB28
:104F1000810CCDF848C030EE200A09EB83080CED77
:104F2000010ADDF834C09CED000ADDF820C0DCED9C
:104F3000000A30EE600A08ED010ADDF834C09CED8D
:104F4000000ADDF820C0DCED000ADDF848C030EED4
:104F5000200A8CED000ADDF820C01CED010ADDF806
:104F600034C05CED010A30EE600A88ED000ADDF81D
:104F700044C00CF1010CCDF844C0AC45B9DB00993C
:104F8000891C0091A142A7DB0A99491C0A91914210
:104F900096DB6BE00399014403910299091A02918F
:104FA0000399059102990491002157E0DDE904314C
:104FB0000793022348E000BFDDF81CC0891C0CF1F8
:104FC000020CCDF81CC007EB810CCDF834C01CEDF1
:104FD000010ADDF81CC09B1C07EB8C0CCDF820C02F
:104FE0005CED010A09EB810CCDF848C030EE200AD7
:104FF0000CED010ADDF834C0DDF81C809CED000AE0
:10500000DDF820C009EB8808DCED000A30EE600A0C
:1050100008ED010ADDF834C09CED000ADDF820C07F
:10502000DCED000ADDF848C030EE200A8CED000A05
:10503000DDF820C01CED010ADDF834C05CED010A8A
:1050400030EE600A88ED000AA342B5DB05992144E1
:1050500005910499214404911199491C1191A94287
:10506000A4DB0A99491C0A91914293DB00210BE0D1
:105070001C0000202C9B03EB810393ED000A0BEB3B
:105080008103491C83ED000AB142F3DB0021039147
:105090001399714300910291012134E003994FF07B
:1050A000000C014403910299091A02910399029B91
:1050B000091B1B1B23E0214407EB8108CDF81C8052
:1050C000234498ED000A07EB8308CDF81880D8ED4B
:1050D000000A09EB81080CF1010C30EE200A88ED82
:1050E000000ADDF8188098ED000ADDF81C80D8ED84
:1050F000000A09EB830830EE600A88ED000AAC452F
:10510000D9DB0A99491C0A919142C7DBB7EE000A24
:105110009FEDF71A00210391009902911C99491EF5
:10512000714305910121AEE0039968EE000A314414
:105130000391029942EE410A891B029128EE011A5D
:1051400003990491DDF80890059902EE001A079181
:10515000B0EE600A3346002130E000BF0BEB810C5B
:10516000DDF8B080DCED000A0BEB830C491CDCEDB4
:10517000001ADDF810C05B1C40EE210A08EB8C0C15
:10518000CCED000ADDF810C0DDF81C800CF1010C3C
:10519000CDF810C00BEB880CDDF8B080DCED000A18
:1051A00008EB890C09F1010960EE810ACCED000AD7
:1051B000DDF81CC00CF1010CCDF81CC0B142CDDBF8
:1051C00004961399F0EE400A491E71430691F0EEE1
:1051D000411A022152E0F0EE402A049962EEA02A20
:1051E0003144B0EE413A0491069943EE612AB0EEA3
:1051F000403A891B63EE211A06910399B0EE413AB9
:105200000791029943EE201A0891F0EE620A4FF0DE
:105210000008DDF8109006992CE000BFDDF8B0C062
:10522000079B08F101080CEB83031793079B5B1C9A
:105230000793179BD3ED002A0BEB890309F10109B2
:1052400093ED003A179B40EE832AC3ED002ADDF868
:1052500020C02C9B03EB8C0C089B5B1C08930BEB76
:105260008103DCED002A93ED003A491C41EE832ACC
:10527000CCED002AB045D1DB0A99491C0A91914234
:10528000A9DB0099491C00919142FFF64DAF002126
:105290000391012119E003993144894603910021CA
:1052A0000FE02C9B0BEB890C03EB8103DCED000A78
:1052B00093ED000A09F10109491C30EE200A83ED43
:1052C000000AB142EDDB0A99491C0A919142E2DBE6
:1052D000AC424FF0000130DB89468B46CC4614E0EF
:1052E00059464B4600260AE007EB8108491C98ED19
:1052F000000A0AEB83085B1C88ED000A761CA642B4
:10530000F2DBA344F1440CF1010CAC45E8DB16E000
:105310000B461E464FF0000C0CE000BF07EB830865
:10532000234498ED000A0AEB8608764488ED000ACB
:105330000CF1010CAC45F1DB491CA142E8DB00217A
:10534000039161000291002105911399414300915D
:105350000491012126E000BFDDE9023119440391E7
:105360000599014405910499059B091A0491DDE909
:105370000316B146002611E007EB830C07EB890802
:105380009CED000A0AEB810C71440CED010A98EDCA
:10539000000A23448CED000AA144761CAE42EBDBEC
:1053A0000BF101018B469142D6DB012C7AD0169984
:1053B000A942159903914FF00001059104910099BC
:1053C00006914FF0010172DB69E000BFDDE90213D5
:1053D00019440391059B02991944059104990144CC
:1053E00004910699091A069103990791DDE90413BE
:1053F0000E9106990D9100214CE002213CE0099E9E
:1054000001EB0308A6EB010C0E9ECDF83CC00E4448
:1054100007EB86090D9E19ED010A0E4407EB86067F
:105420000AEB880C56ED010ACDF84CC0891C30EE11
:10543000200A0CED010A19ED010A56ED010ADDF80A
:105440003CC0DDF81C8030EE600AE0440AEB8808BE
:1054500008ED010A99ED000AD6ED000ADDF84CC00E
:1054600030EE200A8CED000A96ED000AD9ED000A14
:1054700030EE600A88ED000AA142C0DB0799734450
:10548000714407910E9921440E910D9921440D917B
:105490000BF101018B46A942AFDB0A99491C0A9125
:1054A000914293DB19B0BDEC028BBDE8FF8F65E044
:1054B000DDE90231194403910599194405910499D4
:1054C000014404910699091A0691022152E0039EB3
:1054D000099B33445B1A0793059B00260B440893F2
:1054E000049B01EB030B069B0B440D933FE0000074
:1054F00000000000DDF834C007EB8B0307EB8C09DC
:1055000013ED010A59ED010ADDF820C0A34430EE85
:10551000200A0AEB8C0CCDF84CC00CED010A13EDFF
:10552000010A59ED010ADDF81C80761C30EE600A94
:105530000AEB880808ED010A93ED000AD9ED000A8C
:10554000DDF84CC030EE200A8CED000A99ED000A1F
:10555000D3ED000A30EE600A88ED000A079B734421
:105560000793089B734408930D9B23440D93AE420D
:10557000C0DB891CA142AADB0A99491C0A9191420D
:1055800096DB8FE72DE9FF4F87B082461498002401
:1055900001210D462746D0F804B079E0149800EBBD
:1055A0008700866806FB01F99AFBF9F808FB01F30E
:1055B000042E10D0022E2CD0032E3BD00A9800EBE4
:1055C0008502DDE9080C7CB3121FCDE902C0CDE9EC
:1055D000040209984BE005EB08000A9B00EB080267
:1055E00003EB820203EB800003EB8503A3F10403CA
:1055F000A0F10400A2F104020093CDE901024046AB
:1056000014B1DDE9083201E0DDE90823FEF758FBBB
:1056100037E00A9800EB8500A0F1040000904046B6
:105620001CB1DDE9083202E01BE0DDE90823FEF7EA
:1056300099F926E00A9A05EB080002EB800002EBDC
:105640008502A0F10400A2F10402CDE90020404649
:1056500014B1DDE9083201E0DDE90823FEF738FA8C
:105660000FE0CDE9020C121FCDE904C208980090AA
:105670000A46019031464046FEF786FCB8F1010F1C
:1056800001D1C4F10104761E06FB085549467F1C72
:105690005F4583DB002C0ED000200AE0099901EB66
:1056A000800191ED000A089901EB8001401C81ED19
:1056B000000A5045F2DB0BB0BDE8F08F2DE9FF4F3B
:1056C00087B00646DDF850B001259A4634460027DB
:1056D000DBF8048060E000BFA8EB07010BEB810161
:1056E000C5F10105496890FBF1F996FBF0F0C1F1B5
:1056F000010202FB004400FB09F3042904D0022943
:1057000025D0012832D033E021180A180AEB820292
:105710006DB10AEB84030AEB81011B1F091F121FE5
:105720000093CDE90112DDE9083249460CE00AEBAD
:1057300081030AEB8401091F1B1FCDE90013121F0F
:105740000292DDE908234946FFF722F922E00AEB3D
:105750008401A1F104010091494625B1DDE9083237
:10576000FFF762F816E0DDE90823F9E7C5F1010566
:10577000DDE9082C002D0AEB840513D02D1FCDE99F
:1057800002C2CDE90425099A009201924A46FFF728
:105790006DFA002548467F1C47459DDB012D1BD037
:1057A000002017E0CDE9022C2D1FCDE904C5089A91
:1057B000009201924A46FFF759FA0125EAE7099952
:1057C00001EB800191ED000A089901EB8001401C7A
:1057D00081ED000AB042F2DB0BB0BDE8F08F0000B3
:1057E0002DE9F74F15462DED048B84B00021089A62
:1057F0004C1E0846641C042C03DA4D4951F8241051
:1058000000E0891C5FF0020792FBF1F301FB132615
:10581000002EEFD1401C05EB8002022951601A4690
:105820000FD101280DD0012308E0C61A761C5B1C9D
:1058300055F826C005EB8606C6F804C08342F4DBA3
:10584000AF60012AE0D10899C5E900103849401E2F
:105850001C394FF0010BD1ED000A0899029000EEBF
:10586000101A00210091B8EEC00A0028C0EE809AFC
:1058700058D0002052E000BF05EB8A00089A8068EB
:105880004FF000080BFB00F192FBF1F7401E039074
:10589000019140463AE0D84400EE108A9FED258AF7
:1058A0000226B8EEC00A009C20EE299A27E000BF2D
:1058B000B7EE000A38EE008A68EE098A18EE900A00
:1058C000FAF7A7FE41EC100BFDF73AF951EC100B7B
:1058D000FAF7B2FE099941F8240018EE900A641C08
:1058E000FAF797FE41EC100BFDF78EF951EC100B17
:1058F000FAF7A2FE099941F82400641CB61CBE42C6
:10590000D6DB00983844009009F1010003998146E4
:105910008842C0DBDDF804B00AF10100029982463A
:105920008842A9DB04B0BDEC048BBDE8FE8F00000B
:10593000380000200000000082B0CDE9000121F015
:10594000004001909DED000B02B051EC100B704730
:10595000F0B500231C4602E042F823405B1C0569B9
:105960009D42F9DC00232EE00468856851F823602D
:1059700054F8234035F81350F71352F824C015FBA0
:1059800007C7C6F30E0615FB06F505F5804507EBC0
:10599000E53542F824504468C56854F8234035F88A
:1059A000136051F8235052F824C0EF1316FB07C7B9
:1059B000C5F30E0516FB05F505F5804507EBE53546
:1059C00042F824505B1C44699C42CDDCF0BD70B5AC
:1059D000002319E00468866854F82350446836F8B8
:1059E000136031F8155054F8234016FB05F5C668CE
:1059F00031F8144036F8136014FB065404F5804463
:105A0000E41322F813405B1C44699C42E2DC70BD45
:105A10002DE9F84F1646834612B2C803520090FB98
:105A2000F2FA01EBD17040F34F0404EB441000EBA9
:105A30008410801001F092F846F6CD0110FB01F5BC
:105A400014FB04F0C0F30E01C01301EB810100B29E
:105A5000C1F3503100EB800001EB800001F07EF8D3
:105A600040F27B4110FB01F005EB800040F61B513A
:105A700014FB01F100EB0109ABF1010040F34E0210
:105A800009EB020191FBF0F00090182000F02CFAD5
:105A90000446B500C4E904B6284600F025FA2060A3
:105AA000284600F021FA75006060284600F01CFAD4
:105AB000A060284600F018FA0025E0605DE000BF15
:105AC0004FEAEA3015FB00F1CAF30E0010FB05F0B7
:105AD00000F5804001EBE03000B2804600EB401161
