:020000040800F2
:10000000387201209D010008072C0008E126000835
:10001000052C00084F090008832E0008000000008E
:100020000000000000000000000000000B2C000891
:10003000190A000800000000092C00080D2C000817
:10004000B7010008B7010008B7010008B7010008B0
:10005000B7010008B70100081B0A0008B701000833
:10006000B7010008B7010008B7010008B701000890
:10007000B7010008B701000851090008B7010008DE
:10008000B7010008B7010008B7010008B701000870
:10009000B7010008B7010008B7010008B701000860
:1000A000B7010008B7010008B7010008B701000850
:1000B000B7010008B7010008B7010008B701000840
:1000C000B7010008B7010008B7010008B701000830
:1000D000B7010008B7010008B7010008B701000820
:1000E000B7010008B7010008B7010008B701000810
:1000F000B7010008B7010008B7010008B701000800
:10010000B7010008B7010008B7010008B7010008EF
:10011000B7010008B7010008B7010008B7010008DF
:10012000B7010008B70100085D090008B701000821
:10013000B7010008B7010008B7010008B7010008BF
:10014000B7010008B7010008B7010008B7010008AF
:10015000B7010008B701000869090008B7010008E5
:10016000B7010008B7010008B7010008B70100088F
:10017000B7010008B7010008B7010008000000003F
:10018000B7010008B7010008DFF80CD000F07CFBD5
:1001900000480047315D000838720120064880475A
:1001A00006480047FEE7FEE7FEE7FEE7FEE7FEE75C
:1001B000FEE7FEE7FEE7FEE7A52C00088901000840
:1001C0002DE9F05F0546002092469B46884606468C
:1001D000814640241BE0284641464746224600F01F
:1001E00086FA53465A46C01A914110D31146184612
:1001F000224600F06DFA2D1A67EB01084F462246A1
:100200000120002100F064FA17EB00094E41201E86
:10021000A4F10104DFDC484631462A464346BDE8E6
:10022000F09F10B5431A934209D28318881803E04F
:1002300010F8011D03F8011D521EF9D210BD40EA4D
:1002400001039B0703D009E008C9121F08C0042A54
:10025000FAD203E011F8013B00F8013B521EF9D23B
:1002600010BDD2B201E000F8012B491EFBD270474D
:100270000022F6E710B513460A4604461946FFF772
:10028000F0FF204610BD10B54843044603F08CFF34
:10029000002805D00021002C02D0641E0155FAE789
:1002A00010BD2DE9FE4F804681EA0300C00F0C46C9
:1002B000009021F0004123F00045B8EB0200A94175
:1002C00005D24046214690461C460B46024623F086
:1002D0000040104347D0270DC7F30A00C3F30A516B
:1002E0000290401A019040286BDAC3F3130040F4E7
:1002F000801B0098924620B10023D2EB030A63EBE7
:100300000B0B01985946C0F14002504600F0E0F94D
:1003100006460D4650465946019A00F0F8F910EB92
:1003200008006141002487EA115284EAE7731A4306
:1003300040D0009A62B3019A012A4FEA075215DCB5
:10034000001B61EB02014FF0004202EA0752CDE9C7
:100350000042001C41F5801132462B4600F02FFA76
:1003600003B0BDE8F08F40462146F9E7001B61EB82
:100370000201001C41F5801300185B412018A2F512
:10038000001747EB030140EAD570B6196D4111E043
:100390006D084FEA360645EAC0754FEA0752001B62
:1003A00061EB0201001C41F5801149084FEA300061
:1003B0000019514132462B4603B0BDE8F04F00F022
:1003C000EFB90098012240000023D0EB020263EB5A
:1003D000E073009821464FEAE074B8EB000061EB4F
:1003E0000401E9E783F000435BE781F0004158E74F
:1003F0002DE9FE4F81EA030404F0004421F000419E
:1004000000944FF0000B23F0004350EA01045ED04B
:1004100052EA03045BD0C3F30A54C1F30A552C44D7
:10042000A4F2F3340194A0FB0254C1F3130141F48C
:100430008011C3F3130343F4801301FB024400FB58
:10044000034E840A970A44EA815447EA8357A4FB7F
:10045000076802958D0A05FB07854FEA932C04FB7C
:100460000C542705029D4FEA065847EA1637B5EBAC
:1004700008056EEB070C870E920E47EA811742EAD9
:100480008312A7FB0201B6EB0B0164EB00042B0DFA
:1004900043EA0C335E1844EB1C50DA465146E7FB46
:1004A0000201C5F313044FEA0B3343EA14534FEA36
:1004B0000432019C43EA0603A4F10C040294009C5C
:1004C000CDE900B400F07BF903B0BDE8F08F002067
:1004D0000146F9E72DE9F04D81EA030404F0004BF1
:1004E00021F0004514464FF0000A23F0004150EA85
:1004F000050220D054EA01021DD0C5F30A57024676
:10050000C5F31303C1F31300C1F30A5640F4801579
:1005100043F48013A7EB0608101BD64608F2FD38FB
:1005200073EB050002D308F1010801E092185B416A
:10053000B8F1000F03DA00200146BDE8F08D00207D
:100540004FF48011064684460EE0171B73EB050737
:1005500005D3121B63EB050306434CEA010C490863
:100560004FEA300092185B4150EA0107EDD152EAA0
:10057000030012D082EA040083EA0501084305D093
:10058000101BAB4106D20122002306E000224FF0EF
:10059000004302E06FF0010253101AEB06004CEB2F
:1005A000085110EB0A0041EB0B01BDE8F04D00F0E3
:1005B000F7B80EB5C10F80EAE0700844CA07002101
:1005C00040F233438DE80E000A460B4600F0F7F880
:1005D00003B000BD70B5C1F30A5201F0004500241C
:1005E000C1F3130140F2FF3341F480119A4201DA62
:1005F000002070BD40F233439A42A2F2334203DC42
:10060000524200F074F800E090402C43F1D0404298
:1006100070BD00F0004230F000400AD0C10D01F57D
:100620006071C0F3160042EA0151C208400711434D
:10063000704700200146704730B5041E71F1000478
:1006400004DB4FF00044404264EB0101141E73F1DF
:10065000000405DB1C464FF00043524263EB0403E9
:100660008B4208BF824230BD30B5041E71F10004D8
:1006700004DB4FF00044404264EB0101141E73F1AF
:10068000000405DB1C464FF00043524263EB0403B9
:10069000994208BF904230BD01F0004330B421F0D0
:1006A000004150EA010206D00A0DA2F56072C1F3C2
:1006B0001301002A02DC30BC00207047440F44EADA
:1006C000C104C100E01830BC00EBC25000F031B8EA
:1006D000202A04DB203A00FA02F100207047914002
:1006E000C2F1200320FA03F3194390407047202AF7
:1006F00004DB203A21FA02F00021704721FA02F3CC
:10070000D040C2F120029140084319467047202A88
:1007100006DBCB17203A41FA02F043EAE07306E029
:1007200041FA02F3D040C2F1200291400843194639
:1007300070470029A8BF7047401C490008BF20F03F
:100740000100704710B4B0FA80FC00FA0CF050EAD7
:10075000010404BF10BC704749B1CCF1200421FA58
:1007600004F411FA0CF118BF012121430843A3EB53
:100770000C01CB1D4FEA00614FEA102042BF002060
:1007800010BC704700EBC35010440029A4BF10BC3C
:100790007047401C490008BF20F0010010BC7047A2
:1007A00010B5141E73F1000408DA401C41F1000179
:1007B00092185B411A4301D120F0010010BD2DE9D0
:1007C000F04D92469B4611B1B1FA81F202E0B0FAC7
:1007D00080F220329046FFF77BFF04460F4640EA46
:1007E0000A0041EA0B0153465A46084313D011460A
:1007F00053EA010019D0C8F140025046FFF777FFD5
:1008000005460E46504659464246FFF761FF0843EB
:1008100005D0012004E020463946BDE8F08D0020D7
:10082000054346EAE0762C4337430A986305E40A19
:10083000A0EB08000022FD0A44EA47540A3002D522
:1008400000200146E9E7010510196941DDE9084585
:1008500000196941BDE8F04DA2E770B521F00043F1
:1008600003430CD0C1F30A550024D5EB040564EB17
:100870000403D617AD1AB34102DB0020014670BD58
:10088000201841EB025170BD064C074D06E0E068B0
:1008900040F0010394E8070098471034AC42F6D3C7
:1008A000FFF776FC4CCE00086CCE00082DE9F04D29
:1008B00000231A461B1A8A4103DB00200146BDE8CB
:1008C000F08DC1F30A52C1F3130141F480154FF0CA
:1008D000000BD10702D100186D41521E00270446BB
:1008E00040F2FF11384601EB620A3E46804602465E
:1008F00000204FF48011FFF7FAFEC2197141BB18B6
:1009000046EB0100B4EB030C75EB000C04D3E41AC6
:1009100065EB000517460E46241908F101006D41EC
:1009200080463428E3DDF91946EB0600091BA8418F
:1009300003D24FF0FF32134601E0002213461BEBB7
:10094000070046EB0A51BDE8F04DFFF729BFFEE76F
:10095000014800F061B9000030400020014800F07B
:100960005BB9000078410020014800F055B9000053
:10097000D841002001681823CAB2103AB2FBF3F242
:10098000054B6FF30901032A9B5CC36500D9091D60
:1009900081650846704700000EAD000810B501469D
:1009A00000208B698A6A4FF0C07453B1B3F5005FC1
:1009B00015D072B1012A0CD0022A0AD0032A09D11B
:1009C00004E01AB1012A06D0022A03D1C96AC9017A
:1009D00000D5012010BDC96AA142FAD010BD002A7D
:1009E000F7D0012AF2D0022AF3D0032AF3D010BDA7
:1009F00030B50468256825F48025256004686360A7
:100A00008368402B036803D099600068C26030BDE2
:100A10009A600068C16030BD7047012000F09ABA4A
:100A200072B6FEE770B5040004D094F825000025E6
:100A300010B109E0012070BD84F82450204600F078
:100A400031F8204600F02EF8022084F825002068B6
:100A5000016840F6F872914301606169606808437B
:100A6000D4E9031211430843A1680843A16908436C
:100A7000216A084321680A681043086060681028EA
:100A800005D1E17FE06961F31F602168886120681A
:100A9000C16841F01E01C160E563012084F82500B2
:100AA000002070BDF0B587B0044614216846FFF7FA
:100AB000DFFB2E492068884255D12D48002401686B
:100AC00041F001010160006800F001000590284834
:100AD000001F016841F010010160016801F0100180
:100AE0000591016841F001010160016801F0010117
:100AF0000591016841F004010160016801F0040101
:100B00000591016841F0020101600068022500F0D2
:100B10000200059070200090CDE901540D26CDE92A
:100B200003466946134800F021FA40270097CDE9B3
:100B30000154CDE9034669460F4800F017FA4FF417
:100B400070700090CDE90154CDE9034669460B4829
:100B500000F00CFA0097CDE90154CDE9034669464F
:100B6000074800F003FA07B0F0BD00000000055090
:100B700034380240001002400000024000080240E9
:100B8000000402402DE9F0410446876D00F0F8FAB8
:100B9000064694F835000025022806D080206065BE
:100BA00084F834500120BDE8F0812068016821F00C
:100BB000160101602068416921F080014161206CCB
:100BC00008B9A06C20B12068016821F0080101601B
:100BD0002068016821F0010101600CE000F0D0FA0A
:100BE000801B052807D920206065032084F8350084
:100BF00084F83450D7E720680068C007EED194F835
:100C00005C103F208840B860012084F8350084F8EB
:100C100034500020C7E700002DE9F84304464FF0A8
:100C20000009CDF8009063484FF41651A56D006897
:100C3000B0FBF1F72E6894F85C10082000FA01F17F
:100C400031420FD021680A6852070BD50A6822F09A
:100C500004020A6094F85C108840A860606D40F05F
:100C60000100606594F85C104FF0010808FA01F08B
:100C7000304208D021684969090604D5A860606D32
:100C800040F00200606594F85C1004208840304217
:100C900008D021680968890704D5A860606D40F014
:100CA0000400606594F85C1010208840304218D031
:100CB00021680968090714D5A860206801684903FC
:100CC00004D50068000308D5A16C07E00168C905D8
:100CD00003D4016821F008010160216C09B12046AC
:100CE000884794F85C1020208840304231D0216839
:100CF0000968C9062DD5A86094F835000528206834
:100D0000016806D0490347D5006800031DD4616C13
:100D10001CE021F0160101602068416921F080018A
:100D20004161206C08B9A06C20B12068016821F0F5
:100D30000801016094F85C103F208840A86084F8A6
:100D4000358084F83490216D1FE0E16B09B12046B5
:100D50008847606D00282BD0606DC00714D0052037
:100D600084F835002068016821F0010101600098D5
:100D7000401C0090B84203D820680068C007F6D134
:100D800084F8358084F83490E16C002910D001B0EB
:100D90002046BDE8F04308470168C905D5D401687D
:100DA00021F01001016084F8358084F83490CCE79C
:100DB000BDE8F8831C0000202DE9F041044600F056
:100DC000DFF906465CB1022084F83500002584F87E
:100DD00034502068016821F0010101600DE001201C
:100DE000BDE8F08100F0CCF9801B052805D9202052
:100DF0006065032084F83500F2E720680068C007CA
:100E0000F0D12268116820480140D4E90103184359
:100E1000D4E903363343184363691843A36918437D
:100E2000E3691843236A18430843616A042903D11C
:100E3000D4E90B1319430843106020684069666ABF
:100E400020F0070130460E43012704280CD1A06A88
:100E50000643E06A40B12046FFF7A0FD20B14020E4
:100E6000606584F83570BAE7206846612046FFF770
:100E700081FD94F85C203F2191408160656584F894
:100E800035700020ACE700003F8010F02DE9F04104
:100E90000446866D90F83400002501280DD001200D
:100EA00084F8340094F835700020012F07D084F8BE
:100EB000340002252846BDE8F0810220FBE7022726
:100EC00084F8357060652046FFF792FD94F85C1059
:100ED0003F208840B0602068016841F01601016041
:100EE000206C20B12068016841F008010160206891
:100EF000016841F001010160DCE7000010B5012844
:100F00001DD101210E4800F029F9002817D1042134
:100F10000C4800F028F90C484168032906D000214C
:100F20004160BDE81040094800F026BB0121416046
:100F3000BDE8104050220649044800F069BD10BDCC
:100F4000000002400004024000000020E83F0020B2
:100F500034000020044910B50A68024202D008603B
:100F6000FFF7CCFF10BD0000143C01402DE9F84F05
:100F7000DFF8BCA10022012503264FF00F090AF17A
:100F8000040BAAF1040E00BF0B6805FA02F423401B
:100F9000A34270D10F7907F00307012F01D0022F70
:100FA00016D187684FEA420806FA08FC27EA0C07C0
:100FB000D1F80CC00CFA08FC4CEA070CC0F808C0C9
:100FC0004768A7430C79C4F3001494403C43446041
:100FD0000C79E443A4070AD0C4684FEA420C06FA2D
:100FE0000CF7BC438F6807FA0CF72743C7600C79EE
:100FF00004F00304022C12D1D40800EB840CDCF8BA
:1010000020405707FF0E09FA07F824EA0804D1F830
:10101000108008FA07F848EA0408CCF82080046831
:101020004FEA420C06FA0CF7BC430F7907F00307AE
:1010300007FA0CF7274307604C6814F4403F70D060
:101040003C4C276847F480472760246822F0030758
:1010500004F480440094384C07EB040CDCF8084896
:1010600097074FEA177809FA08F7BC43334FB8429D
:1010700002D1002724E054E0314FB84201D10127CA
:101080001EE0304FB84201D1022719E02E4FB8427E
:1010900001D1032714E02D4FB84201D104270FE0FE
:1010A0002B4FB84201D105270AE02A4FB84201D19F
:1010B000062705E0284FB84201D1072700E008279E
:1010C00007FA08F72743CCF80878DAF800405746C3
:1010D000D1F804C09C435FEACC2C00D51C433C6093
:1010E000DBF800405F46D1F804C09C435FEA8C2CDB
:1010F00000D51C433C60DEF800407746D1F804C0C0
:101100009C435FEA8C3C00D51C433C60084F083F81
:101110003C68D1F804C09C435FEACC3C00D51C433A
:101120003C60521C102AFFF42FAFBDE8F88F00007E
:10113000083C0140443802400030014000000240B9
:101140000004024000080240000C0240001002406F
:101150000014024000180240001C024000690840D0
:1011600000D001207047426921EA02030A4043EAA5
:101170000241816170470AB1816170470904FBE750
:1011800001488068704700001000002070B504001E
:1011900025D094F83D00002520B984F83C50204625
:1011A00000F0B8F8242084F83D002068016821F0A0
:1011B000010101602068016841F40041016020687C
:1011C000016821F40041016000F0B8FE4D4A6168F9
:1011D000914201D84C4900E04C49884201D201209B
:1011E00070BD4B492368B0FBF1F15E6826F03F0605
:1011F0000E435E606368934206D94FF49673594379
:101200004FF47A73B1FBF3F12368491C1E6A26F090
:101210003F06314319626168914210D84900401E6F
:10122000B0FBF1F2521CC2F30B02042A01D20420DB
:1012300022E0B0FBF1F0401CC0F30B001CE0A26800
:10124000F2B301EBC10303EB0116431EB3FBF6F34C
:101250005B1C43F480431B0549D092B301EBC102F0
:1012600002EB0111401EB0FBF1F0401CC0F30B007B
:1012700040F4804040F400402168CA694CF6FF7396
:101280009A431043C861D4E90710014320680268FB
:1012900022F0C00211430160D4E903010143206838
:1012A000826848F2FF339A4311438160D4E9050113
:1012B00008432168CA6822F0FF021043C86001E0B9
:1012C0000EE016E02068016841F00101016025642C
:1012D000202084F83D00256384F83E50002070BD36
:1012E00001EB4106431EB3FBF6F35B1CB3E70120A1
:1012F000C2E701EB4101401EB0FBF1F0401CC0F31E
:101300000B00B7E7A086010080841E0000093D00A5
:1013100040420F0010B586B0044614216846FEF71F
:10132000A7FF14492068884221D113480021026890
:1013300042F002020260006800F0020005904FF4E3
:10134000407000901220CDE9010103200390042099
:10135000049069460948FFF709FE07481030016804
:1013600041F400110160006800F40010059006B01F
:1013700010BD00000054004030380240000402401C
:101380002DE9FF4104460068816800917749784E55
:101390004FF04027884201D1324600E03A46926839
:1013A000019240688846029001D1304600E03846FC
:1013B0004068039060684FF00105B0F5007F1CD0D5
:1013C000D8B1900705D50398000602D5204601F054
:1013D000B9F90098C0070FD0029840067FD5216860
:1013E0002046CA68E16A8B1CE3620A80618E491E4E
:1013F0006186618E002967D071E00098800719D559
:101400000298000616D5616A20468A1C626222682C
:101410000988D160618D491E6185618D51B901686E
:101420004A6822F0A0024A60418E19B980F8415002
:1014300000F0A0F80198C00705D00398400602D537
:10144000204601F04FF90198400622D50398800606
:101450001FD52168414501D1304600E0384640683B
:1014600020F0600101D1304600E03846416020683C
:10147000416821F0A00141602068C1688068019046
:1014800084F84150606C40F002006064204600F037
:1014900093F90098000767D50298800664D5206804
:1014A000416821F0A00141602168414501D13046E9
:1014B00000E03846406820F0600000D03E46706092
:1014C00020688068009043E001684A6822F060026A
:1014D0004A60418D19B980F8415000F04BF80098EE
:1014E00040061ED5029880061BD52068416821F071
:1014F000600141602168414501D1304600E0384635
:10150000406820F0A00101D1304600E0384641603B
:1015100084F84150606C40F002006064204600F0A6
:101520004BF9019800071FD5039880061CD5216848
:10153000414501D1304600E03846406820F0A00027
:1015400000D03E4670602068416821F06001416033
:1015500084F84150606C40F00400606404B02046A0
:10156000BDE8F04100F028B9BDE8FF810038004037
:1015700000340040704700002DE9F84F0446002574
:101580004068DFF82CA28B4EAB464FF040274FF05F
:101590000108B0F5007F07D030B1B0F5407F78D0BA
:1015A000B0F5807F75D0F6E0A06B38B1FFF7EAFAAE
:1015B00020B1606C40F008006064012564230122C2
:1015C0000221204601F092F930B1606C40F0010038
:1015D000606484F841800125642300228021204634
:1015E00001F084F930B1606C40F00100606484F86F
:1015F000418001252068C16921F48061C1612068B2
:1016000081680091416821F00201416094F8410035
:1016100005283CD1E06B38B1FFF7B4FA20B1606C1B
:1016200040F008006064012521685046814201D1E4
:10163000314600E03946C96921F4806101D1324662
:1016400000E03A46D161CDF800B02168814201D175
:10165000314600E03946C968009101D1314600E0C9
:1016600039468968009101D1314600E03946496820
:1016700021F0010101D1324600E03A465160616833
:1016800000297DD02168514500D03E46F06882E0B7
:10169000FFE7E06B38B1FFF775FA20B1606C40F0FE
:1016A00008006064012594F8410005285ED1A06B14
:1016B00038B1FFF767FA20B1606C40F00800606451
:1016C0000125FFF75DFD81460DE000BFFFF758FDE6
:1016D000A0EB0900642806D9606C40F0010060644A
:1016E00084F8418001252168514501D1314600E04F
:1016F00039468968C9438907E8D40CE0FFF740FD03
:10170000A0EB0900642806D9606C40F00100606419
:1017100084F8418001252168514501D1304600E01F
:1017200038468068C0430006E8D5514501D13146AE
:1017300000E03946C96921F4806101D1324600E0F8
:101740003A46D161CDF800B02168514501D130460B
:1017500000E038468068009001D1304600E038460D
:10176000406820F0020000D03E4670602068C169E9
:1017700021F48061C1612068C1688168009100E046
:101780000EE0416821F0010141606068B0F5807FA2
:1017900006D02068C06884F841802846BDE8F88FEC
:1017A000606C40F04000606484F841800125F2E7FD
:1017B0000038004000340040704700002DE9F04739
:1017C000040005D094F841004FF0000818B109E07A
:1017D0000120BDE8F08784F84080514860632046CE
:1017E00000F0A6F8022684F841602068C16940F63E
:1017F000BF77B943C1612068066260694FF4007920
:1018000002282FD0E06870B12025A068202800D8D9
:101810006D00012000F02AFA216949451FD1E168D5
:1018200019B1A90002E01025EFE7E900B0FBF1F0E3
:1018300000EB800061694000B0FBF1F0401D0A211F
:10184000B0FBF1F000F00101401A40080902821ECD
:10185000FE2A09D3606C40F010006064B8E7B0FB6A
:10186000F5F0E5E7022000212269084302432068E1
:101870000262D4E901010843A269E1681143084307
:101880002168CA69BA43104340F40060C861206A05
:1018900001283AD12348606323482168234A4FF046
:1018A0004023814201D1114600E01946C96921EA6D
:1018B000070101D1154600E01D46E961216881421A
:1018C00001D1114600E019460E622568854201D11A
:1018D000114600E01946C9698EB2616849451BD0BE
:1018E000D1B100212789B4F80CC047EA0C07B4F83D
:1018F00018C04CEA010C47EA0C07B9B2314341F475
:101900000061854200D01A46D161C4F844800120AC
:1019100084F8410000205CE74FF48071E2E70000AA
:10192000FB27000881130008003800400034004005
:10193000F0B58BB0064614216846FEF799FC0025E9
:1019400005950695079508952B493068884251D131
:101950000120059032200224CDE9060405A800F0FC
:10196000B5F908B1FFF75CF82448016841F48041FB
:1019700001600068214900F480401039099008682E
:1019800040F004000860086800F00400099008684E
:1019900040F0020008600868052700F00200099086
:1019A00008208DE83100CDE9035769461448FFF758
:1019B000DDFAB8028DE83100CDE9035769461148D8
:1019C000FFF7D4FA114C1048C4E900050015A560D2
:1019D000C4E90350400060618000A0614011C4E987
:1019E000070520466562FFF7E7F908B1FFF718F829
:1019F000F463A6630BB0F0BD0038004040380240ED
:101A000000080240000402405860024030400020BC
:101A1000F8B5044629B122B194F84100012829D132
:101A200001E00120F8BD94F84000012822D00126F1
:101A300084F84060042084F8410000256564E16278
:101A40002068C06900F00700032815D0052813D0CE
:101A500022866286E16B1F480864E16B1E48C863FA
:101A6000E16B1E48C8642168C869C0F301200328DF
:101A700009D00BE00220F8BD4FF6FF7000EA4200EB
:101A800020866086E6E7C86888680090238E0C315F
:101A9000E26AE06BFFF7FAF940B154F8440F40F006
:101AA000080044F8040966702570BAE784F84050CD
:101AB00020684168C90703D1416841F001014160D4
:101AC0002068C169490503D4C16941F48061C161DD
:101AD0000020F8BDF1270008CD270008A527000841
:101AE000114910B588421BD1104C20462168C068AE
:101AF00004290FDA0E4A00EB800002EB801001EBA4
:101B0000810100EB0111A2F1A00003F05DFA206851
:101B1000401C04E0312804D0401CE060002020601C
:101B200010BD0020F9E70000E83F00200000002081
:101B3000D400002070477047024881680278114441
:101B400081607047100000200B4810B5016841F417
:101B500000710160016841F480610160016841F435
:101B600080710160032000F06FF80F2000F006F88C
:101B700000F024F8002010BD003C024070B50D4D6F
:101B800004464FF47A712878B1FBF0F00A490968ED
:101B9000B1FBF0F000F080FC48B9102C07D2002215
:101BA0002146501E00F030F800206C6070BD01200E
:101BB00070BD0000100000201C0000200A4808B57D
:101BC000016841F480410160006800F480400090A9
:101BD0000548001F016841F080510160006800F075
:101BE0008050009008BD000044380240002809DB06
:101BF00000F01F02012191404009800000F1E02027
:101C0000C0F8001170470000F0B40E4B1B680C4682
:101C1000C3F30223C3F10705042D00D90425191DC0
:101C2000072901D2002300E0DB1E012606FA05F198
:101C3000491E214099409E40761E16403143F0BC1B
:101C400001F056B90CED00E0064900F00702086803
:101C50004FF6FF03184040EA0220034A1043086091
:101C6000704700000CED00E00000FA05014600207E
:101C7000012908D11149096811F4000104D0B1F516
:101C8000000F00D10E4870470C48001F0168006823
:101C9000490200F03F0001D50A4900E00A49074A1D
:101CA000B1FBF0F07C321168C1F388114143106838
:101CB000C0F30270B1FBF0F070470000083802403A
:101CC0000080BB0040787D010024F4002DE9F8433A
:101CD000054600684FF00109C1074FF0000601D129
:101CE000400727D5DFF80C81C8F86860FFF748FA8D
:101CF0000746414C05E000BFFFF742FAC01B02282F
:101D000057D820680001F7D468688101287A41EA31
:101D10000070394984310860C8F86890FFF730FADC
:101D2000074604E0FFF72CFAC01B022841D82068C0
:101D30000001F7D52878800752D52F484030016838
:101D400041F08051016000682C4C00F08050009000
:101D5000206840F480702060FFF712FA074604E024
:101D6000FFF70EFAC01B022823D82068C005F7D55C
:101D7000214C7034206810F4407020D0A98901F4FF
:101D8000407181421BD020681D4920F44070C1F889
:101D900000900E6020602068C00710D0FFF7F0F9B7
:101DA000064641F2883707E0FFF7EAF9801BB842A0
:101DB00002D90320BDE8F88320688007F4D5E968DC
:101DC0000D48C1F301220830032A0BD0016821F429
:101DD000F81101602068A989C1F30B010843206054
:101DE0000020E7E70268074B22F4F81219400A4383
:101DF0000260EFE7000047420038024000700040F8
:101E0000400E4742FFFCFF0F2DE9F0470E4605004C
:101E100065D0DFF81481D8F80000F7B200F00700B1
:101E2000B04207D288F80070D8F8000000F0070030
:101E3000B04254D128683D4C810712D5400703D5E4
:101E4000206840F4E05020602878000703D520681F
:101E500040F4604020602068A96820F0F00008434A
:101E600020602878C0072DD03049686808390128DB
:101E700012D0022813D0032811D00968890700293D
:101E80002DDA216821F0030101432160FFF778F981
:101E9000814641F2883A0EE009688903EFE7096854
:101EA0008901ECE7FFF76CF9A0EB0901514502D974
:101EB0000320BDE8F0872068696800F00C00B0EBF3
:101EC000810FEFD1D8F80010404601F00701B14270
:101ED00007D90770006800F00700B04201D0012068
:101EE000E7E72878400705D52068E96820F4E05046
:101EF000084320602878000706D52068296920F467
:101F0000604040EAC100206000F038F82168084ACB
:101F1000C1F30311515CC8400649086006480068D7
:101F2000FFF72CFE0020C4E7003C024008380240C6
:101F300016AD00081C0000201400002004480549CC
:101F400000680968044AC1F38221515CC8407047A7
:101F50001C0000200838024026AD0008044805494E
:101F600000680968044AC1F34231515CC8407047B7
:101F70001C0000200838024026AD0008154810B5A6
:101F8000006810F00C02144813D01449042A0FD032
:101F9000082A0ED10F4C241F2268236802F03F024A
:101FA0005B0207D52068C0F38810A0FB010106E0A2
:101FB000084610BD2168C1F38811A1FB0001002370
:101FC000FEF7FEF82168C1F30141491C4900B0FB4E
:101FD000F1F010BD083802400024F40040787D0183
:101FE0002DE9F84F04006ED02078DFF84C93C0073D
:101FF000A9F104054AD009F104000168C1F3810187
:10200000012908D00068C0F3810002280AD1D9F85C
:102010000000400206D52868800337D56068002894
:10202000E1D033E06068B0F5803F10D0B0F5A02F6C
:10203000286810D020F480302860286820F48020A0
:1020400028606068A8B1FFF79BF806460DE0286895
:1020500040F48030F4E740F480202860F7E700BFC8
:10206000FFF78EF8801B642873D828688003F7D5A3
:102070000CE0FFF785F8064605E000BFFFF780F8A3
:10208000801B6428F0D828688003F7D42078DFF814
:10209000AC8280074FF0000A3ED5A748001D0168BA
:1020A00011F00C0F08D00068C0F3810002280BD19A
:1020B000D9F80000400207D42868800716D5E068E8
:1020C000012800D112E033E1E068B8B10120C8F87E
:1020D0000000FFF755F8064605E000BFFFF750F88F
:1020E000801B0228C0D828688007F7D52868216996
:1020F00020F0F80040EAC10028600DE0C8F800A018
:10210000FFF73EF8064604E0FFF73AF8801B022886
:102110001FD828688007F7D42078000722D5864F7B
:1021200087486169703771B101210160FFF728F8B4
:10213000064604E0FFF724F8801B022809D8386817
:102140008007F7D50EE0C0F800A0FFF719F80646A3
:1021500005E082E0FFF714F8801B02287DD838687C
:102160008007F7D42078400768D5DFF8CCB1002786
:102170000BF13C0BDBF80000C0000BD4DBF80010C7
:1021800041F08051CBF80010DBF80000012700F08F
:10219000805000906B4E3068C00510D4306840F419
:1021A00080703060FEF7ECFF009005E0FEF7E8FF7E
:1021B0000099401A022850D83068C005F6D55E4E06
:1021C000A0686C3601280FD00528306810D020F0A8
:1021D00001003060306820F004003060A068B8B1C1
:1021E000FEF7CEFF00900FE0306840F00100F4E70A
:1021F00040F004003060F7E7FEF7C2FF0099411A93
:1022000041F28830814266D830688007F4D50EE00C
:10221000FEF7B6FF009007E0FEF7B2FF0099411A03
:1022200041F28830814256D830688007F4D42FB10B
:10223000DBF8001021F08051CBF80010A069C8B382
:102240003D49091D0968C1F3810102294AD00228CC
:10225000504607D0C8F8600000E03CE0FEF790FF71
:1022600004463BE04746C8F86000FEF789FF064693
:1022700005E000BFFEF784FF801B02282BD82868EA
:102280008001F7D4D4E907010843A16A2E4A49081E
:1022900002EB0141626A41EA8211084394F82C1072
:1022A00040EA0161C9F8001001203866FEF768FFB6
:1022B000044606E03EE000BFFEF762FF001B022876
:1022C00009D828688001F7D534E000BFFEF758FF31
:1022D000001B022802D90320BDE8F88F286880017E
:1022E000F4D427E00128F7D0D9F80000E26900F41F
:1022F000800191421CD1226A00F03F01914217D126
:1023000047F6C071626A0140B1EB821F10D1A26A28
:102310004FF0FF3300F4403103EB5202B1EB024FB8
:1023200006D194F82C1000F07060B0EB016F01D072
:102330000120D1E70020CFE70438024000004742E7
:10234000800E4742007000400000FFFF70B504009F
:1023500009D0606A002540B125616561A56294F8E5
:10236000510040B10CE0012070BD6068B0F5827F83
:10237000F4D0E561F2E784F85050204600F044F8CC
:10238000022084F851002068016821F040010160BA
:10239000A088218900F4827001F404410843A189D6
:1023A00001F400610843217C01F002010843217D12
:1023B00001F001010843218B01F400710843217FE2
:1023C00001F03801084394F8201001F0800108431F
:1023D000218D01F40051084321680860A06904219F
:1023E00001EA104094F8241001F01001084321681C
:1023F00048602068C16921F40061C1616565012000
:1024000084F85100002070BDF0B587B00446142157
:102410006846FDF72DFF1C492068884232D11B48D1
:102420000024016841F480510160006800F480508C
:10243000059016481438016841F0010101600168F7
:1024400001F001010591016841F00201016000689D
:10245000022500F0020005902020CDE9000502AA27
:102460000326052782E8D00069460948FEF77EFD6D
:102470003020CDE9000502AA694682E8D00005486F
:10248000FEF774FD07B0F0BD003001404438024053
:10249000000002400004024010B5401EB0F1807FF1
:1024A00001D3012010BD4FF0E02460610F216017BF
:1024B00000F01EFD0020A06107202061002010BD5B
:1024C00070B5040004D094F84100002510B106E076
:1024D000012070BD84F84050204600F023F82420ED
:1024E00084F841002068C16821F40051C160204691
:1024F00000F008FC2068016921F490410161206826
:10250000416921F02A0141612068C16841F400510C
:10251000C1606564202084F8410084F8420065634E
:10252000002070BD2DE9F04186B0064614216846B2
:10253000FDF79EFEDFF8F0C031683C48022203231D
:1025400007273B4D002461454FD138491431D1F85C
:1025500000C04CF0100CC1F800C0096801F0100177
:102560000591016841F0010101600068694600F0D1
:102570000100059058028DE81500CDE90337284683
:10258000FEF7F4FC2C4D2B484FF000672860C5E99E
:1025900001744FF48068C5E903486C61AC61EC617B
:1025A0002C6228466C62FEF707FC08B1FEF738FA89
:1025B000F563AE63204D1F4860357830E5E80207CB
:1025C0004020A5E811011C4845F814496030AC6171
:1025D000EC612C626C62FEF7EFFB08B1FEF720FAAB
:1025E000B563AE6306B0BDE8F081144EB142F9D1D7
:1025F0000E4910310E6846F400360E60096801F489
:1026000000310591016841F00101016000686946EF
:1026100000F0010005900C208DE81500CDE903378E
:102620002846FEF7A3FCDDE70010014030380240E9
:102630000000024040640240784100200044004015
:102640002DE9F843044690F84100984616460D4699
:10265000202802D00220BDE8F88385B17EB1002099
:102660006064212084F84100FEF78AFDA68481463B
:10267000E684A0682027B0F5805F02D003E0012047
:10268000E9E7206910B12E4600250EE000260CE097
:102690008021204600F0BCFBA8B9C6B116F8010B9A
:1026A00021684860E08C401EE084E08C4B464FF08F
:1026B0000002CDF800800028EAD14FF0400120460A
:1026C00000F0A6FB40B184F841700320C3E735F861
:1026D000020BC0F30800E3E784F841700020BAE77A
:1026E000FEE7000070B515490268154B4FF0402415
:1026F0008A4201D11A4600E02246D568C26A961C79
:10270000C6621580428E521E4286428E002A14D125
:1027100002688A4201D1194600E02146496821F049
:10272000600100D023465960418D002905D14FF04A
:10273000010180F84110FEF71DFF70BD0038004018
:102740000034004070B5416A144B8A1C426205682F
:102750000988134A4FF040249D4201D1154600E0FC
:102760002546E960418D491E4185418D002914D1DE
:102770000168994201D1114600E02146496821F0E3
:10278000A00100D022465160418E002905D14FF0B2
:10279000010180F84110FEF7EDFE70BD00380040E9
:1027A0000034004010B5806B01684A6822F00302D3
:1027B0004A60002141854186012180F84110416C29
:1027C00041F008014164FEF7F7FF10BD10B5014666
:1027D000806BC96949B901684A6822F001024A6000
:1027E00000214186012180F84110FFF779F910BDE1
:1027F00010B5806BFFF79EF910BD7CB501680446EB
:102800008868009094F841000125042834D100988C
:10281000C00718D04868C043400614D4C968204691
:10282000E26A1180E16A891CE162618E491E61865B
:10283000618E41B901684A6822F060024A6080F8FE
:102840004150FFF74DF90098400615D520684168C2
:10285000C943890610D4416821F0600141602068B5
:10286000C1688068019084F84150606C40F00200BB
:1028700060642046FEF7A0FF94F84100032834D19D
:102880000098800719D521684868C043000614D411
:10289000626A20461288CA60616A891C6162618D21
:1028A000491E6185618D41B901684A6822F0A00224
:1028B0004A6080F84150FFF73EF90098000714D5B0
:1028C00020684168C94389060FD4416821F0A001FE
:1028D000416020688068009084F84150606C40F04E
:1028E000040060642046FEF767FF7CBD2DE9F041DF
:1028F0001C46174688460546FEF742FC064607E09A
:10290000601C05D0FEF73CFC801BA0420BD254B1EA
:102910002868816838EA01000DD00020B842EFD164
:102920000020BDE8F081012085F84100002085F8F5
:1029300040000320F5E70120F0E700000C4810B547
:102940000A4901601021416000218160416181617B
:10295000C1770177417781770162FEF763F800283C
:1029600003D0BDE81040FEF75BB810BD0000055075
:10297000543F0020154808B5016841F4001101607A
:10298000016801F400110091016841F480010160C7
:102990000068002200F48000009011460E20FFF72E
:1029A00033F90E20FFF722F9002211463A20FFF7F3
:1029B0002BF93A20FFF71AF9002211464620FFF7BB
:1029C00023F9BDE808404620FFF710B9303802402F
:1029D000F0B587B014216846FDF74AFC374800245B
:1029E000016841F010010160016801F010010591DA
:1029F000016841F080010160016801F080010591EA
:102A0000016841F004010160016801F004010591D1
:102A1000016841F001010160016801F001010591C7
:102A2000016841F002010160016801F002010591B5
:102A3000016841F0080101600068214E00F00800C3
:102A40000590002210213046FEF795FB1D4F002215
:102A500004213846FEF78FFB01254FF40410009542
:102A6000CDE9010469461848FEF780FA102000906D
:102A7000CDE90154694630460394FEF777FA042005
:102A80000090CDE90154694638460394FEF76EFA8A
:102A9000680300904FF4881001900220029069466C
:102AA0000A48FEF763FA002211460620FFF7ACF849
:102AB0000620FFF79BF807B0F0BD00003038024059
:102AC000000802400004024000000240000C0240E6
:102AD0000D4810B50B4901600C49416000214FF4CD
:102AE00080428160C0E9031241618161C16101627C
:102AF000FEF74CFB002803D0BDE81040FDF790BF67
:102B000010BD000000540040943F0020A08601004A
:102B10000E4810B50C4901604FF44071416000212E
:102B20000122C0E902124FF4FA52C0E90412816195
:102B3000C1610162FEF742FE002803D0BDE81040EB
:102B4000FDF76EBF10BD000000380040E83F0020D8
:102B50000F4810B50D4901604FF4827141600021AA
:102B60008160C1604FF400720161C0E90512C1616A
:102B70000162416281620A21C162FFF7E7FB00281E
:102B800003D0BDE81040FDF74BBF10BD0030014041
:102B9000904000200C4810B50A4901604FF4E13123
:102BA0004160002181600C22C160C0E90412816192
:102BB000C161FFF785FC002803D0BDE81040FDF798
:102BC0002FBF10BD00100140E84000200C4810B598
:102BD0000A4901604FF4E1314160002181600C221B
:102BE000C160C0E904128161C161FFF769FC00287E
:102BF00003D0BDE81040FDF713BF10BD00440040F6
:102C000030410020FEE7FEE770477047FEF794BFB3
:102C100030B593B030216846FDF72AFB14210CA88B
:102C2000FDF726FB1D480025016841F08051016039
:102C3000006800F0805011901948016841F480410B
:102C400001600068022400F480401190012003908C
:102C500010200490009406940820CDE90750A82085
:102C6000CDE9090404200B906846FFF7B9F908B1D3
:102C700072B6FEE70CA90F2081E831004FF4A05096
:102C80000F904FF48050109005210CA8FFF7BCF86E
:102C9000002801D072B6FEE713B030BD40380240C4
:102CA000007000400248016841F470010160704703
:102CB00088ED00E001680C3151E8002F22F4907299
:102CC00041E80023002BF5D10168143151E8002FB1
:102CD00022F0010241E80023002BF5D1016B01290C
:102CE00009D101680C3151E8002F22F0100241E8AF
:102CF0000023002BF5D1202180F842100021016330
:102D00007047000070B5044600680169E26821F46C
:102D10004051114301612169A068E269084361697A
:102D2000114308432168CA6849F20C639A4302437D
:102D3000CA6020684169A26921F440711143416170
:102D400031492068884202D03049884202D1FFF7D9
:102D500005F901E0FFF7F2F8E26900231921642583
:102D60003226B2F5004F626828D0A0FB0101930F14
:102D70009200FDF725FA0146B0FBF5F06FF018025E
:102D8000504301EB800006EB0010B0FBF5F000F0C3
:102D9000F002B1FBF5F002EB0012B1FBF5F06FF0C1
:102DA0001803584301EB800006EB0010B0FBF5F070
:102DB00000F00F0021681044886070BDA0FB010185
:102DC00092185B41FDF7FCF90146B0FBF5F00201FA
:102DD000B1FBF5F06FF01803584301EB800006EBF0
:102DE000C000B0FBF5F000F0F80002EB4002B1FBD0
:102DF000F5F0584301EB800006EBC000B0FBF5F0A6
:102E000000F00700D6E70000001001400014014068
:102E10002DE9F843984617460D460446089E24E0DF
:102E2000701C22D0FEF7ACF9A0EB0800B0421AD813
:102E3000CEB12068C168490717D5802D15D0402D27
:102E400013D00168C94309070FD401680025406801
:102E500000902046FFF72EFF0820606484F8405061
:102E60000120BDE8F8830320FBE72068006835EA0D
:102E7000000004D00020B842D2D00020F1E70120A9
:102E8000F9E7FEE70FB4024610B504A9034B039817
:102E900001F024FA10BC5DF814FB0000DD4E0008C0
:102EA0000FB4054B10B503A9044A029801F016FAB5
:102EB00010BC5DF814FB0000DD4E0008240000206B
:102EC00003B401984100009850EAC12018BF0420C3
:102ED0004A0D18BF40F0010040F2FF72B2EB515FA3
:102EE00008BF40F00200012808BF052002B070476B
:102EF0000907090E002804DB00F1E02080F8001427
:102F0000704700F00F0000F1E02080F8141D7047BA
:102F100030B528B1144C031F002021680A4605E093
:102F2000084630BD9A4203D810465268002AF9D1AB
:102F3000002800D041680BD00468A3EB0005A5422F
:102F400004D11B681C440346046002E0436000E0B7
:102F500023603AB11C68D51AA54203D115682C44E8
:102F60001C6052685A6030BD280000202DED020B15
:102F7000019820F0004001909DED000B02B07047D9
:102F80002DE9F0412DED020B9FED3D0B2DED028B58
:102F90009FED3D8BDDE90254C4F30A50A0F2FF36E9
:102FA000142E37DA002E18DA53EC102B9DED020B9D
:102FB00051EC100BFDF775F953EC182BFDF754FB92
:102FC00057D2002CA4BF0024254652DA24F000403A
:102FD000284318BF2E4C4CD01AE02E4820FA06F792
:102FE00004EA070028431FD053EC102B9DED020B81
:102FF00051EC100BFDF755F953EC182BFDF734FB92
:1030000037D2002C03DA4FF48010F0400444BC4364
:1030100000252EE0332E07DCA6F114004FF0FF311F
:1030200021FA00F73D4206D19DED020BBDEC028B6B
:1030300002B0BDE8F08153EC102B9DED020B51EC7A
:10304000100BFDF7D2F953EC182BFDF70DFB10D246
:10305000002C0DDA142E08BF641C09D0C6F1340010
:10306000012101FA00F02844A84238BF641C05463B
:10307000BD43CDE902549DED020BD7E700000000EF
:103080009C7500883CE4377E0000000000000000D2
:103090000000F0BFFFFF0F0070B5D94B00242DEDED
:1030A000020B2DED108BDDE91010984205DA20F0AF
:1030B00000429A4201D809D141B19DED100BBDECFF
:1030C000108B02B0BDE8704001F0AEB8B0F5801FC3
:1030D00026DA11430BD0002813DA012001F0F8F8AA
:1030E000BDEC108B02B0BDE8704001F0B1B8022019
:1030F00001F0EEF801F080F851EC100B81F0004186
:103100009EE06FF035049FEDC00B53EC102B9DED4E
:10311000100B51EC100BFDF76BF9CDE910010846CF
:1031200004EB2051C0F31304B948A1F2FF3120444D
:1031300000F4801080F07F6282F04052224301EB65
:1031400020559FEDB50B119253EC102B9DED100BFC
:1031500051EC100BFDF746F941EC180BA01CC0F325
:1031600013009FEDAFDB9FEDB0EBB14E7E44032823
:103170006CD296ED000B51EC180B53EC102BFDF7B5
:103180005BFA1DD1002D01BF96ED000BBDEC108B3D
:1031900002B070BD2846FDF70CFA41EC180B53EC59
:1031A0001D2BFDF725F941EC190B53EC1E2B51ECAF
:1031B000180BFDF71DF953EC192BFDF772F83FE0E2
:1031C0009FED9D0B51EC180B53EC102BFDF710F9F4
:1031D0009FED9B1B53EC112BFDF707F941EC190BED
:1031E00053EC182B51EC180BFDF702F953EC192B8B
:1031F000FDF7FEF841EC190B002D04BF53EC192B21
:1032000051EC180B1AD02846FDF7D3F941EC1A0BF4
:1032100053EC1D2BFDF7ECF853EC192BFDF7E5F8FB
:1032200053EC182BFDF7DEF841EC180B53EC1E2B7A
:1032300051EC1A0BFDF7DCF853EC182BFDF7D2F824
:10324000BDEC108B02B041EC100B70BD9FED7E0BFE
:1032500051EC180B53EC102BFDF723F841EC100B3D
:1032600051EC180B53EC102BFDF734F941EC190B12
:103270002846FDF79EF941EC1B0B53EC192B51EC42
:10328000190BFDF7B5F841EC1A0B714853EC1A2BEA
:10329000261851EC1A0BFDF7ABF841EC1F0B6D48EB
:1032A000C4F1510404F5D724B0EE4F0AF0EE6F0AD2
:1032B0000321784400F0FCFE53EC1F2B51EC100B63
:1032C000FDF796F841EC1C0B6348B0EE4F0AF0EEA8
:1032D0006F0A0421784400F0EBFE53EC1A2B51ECFA
:1032E000100BFDF785F8344353EC1C2BFCF7D9FF8A
:1032F00041EC1C0B002C4CDD9FED510B51EC180BDD
:1033000053EC102BFDF774F853EC182BFDF770F805
:1033100041EC1A0B55B353EC1D2B51EC1B0BFDF775
:1033200067F841EC1D0B53EC1C2B51EC1A0BFCF70E
:10333000B8FF53EC192BFDF75BF853EC1D2BFCF792
:10334000B0FF53EC1A2BFDF750F853EC182BFDF798
:1033500049F841EC180B53EC1E2B51EC1B0BFDF7FD
:1033600047F853EC182BFDF73DF869E753EC1C2B9D
:1033700051EC1A0BFCF795FF53EC192BFDF738F8BD
:1033800053EC1A2BFDF731F853EC182BFDF72DF801
:1033900056E735B353EC1D2B51EC1B0BFDF728F80A
:1033A00041EC1A0B53EC1C2B51EC180BFDF71AF8DF
:1033B00053EC192BFDF71CF853EC1A2BFDF712F800
:1033C00053EC182BFDF70EF841EC180B53EC1E2BA9
:1033D00051EC1B0BFDF70CF853EC182BFDF702F822
:1033E0002EE753EC1C2B51EC180BFCF7FBFF53ECB6
:1033F000192BFCF7FDFF53EC182BFCF7F6FF1FE72A
:103400000000F07F000000000000000000005043BA
:10341000645F090000000000000000000000F03FB1
:10342000763C7935EF39EA3D0000E0FE422EE63F7A
:10343000C89C000000000000555555555555D53F16
:10344000000000000000E03F00000000000000401D
:1034500086EBF9FFC29A0000B89A00000000000055
:103460002DE9F04D2DED040B2DED0E8B96B0DDE921
:103470002550279CDDF890A025F0004624F0004858
:10348000BAF1000F14BF0121002101EB4502FC49F4
:1034900053184A1093422AD3002814BF0123002353
:1034A00003EB44030B44F7498B4220D358EA000155
:1034B0009FEDF59B76D0DFF8D8B35D4503D1BAF127
:1034C000000F05D188E0BAF1000F08BF002100D03D
:1034D000012101EB450111F5001F08D8002814BF98
:1034E0000121002101EB440111F5001F0BD99DEDD5
:1034F000261B9DED240B16B0BDEC0E8B04B0BDE871
:10350000F04D00F09BBE0027002DBCBFE14988456F
:1035100021DAE1498845A8BF02271CDAC3451ADC35
:10352000DE4901EB2851142908DDC1F1340220FAEB
:1035300002F101FA02F282420DD108E058B9C1F15C
:10354000140228FA02F101FA02F2424503D101F015
:103550000101C1F1020756EA0A0124D1002C22DA46
:10356000002D18BF022F01D0012F0AD0022000F039
:10357000AFFE16B0BDEC0E8B04B0BDE8F04D00F010
:103580003BBE022000F0A4FE00F036FE51EC100B12
:1035900081F0004141EC100B16B0BDEC0E8B04B075
:1035A000BDE8F08D18E09FEDBEAB9FEDBF8B00280E
:1035B00071D1B848804522D105F1804010F58010C6
:1035C00008BFBAF1000F07D0B3450ADC002CA8BF32
:1035D0009DED260BE0DA0DE0B0EE490AF0EE690A47
:1035E000DAE7002C06DA9DED260B51EC100B81F08A
:1035F00000416FE0AE48784490ED000BCCE7D84531
:103600004DD1002C48DA2EB186423AD1BAF1000FE2
:1036100042D126E0BAF1000F13D0022000F058FE8C
:1036200000F026FE8DED020B9DED240B8DED000BC1
:1036300010EE900A039961F31E0003909DED020BBA
:10364000AAE78DED02AB9DED240B1AEE901A10EE59
:10365000900A8DED000B61F31E0003909DED020BAF
:103660009AE78DED028B9DED240B18EE901A10EE6B
:10367000900A8DED000B61F31E0003909DED020B8F
:103680008AE709DA9DED240B51EC190B53EC102B52
:10369000FCF720FF1EE020E09DED240B7CE7864236
:1036A0001BDAB4F1804F0DD0A4F10050B0F1FF50FF
:1036B00013D1002D11DB9DED240B51EC100B06F006
:1036C00059FD07E09DED240B53EC102B51EC100B32
:1036D00000F0C2BC41EC100B5EE79DED240B51ECF9
:1036E000100B01F0CDFABAF1000FCDE90E0142D175
:1036F0009FED710B46B3A6F1E040B0F17F600CD0B6
:103700005E4538D1002D00DAA7B3022F0CBF01208F
:103710004FF0FF30FCF74DFFDCE7002D01DD002C02
:103720000DDA002D01DD002C1FDB002D16DA002C38
:1037300014DB012F08BF9FED620B3FF42DAFB0EEFD
:103740004A0AF0EE6A0A27E7022F18BF002D0CD0B4
:10375000012F0AD1002DFFF61FAF06E0002DB8BFE4
:10376000002C08DA012F3FF417AFB0EE480AF0EE54
:10377000680A11E71BE0012000EBE57050EA070141
:1037800015D0791EB0EE498AF0EE698A084308BF69
:103790009FED4D8B4E480025804570DD4D494E48CC
:1037A000884514DDB0420DDB002C19DB2FE0012031
:1037B00000F08EFD16B0BDEC0E8B04B0BDE8F04DF0
:1037C00000F046BDB34502DC002C09DC1FE0864258
:1037D00002DA002C1BDA03E05E452BDD002C16DD3F
:1037E000022000F075FD00F043FD8DED020B53EC5F
:1037F0001A2B51EC180BFCF7FBFDCDE900010399E6
:10380000019861F31E0003909DED020BC4E60220B7
:1038100000F05EFD00F03CFD10EE901A18EE900AEC
:103820008DED020B8DED008B61F31E0003909DED7D
:10383000020BB1E69DED0E0B53EC192B51EC100B66
:10384000FCF7D0FD9FED260BCDE9080153EC102BC2
:103850009DED080B51EC100BFCF7CAFD9FED221BF0
:1038600053EC112BFCF7C1FD9DED081B53EC112B04
:10387000FCF7BEFD9FED1E1B53EC112B3CE08CE0D2
:10388000FFFF1F00FFFF0F00000000000000F03FDF
:103890000000F03F0000F07F0000404301FCFFFF0C
:1038A000000000000000F07F0000000000000000A9
:1038B0003E980000000000000000000000000080B2
:1038C000000000000000F0FF000000000000F0BF5A
:1038D0000000E0410000F043FFFFEF3F0000000068
:1038E000000000000000D03F555555555555D53FB7
:1038F000000000000000E03FFCF777FD9DED080BA5
:1039000041EC1A0B53EC102B51EC100BFCF770FD33
:1039100053EC1A2BFCF76CFD41EC1A0B9FEDFE0BE0
:1039200053EC102B9DED080B51EC100BFCF760FDD8
:1039300041EC1B0B9FEDFA0B51EC1A0B53EC102BC7
:10394000FCF756FD41EC1A0B9FEDF70B53EC102BD7
:103950009DED080B51EC100BFCF74AFD53EC1A2BB4
:10396000FCF740FD41EC1A0B51EC1B0B53EC1A2BEE
:10397000FCF797FC0690CDE906519DED060B53EC44
:103980001B2B51EC100BFCF72DFD53EC1A2BFCF705
:103990002CFD41EC100B00F0A1B90020B6F5801F02
:1039A0000EDA9FEDE30B53EC102B9DED0E0B51EC5B
:1039B000100BFCF71DFDCDE90E016FF034000E4633
:1039C00000EB2650A0F2FF37C6F31300DA4940F0AF
:1039D0007F6646F040568842D8BF002408DDD749AC
:1039E0008142C8BF012403DC0024A6F580167F1C99
:1039F000D348784400EBC4000F9690ED00CB9DEDCA
:103A00000E0B53EC1C2B51EC100BFCF7EBFC9DED5B
:103A10000E0B41EC1B0B53EC1C2B51EC100BFCF769
:103A200040FC41EC100B51EC190B53EC102BFCF744
:103A300051FD41EC1D0B51EC1B0B53EC1D2BFCF706
:103A4000D7FC41EC1A0BBF488DED10AB78441095B4
:103A500090ED000B4FF0005040EA660000EB844010
:103A60008DED080B00F5002009909DED080B53EC3F
:103A70001C2B51EC100BFCF7B5FC9DED0E1B53EC11
:103A8000112BFCF7B2FC41EC100B53EC102B9DED0D
:103A9000100B51EC100BFCF7ABFC9DED080B41EC4F
:103AA0001C0B53EC102B9DED100B51EC100BFCF785
:103AB0009FFC53EC1B2BFCF798FC53EC1C2BFCF7E6
:103AC00091FC53EC1D2BFCF793FC41EC1C0B53ECCD
:103AD0001A2B51EC1A0BFCF78BFC41EC1B0B9A4890
:103AE0000621B0EE4B0AF0EE6B0A784400F0E0FAE3
:103AF000B0EE401AF0EE601AB0EE41DAF0EE61DAA4
:103B000053EC1B2B51EC1B0BFCF772FC53EC1D2BE5
:103B1000FCF76EFC9DED100B41EC1B0B53EC1A2BCC
:103B200051EC100BFCF7BDFB53EC1C2BFCF760FCBD
:103B300053EC1B2BFCF7B5FB9DED100B41EC1B0B65
:103B400053EC102B51EC100BFCF752FC41EC1D0B0D
:103B50009FED7FEB53EC1E2BFCF7A3FB53EC1B2BD1
:103B6000FCF79FFB0890CDE908519DED080B53EC45
:103B70001E2B51EC100BFCF735FC53EC1D2BFCF706
:103B800031FC53EC1B2BFCF730FC9DED080B41EC9A
:103B90001D0B53EC102B9DED100B51EC100BFCF793
:103BA00027FC41EC1B0B53EC1A2B51EC1D0BFCF7C3
:103BB0001FFC9DED080B41EC1A0B53EC102B51EC44
:103BC0001C0BFCF715FC53EC1A2BFCF76AFB41ECC1
:103BD0001A0B51EC1B0B53EC1A2BFCF762FB0C90ED
:103BE000CDE90C519DED0C0B53EC1B2B51EC100B44
:103BF000FCF7F8FB53EC1A2BFCF7F7FB41EC1B0B23
:103C00009FED550B53EC102B9DED0C0B51EC100B55
:103C1000FCF7EEFB41EC1A0B9FED510B51EC1B0B2B
:103C200053EC102BFCF7E4FB41EC1B0B9FED4E0B10
:103C300053EC102B9DED0C0B51EC100BFCF7D8FB4B
:103C400053EC1B2BFCF72DFB41EC100B4848784440
:103C500000EBC40090ED001B51EC100B53EC112B4A
:103C6000FCF71FFB41EC1B0B3846FCF7A2FCCDE92F
:103C7000080153EC1B2B51EC1A0BFCF712FB41EC27
:103C8000100B3C48784400EBC40090ED00CB51ECA5
:103C9000100B53EC1C2BFCF704FB9DED081B53ECA5
:103CA000112BFCF7FEFA0690CDE906519DED080BAD
:103CB00053EC102B9DED060B51EC100BFCF792FB17
:103CC00053EC1C2BFCF78EFB53EC1A2BFCF78AFBF6
:103CD00053EC1B2BFCF789FB41EC100B9DED261BD5
:103CE00053EC102B8DED001B00959DED260B51EC38
:103CF000100BFCF77DFB9DED000B41EC1A0B53EC18
:103D0000102B9DED260B51EC100BFCF76BFB9DED82
:103D1000061B53EC112B2FE0000000604715F73F06
:103D2000FE822B654715F73F44DF5DF80BAE543E2E
:103D300000000000000040438E9803007AB60B009C
:103D4000BA930000E8930000F29200000000000027
:103D50000000000000000840000000E009C7EE3F3E
:103D6000FD033ADC09C7EE3FF5015B14E02F3EBED0
:103D70007E91000038910000FCF73AFB53EC1A2BBF
:103D8000FCF78FFA9DED060B41EC1A0B53EC102B50
:103D90009DED000B51EC100BFCF72AFBCDE90C015B
:103DA0009DED0C0B51EC1A0B53EC102BFCF779FA30
:103DB000CDE902010C46AA498C422FDB611A084367
:103DC00018D19DED0C0B53EC102B9DED020B51EC1B
:103DD000100BFCF707FB41EC1B0B9FEDA30B51EC09
:103DE0001A0B53EC102BFCF75CFA53EC1B2BFCF773
:103DF0003BFC2DD2022000F06BFA00F039FA10EEF5
:103E0000901A18EE900A8DED020B8DED008B61F388
:103E10001E0003909DED020BFFF7BEBB944A24F0F9
:103E20000041914214D39349214408437FF4EFACFD
:103E30009DED0C0B53EC102B9DED020B51EC100B78
:103E4000FCF7D0FA53EC1A2BFCF70EFC7FF6DFAC34
:103E500024F000408849894A002601EB2051824223
:103E60002BDA481C4FF4801121FA00F02044844AD8
:103E7000C0F30A517A44A1F2FF3192ED000B814A5E
:103E80008DED080BCA4020EA0202C0F3130040F493
:103E90008010C1F1140120FA01F60992002CB8BF7C
:103EA00076429DED080B53EC102B9DED0C0B51EC65
:103EB000100BFCF797FACDE90C019DED0C0B51ECC2
:103EC0001A0B53EC102BFCF7ECF99FED6F0B0890DD
:103ED000CDE9085153EC102B9DED080B51EC100B64
:103EE000FCF786FA41EC1B0B9FED690B53EC102B92
:103EF0009DED080B51EC100BFCF77AFA9DED0C0BC5
:103F000041EC1C0B53EC102B9DED080B51EC100BEE
:103F1000FCF768FA53EC1A2BFCF767FA9FED5E1B6F
:103F200053EC112BFCF764FA53EC1C2BFCF7B9F99A
:103F300041EC1A0B51EC1B0B53EC1A2BFCF7B1F9AB
:103F4000CDE902019DED020B53EC1B2B51EC100B44
:103F5000FCF748FA53EC1A2BFCF747FA9DED020BDD
:103F600041EC1A0B53EC102B51EC100BFCF740FA00
:103F7000CDE908014A489DED080B0521784400F081
:103F800097F89DED081B51EC100B53EC112BFCF72F
:103F90002FFA9DED021B53EC112BFCF726FACDE90D
:103FA00006019DED020B53EC1A2B51EC100BFCF7A4
:103FB0001FFA53EC1A2BFCF774F99FED3B0B41EC05
:103FC0001A0B53EC102B9DED060B51EC100BFCF76C
:103FD00009FA9DED060B41EC1B0B53EC102B9DEDEC
:103FE000020B51EC100BFCF703FA53EC1B2BFCF704
:103FF00071FA53EC1A2BFCF7F5F99DED021B53EC0B
:10400000112BFCF7EFF953EC192BFCF7EEF9CDE986
:10401000020101EB065001150029C8BF039015DC11
:104020009DED020B324651EC100BFCF716FCFEF72F
:1040300047FF042808BF00F02BF932469DED020B24
:1040400051EC100BFCF709FCCDE902019DED020BD0
:1040500051EC180B53EC102BFCF7CAF9FFF73ABBE5
:104060000000904000000000FE822B654715973C41
:1040700000CC904000346F3F01FCFFFF0000E03FA8
:10408000C08F0000FFFF0F0000000000432EE63F3E
:10409000396CA80C615C20BEEF39FAFE422EE63F77
:1040A000908E0000000000000000000000000040B2
:1040B00070B504462DED028B4D1E00EBC500B0EE31
:1040C000408AF0EE608A90ED000B35F0060017D0C4
:1040D00053EC182B51EC100BFCF78AF941EC100B48
:1040E0006D1E04EBC50090ED001B51EC100B53EC62
:1040F000112BFCF7D6F841EC100B35F00600E7D198
:10410000022D36D0042D1CD0062D1CBFBDEC028B19
:1041100070BD53EC182B51EC100BFCF769F994EDC2
:104120000A1B53EC112BFCF7BCF853EC182BFCF7D3
:104130005FF994ED081B53EC112BFCF7B2F841EC3E
:10414000100B53EC182B51EC100BFCF751F994EDBC
:10415000061B53EC112BFCF7A4F853EC182BFCF7BF
:1041600047F994ED040B53EC102BFCF79AF841EC53
:10417000100B53EC182B51EC100BFCF739F994EDA4
:10418000021B53EC112BFCF78CF853EC182BFCF7AB
:104190002FF994ED001B53EC112BFCF782F8BDECCA
:1041A000028B41EC100B70BD2DE9F04782460F4C9D
:1041B00010480D4E0E4F001B4FF0000820F0070571
:1041C0004FF0010900221146504600F07FFF002801
:1041D00002D1306810B10020BDE8F0873C60C4E92E
:1041E0000058C6F80090EDE72C0000203C4200206B
:1041F00028000020386201209FED070B10B553EC1A
:10420000102B9FED070B51EC100BFCF763F941EC01
:10421000100B10BD000000000000000000000000B6
:10422000000000000000F03F10B553EC102B51ECE3
:10423000100BFCF736F841EC100B10BD10B553EC29
:10424000112B51EC100BFCF72CF841EC100B10BDAE
:104250009FED050B10B553EC102B51EC100BFCF738
:1042600039F941EC100B10BD000000000000000007
:104270009FED050B10B553EC102B51EC100BFCF718
:10428000B7F841EC100B10BD0000000000000070FA
:104290009FED050B10B553EC102B51EC100BFCF7F8
:1042A000A7F841EC100B10BD00000000000000104A
:1042B00002E008C8121F08C1002AFAD170477047EF
:1042C000002001E001C1121F002AFBD1704700004D
:1042D0000149086070470000300000202DE9FF4FC1
:1042E0008DB00F460546002606E025280BD0DDE9F7
:1042F0000F1290476D1C761C28780028F5D111B05C
:104300003046BDE8F08F0024A246A1460122EC49C8
:1043100000E0044315F8013F203B02FA03F0084295
:10432000F7D128782A2810D06FF02F022878A0F132
:104330003001092914D80AEB8A0102EB410144F04B
:10434000020400EB010A6D1CF0E701CF5FEA000AEE
:1043500003D544F40054CAF1000A44F002046D1C71
:1043600028782E2817D115F8010F44F004042A28C4
:104370000ED06FF02F022878A0F1300109290AD859
:1043800009EB890102EB410100EB01096D1CF2E729
:1043900057F8049B6D1C28786C280FD006DC4C283D
:1043A00017D068280DD06A2814D104E0742810D0E2
:1043B0007A280FD10DE044F400140AE044F480148C
:1043C00001E044F440146978814202D104F580147C
:1043D0006D1C6D1C2A786E2A1FD00CDC632A31D02C
:1043E00004DC002A8BD0582A11D1A3E0642A68D0BB
:1043F000692A0CD165E0732A2ED004DC6F2A73D0B1
:10440000702A04D19BE0752A6FD0782A6ED01046AE
:10441000DDE90F129047761C50E1C4F302500228E8
:1044200006D0032809D0042801CF09D0066045E151
:1044300001CFF117C0E9006140E101CF06803DE105
:1044400006703BE117F8040B8DF8000000208DF892
:104450000100EB46012003E057F804BB4FF0FF30AA
:1044600061074FF0000102D40DE008F10101884618
:1044700049450FDA8045F8DB1BF808100029F4D114
:1044800008E008F1010188468142FADB1BF80810B8
:104490000029F6D1DDE90F23AAEB08008146214669
:1044A00000F036F9304400EB080604E0DDE90F12B5
:1044B0001BF8010B9047B8F10108F7D22146484696
:1044C000F7E00A21C4F302534FF0000B0891022BCE
:1044D00004D001CFC117032B09D00AE0FF1D27F03C
:1044E0000707F7E8020108E032E01FE020E000B231
:1044F000C117042B01D140B2C117031E71F1000393
:1045000007DA4FF0000CD0EB0C006CEB01012D230F
:1045100002E0230504D52B238DF82430012303E08A
:10452000E30701D02023F7E7984658E00A2110E07E
:1045300010210EE010204FF0000B08900CE010212D
:104540004FF0000B44F004044FF00809089103E019
:1045500008214FF0000B0891C4F30253022B04D042
:1045600001CF0021032B06D006E0FF1D27F007072F
:10457000F7E8020103E080B2042B00D1C0B24FF093
:10458000000823072BD5702A07D0DDF820C08CF057
:10459000100C5CEA0B0C05D00EE040238DF82430A3
:1045A000012308E050EA010306D030238DF82430BF
:1045B0008DF8252002239846DDF820C08CF0080CE9
:1045C0005CEA0B0C0BD150EA010301D1630706D55D
:1045D00030238DF824304FF00108A9F10109582A41
:1045E00004D038A20B9208AA0A920BE03AA2F9E78B
:1045F0005B46089AFBF7E4FD0B9B9B5C0A9A521EF4
:104600000A92137050EA0102F2D10A98ADEB000051
:1046100000F1200B600702D524F4803401E04FF054
:104620000109D94502DDA9EB0B0000E0002000EBF9
:104630000B0141440890AAEB010AE00306D4DDE92E
:104640000F232146504600F063F806444FF000095E
:1046500008E009A911F80900DDE90F12904709F1F6
:104660000109761CC145F4DBE0030CD5DDE90F231D
:104670002146504600F04CF8064404E0DDE90F12F4
:1046800030209047761C0899481E08900029F5DCD8
:1046900008E00A980A990078491C0A91DDE90F128E
:1046A0009047761CBBF10001ABF1010BF1DC214618
:1046B0005046DDE90F2300F019F806446D1C1BE697
:1046C00009280100303132333435363738396162E8
:1046D00063646566000000003031323334353637AC
:1046E0003839414243444546000000002DE9F0417D
:1046F000044600251E461746880404D405E03946C2
:104700002020B0476D1C641EF9D52846BDE8F08115
:104710002DE9F041044600251E469046C80301D508
:10472000302700E02027880404D505E041463846BC
:10473000B0476D1C641EF9D52846BDE8F081000025
:1047400008B513460A46009002A10D48FEF79AFBF1
:1047500008BD0000466174616C2028696E74657242
:104760006E616C29206572726F7220696E202573EC
:104770002C206C696E652025643A2025730A0000A0
:10478000200000202DE9F04389460124002106E0A5
:1047900030F8115015FB05F504EB2524491C99420E
:1047A000F6DBE1180827FC0602E049007F1E03D073
:1047B000A142FADB122606E0122602E04900761E2C
:1047C00001D0A142FADB002114E000250C460BE0E9
:1047D000A4EB010830F814C030F818801CFB08FC6A
:1047E0004CFA07FC6544641C9C42F1DB354129F816
:1047F0001150491C9142E8DBBDE8F0832DE9F047F8
:1048000092460446B1F90000002243E001EB420366
:10481000B3F902305B035D42002307E0D71A34F995
:10482000136031F917705B1C06FB17559342F5DBDB
:10483000431C05EB6305DB1D1BB295FBF3F31DB2B7
:1048400024F81250002302F1010817E0D61A04EBF5
:10485000460934F8137039F8026C15FB06FC0CF5A8
:10486000805C07EB6C3C24F813C015FB07F707F5D9
:10487000805706EB673729F8027C5B1CB3EB680FA7
:10488000E4DB10FB05F35B1313FB05F3A0EB6330D4
:1048900000B2521C5245B9DBBDE8F08770B5054641
:1048A00000240FE031F8146016FB05F606F580468B
:1048B000F61322F8146015FB00F505F5804545F365
:1048C000CF35641C9C42EDDB70BD0000F0B54FF4A9
:1048D00080440646A14201DB611E03E011F5804FD2
:1048E00000DC124906EB420036F9125030F8020C97
:1048F0000B4610FB01F000F5005005EBA03002253F
:1049000010E01F4611FB07F3C4EB63333C46571B13
:104910001BB236F8177017FB03F707F5005700EBCB
:10492000A7306D1C9542ECDDF0BD000001C0FFFF1B
:104930002DE9FF4F8646DDE90E02544204F00304E0
:10494000224402EB80024442564202EB840506F008
:104950000306324402EB800202EB84044FF400525F
:10496000DDF834901A80002206E000BF31F81260B2
:1049700003EB4207521C7E808242F7DB002601E0F7
:1049800023F81260521C4A45FADB002105E000BF03
:1049900044F8216045F82160491C8142F8DB00227F
:1049A00048E000BF296833F9126001F580514913CE
:1049B00006FA81F14E420FFA86FB4FF480572668C3
:1049C00007EB81313144491323F8121049420FFAA1
:1049D00081FA0021461E15E005EB8107D7F804C0D7
:1049E000029F37F8118018FB0BC745F8217004EBC4
:1049F00081073EF81180D7F804C018FB0AC744F8B5
:104A00002170491CB142E7DB029901EB400131F80A
:104A1000026C16FB0BF105EB800646F8041C0EEB4E
:104A2000400131F8026C16FB0AF104EB8006521CBF
:104A300046F8041C4A45B5DBBDE8FF8F70B500237E
:104A400028E083B100EB430530F8134035F8025CF1
:104A5000641B24B2551EAB4208D130F8135046F205
:104A60008846751B08E0B0F90040F3E700EB43050A
:104A700030F813606D88AD1B2DB2A54200DA2C46CC
:104A800004F5967424B24FF4A03595FBF4F421F8A4
:104A900013405B1C9342D4DB70BD2DE9F04100252F
:104AA00001222C4608E050F82430002B00DA5B424B
:104AB000934200DD1A46641C8C42F4DB00244FF460
:104AC000804301E05210641C9A42FBDA002216E097
:104AD00050F822300026234113FB036700EB8206C7
:104AE0007368234113FB0377B368234113FB0377F8
:104AF000F368234113FB037305EBA315121D8A42D0
:104B0000E6DB95FBF1F005F07BFAE41CA04000F534
:104B1000005040F38F30BDE8F08100002DE9F041F6
:104B20000A22002409E000BF30F91430002B00DA1B
:104B30005B42934200DD1AB2641C8C42F4DBB2F596
:104B4000804F4FF0000323DB002219E030F91240C0
:104B50000025641014FB045500EB4204B4F9026014
:104B6000761016FB0655B4F90460761016FB065550
:104B7000B4F90640641014FB045403EBA413121D93
:104B80008A42E3DB93FBF1F005F03AFA00012EE0F4
:104B90000024B2F5005F00DA0124B2F5805F00DA8C
:104BA0000224B2F5006F00DA0324002216E030F888
:104BB00012500026A54015FB056700EB42067588DC
:104BC000A54015FB0577B588A54015FB0577F58849
:104BD000A54015FB057503EBA513121D8A42E6DB04
:104BE00093FBF1F005F00CFAC4F10301884000B228
:104BF000BDE8F0812DE9F04F8346DDE90B40964694
:104C0000424202F001021044DDE9097900EB440060
:104C1000624200EB420600202EE000BF00FB04F3DE
:104C20000EEB430A002205E00BEB02055D5726F868
:104C30001250521CA242F7DB002247F8202018E055
:104C400000252B4609E000BFA2EB030836F813C08D
:104C500031F818801CFB08555B1C9342F4DD6B1384
:104C600057F8205013FB035547F820502AF812300C
:104C7000521CA242E4DB401C4845CFDBBDE8F08F6C
:104C800082B0CDE9000121F0004001909DED000BC4
:104C900002B051EC100B70472DE9FF4F8946DDE95A
:104CA0000E14924686460022DDF834B03DE000BF87
:104CB00020683EF9123000F5805003EB6030B0F50B
:104CC000004F02DB47F6FF7003E010F5004F00DCF9
:104CD000184807B2784206B200204D1E0FE000BF10
:104CE00004EB800CDCF8048039F810C01CFB03884E
:104CF0003AF810C01CFB068C44F820C0401CA842A7
:104D0000EEDB09EB410030F8020C10FB03F30AEB79
:104D1000410030F8020C10FB063004EB810343F82D
:104D2000040C039820F81270521C5A45C0DBBDE8F1
:104D3000FF8F00000180FFFF2DE9F04F9346DDE972
:104D40000946824600222FE030683AF9125000F5F9
:104D5000805005EB6030B0F5004F02DB47F6FF7086
:104D600003E010F5004F00DC11480FFA80F9002035
:104D7000671E0AE006EB800C31F81080DCF804C0F6
:104D800018FB05CC46F820C0401CB842F2DB01EB12
:104D9000440030F8020C10FB05F006EB840545F8E2
:104DA000040C2BF81290521C9A42CDDBBDE8F08F18
:104DB0000180FFFF2DE9FF4F85B081461B99199CAB
:104DC0004B4203F0010319449246DDE9170B01EB56
:104DD0004403DDE912E26142159E03EB41053F28E1
:104DE00000DD3F200021C7013FB20AE0DDF870C0BE
:104DF000A1EB06083CF818C017FB0CFC42F821C0D8
:104E0000491CA14201DAB142F0DB400200B2A142EA
:104E100010DA8F1B52F827704FEAE73C10FB0CFCAE
:104E2000C7F30E0710FB07F70CEBE73742F82170CA
:104E3000491CECE7002007E052F8201001F58051F2
:104E4000491325F81010401CA042F5DBCDE902B350
:104E5000CDE90054734651462846089A05F0C2F938
:104E6000002047F6BC735A420FE000BF39F910101A
:104E700035F91070C91B994201DD194602E09142D3
:104E800000DA114629F81010401CA042EEDB09B0F0
:104E90003046BDE8F08FF0B5DDE908E5059CDDF8AA
:104EA0001CC03F2C00DD3F240023E60137B20CE09C
:104EB0009E1A30F8166016FB07F641F8236006F5D7
:104EC0008056761320F813605B1C6345F0DB0020EE
:104ED000CEF80020A88028806C80F0BD13B5142384
:104EE000012269460248FDF7ABFB00981CBD00009B
:104EF000E84000202DE9F04F91B092468B460546E0
:104F00001E4620222E4968461A9CFBF78AF92C4936
:104F10002022203108A8FBF784F9042E00DD0426A6
:104F200006EB4600694601EB400308A901EB40028D
:104F300000213FE0178835F91160206817FB06074C
:104F400007F500504FF4004CBCEBA03F02DC47F6E5
:104F5000FF7008E0DFF86CC0BCEBA03F02DB0CF197
:104F6000010000E08013B2F80280D4F804C018FBFE
:104F700006CC5E88C7F30E09764216FB09F8FF13CC
:104F800016FB07F606EBE8360CEB4606266096881D
:104F900035F811C016FB0CFC9E88764216FB09F80A
:104FA00016FB07F606EBE8360CEB460666602BF8B8
:104FB0001100491C5145BDDB11B0BDE8F08F000068
:104FC000FCBB00080080FFFF10B502885AB1002228
:104FD00002EBD27430F8123024F00104921C6352B8
:104FE000502AF5DB10BD012202EBD27430F81230EA
:104FF00024F00104921C6352502AF5DB10BD00001E
:105000002DE9F04F9946DDE90934934682460022A6
:1050100032E000BF20683AF9125000F5805005EBED
:105020006030B0F5004F02DB47F6FF7003E010F58B
:10503000004F00DC124807B2784206B200205D1E25
:105040000BE000BF04EB800C31F81080DCF804C0EA
:1050500018FB06CC44F820C0401CA842F2DB01EB50
:10506000430030F8020C10FB06F004EB830545F812
:10507000040C2BF81270521C4A45CBDBBDE8F08FB4
:105080000180FFFF70B5002392101AE030F8025B38
:1050900031F8026B002415FB064430F8025B31F84E
:1050A000026B15FB064430F8045B31F8046B15FB0A
:1050B000064430F8025C31F8026C15FB064403EB41
:1050C000A413521EE2D2184670BD00002DE9F04133
:1050D0000B3020F00706104D19E02068B04215D3C0
:1050E000B0420AD9871B201DD4F80480FBF799F839
:1050F000A019C0E90078286004E060682860201DDD
:10510000FBF78FF8201D2660BDE8F081251D2C6877
:10511000002CE2D10020F7E7280000202DE9FF4F06
:105120009DB081461F980025A9EB40064FEA0D046B
:1051300006EB45014846891F209AFFF7A3FF44F874
:1051400025006D1C072DF3DBDFF8F4A00022002101
:10515000C2EBC2060025D1F1030000D50020C1F149
:105160000A03072B00DD07230AEB460814E000BF03
:1051700001EB000C04EB8C0C38F810705CF80CBCE4
:10518000BE46CBF30E0C17FB0CF705EBE7354FEAE9
:10519000EB3C1EFB0C55401C9842E9DB04EB8600FF
:1051A00000EB8100491CC5610729D3DB521C032A8F
:1051B000CDDB0022009B15461046C0EBC006002147
:1051C00004EB860757F821609E4202DD3346024613
:1051D0000D46491C0729F5DB401C0428EDDB1F9810
:1051E0000023401B25E00024002A15DD0021C2EB2E
:1051F000C2050AEB45051E1A06EB010805EB41073F
:1052000009EB480C37F80E7C3CF80CCC1CFB07442F
:10521000491C0729F0DB05E01C1A09EB440131F9B0
:10522000061CCC031E9904F58044E41321F81340B6
:105230005B1C20998B42D6DB21B0C01CBDE8F08FEF
:10524000D0BB00082DE9FF4F8B4685B00BEBDB7020
:10525000461013997242484200F00300084400EBE4
:105260008600001D434200EB820103F00303184453
:1052700000EB860000F1040909EB82044FF0000AFC
:10528000201FCDE9002A091F4FF4005505600D606D
:1052900003460A4601F1040E00251FE0059FDDF8D4
:1052A000148037F915C0ABEB050708EB470737F952
:1052B000028CC44453F8048BACEB080C44F804CBC8
:1052C000DDF814C037F9027C3CF915C06D1CACEB5D
:1052D000070752F804CB67444EF8047BB542DDDB88
:1052E00003460A46002408E01D68AD1CAD1020C32B
:1052F0001568AD1CAD1020C2641CB442F4DB50F83C
:105300002620121DD21040F8262051F82620121D0A
:10531000D21041F82620C9F1000202F0010303EB8C
:10532000090202EB4602009B921C02EB43039B1E08
:105330000293534203F001031A4402EB4602921C0B
:10534000009B139202EB4302921E03920022731CF5
:105350000BE000BF029C30F8225024F81250039D4D
:1053600031F8224025F81240521C9A42F2DB002705
:105370004FF48045384639E05FEAC97001D00398A0
:1053800000E00298009032462946139BFFF79EFAF0
:105390000446DFF8B88025E015FB05F040F38F31B7
:1053A0004DF6C02041434FF48040A0EB21401299BC
:1053B00000B2484304F2FF1140F2FF3240F3CF3015
:1053C000914201D2401C4010281A07B23246394699
:1053D000139B0098FFF77AFA90EA040F0DD464B19A
:1053E00004463D464745D7DA09F101008146584554
:1053F000C2DB019809B0BDE8F08F0198401C019014
:10540000002016E0681C4110781C01EB600000B21F
:10541000824601463246139B0098FFF757FA90EAFE
:10542000040F03D414B10446554600E0574608F172
:105430000100089980468842E4DD504604F07DFD75
:105440000799554621F81900CEE7000000C0FFFF7C
:105450002DE9F0438946DDE9084146F28846761A8F
:10546000079D24B2AD0305F5804595FBF4F425B204
:10547000C5F5804427B236B2002412E030F814C0DB
:105480001CFB07FC0CF5005C4FEAAC3839F814C083
:105490001CFB05FC0CF5005C08EBAC3C22F814C0CE
:1054A000641C9C42EADBB2F90000884200DA1180F9
:1054B00002EB430030F9024CB44201DD20F8026CEB
:1054C00001205B1E18E000BF02EB400532F91060BE
:1054D00035F9024C0C44A64201DA22F81040B5F925
:1054E000025032F910406D1AAC4204DD641004EB36
:1054F000650422F81040401C9842E5DBBDE8F083CB
:105500002DE9F0470746914600206FF0004A0A4611
:10551000054611E0002608E037F8168012F901CBA5
:10552000A8EB4C1C1CFB0C44761C9E42F4DB54453F
:1055300001DAA24628466D1C4D454FF00004E9DB18
:1055400000FB03F208E00D19555737F81460A6EB7D
:10555000451527F81450641C9C42F4DBBDE8F08725
:105560002DE9F041064686B098460C4615460020C7
:1055700005E000BF36F8101024F81010401CA842B7
:10558000F8DB01A92046FFF759FA002009E0C1061F
:1055900034F8102001F10061A2EB214124F8101031
:1055A000401CA842F3DB2B46402225492046FFF74A
:1055B000A7FF01460622404603F0C6FE002005E094
:1055C00034F81010490024F81010401CA842F7DBF2
:1055D000052740231B4A01A92046009700F068FBDD
:1055E00001460622404603F0AFFE4023164A0DF165
:1055F0000E0104F10A00009700F05AFB0146062252
:10560000404603F0A1FE002007E000BF34F910106F
:10561000491C491024F81010401CA842F6DB002059
:1056200008E000BF36F8101034F81020891A24F86A
:105630001010401CA842F5DB06B0BDE8F081000068
:10564000BABE00083AC10008BAC300082DE9F04705
:10565000064686B098460C461546002005E000BF79
:1056600036F8101024F81010401CA842F8DB01A9ED
:105670002046FFF7E3F9002009E0C10634F81020C6
:1056800001F10061A2EB214124F81010401CA84256
:10569000F3DB2B4640223B492046FFF731FF014612
:1056A0000622404603F050FE002005E034F81010BA
:1056B000490024F81010401CA842F7DB05274023BE
:1056C000314A01A92046009700F0F2FA014606226D
:1056D000404603F039FE002034F81010490024F849
:1056E0001010401C0528F7DB4023284A01A920465A
:1056F000009700F0DDFA01460622404603F024FE42
:105700000DF10E0104F10A004023214A8A46814628
:10571000009700F0CDFA01460622404603F014FE41
:105720005FF0050034F81010490024F81010401CF8
:105730000A28F7DB4023174A51464846009700F0F5
:10574000B7FA01460622404603F0FEFD002006E0BF
:1057500034F91010891C891024F81010401CA8423C
:10576000F6DB002008E000BF36F8101034F81020F7
:10577000891A24F81010401CA842F5DB06B0BDE8D9
:10578000F0870000BABE00083AC100087AC20008DB
:10579000BAC30008FAC400082DE9FF4F86465842F4
:1057A000511000F00300184400EB8100001D43423B
:1057B0004D4203F0030300EB85040344481CD71C4F
:1057C000784303EB80034642C3F1000C03EB8608E9
:1057D0000CF0030C634403EB810C0CF1040C0CEB98
:1057E0008503CCF1000505F00305654405EB800554
:1057F00000201B1F83B005EB8609241F0BE000BFB0
:1058000000FB07F608EB860C44F820C009EB86067F
:1058100043F82060401C8842F2DD684200F001003D
:10582000284400EB4200554200EB45064FF48057F8
:1058300000204FF4AA79C7F1000A4FF4005B44E05E
:105840003EF9105043F2442C65451ADA15FB05F574
:1058500005F5805545F34F35C5F1000C0CEB8C0C6C
:1058600007EB4C0809EB683C1CFB05FC0CF5805C65
:105870000AEB6C3C1CFB05F505F580550BEB65351B
:105880001EE046F2884CACEB050515FB05F505F569
:10589000805545F34F35C5F1000C0CEB8C0C07EB34
:1058A0004C0809EB683C1CFB05FC0CF5805C0AEB22
:1058B0006C3C1CFB05F505F580550BEB65356D4221
:1058C0002DB2AD0026F81050401C9042B8DB0020ED
:1058D0004FF4801580461AE054F82070C7F8048011
:1058E00054F82070BD6054F820C0082707EBC007AB
:1058F0004CF8075053F820C0CCF8048053F820C06F
:10590000CCF8085053F820C0401C4CF8075088428F
:10591000E2DD25683088AD68AF1310FB07F7C5F3EB
:105920000D0510FB05F0656807EBA0304042E8600C
:10593000186875888068871315FB07F7C0F30D009A
:1059400015FB00F05D6807EBA0304042E8600020E6
:1059500086460190012090E0012707EB400B06EB03
:105960008007009749E000BF54F820704FF0040C06
:105970000CEB850CCDF808C0BA4657F80CC036F8C9
:1059800020704FEAAC3818FB07F8CCF30D0C1CFB69
:1059900007F708EBA73C4FF0080808EB85095AF811
:1059A0000970A7EB0C0C5AF82570674404EB800CC7
:1059B000DCF804C04CF8097053F82070DDF808C01A
:1059C000BA4657F80C80009F4FEAA83C7F881CFB22
:1059D00007FCC8F30D0818FB07F70CEBA73C5AF8B7
:1059E0000970A7EB0C0C5AF825706D1C674403EB8B
:1059F000800CDCF804C04CF80970AB45B4DC54F8FA
:105A000020C0042707EB8507E14602975CF807C032
:105A100036F820704FEAAC3818FB07F8CCF30D0CC1
:105A20001CFB07F759F825C008EBA737ACEB070CB0
:105A300004EB8007D7F80480082707EB850B48F8AC
:105A40000BC053F820C0029FE2465CF80790009F0D
:105A50004FEAA93C7F881CFB07F8C9F30D0C1CFB1F
:105A600007F75AF8255008EBA737ED1B03EB800723
:105A7000401CD7F804C04CF80B5088424FF0010589
:105A8000FFF66AAF23E000BF082054F8216000EB66
:105A9000850053F8217036583F58019806EB070CE3
:105AA000F444ACEB000080300012B646019710F5CC
:105AB000004F01DC084804E0B0F5004F01DB47F679
:105AC000FF70049E06EB45066D1C26F8020C9542FD
:105AD000DADD07B0BDE8F08F0180FFFF70B5044646
